{
  "contractName": "DNF_ICO",
  "abi": [
    {
      "anonymous": false,
      "inputs": [
        {
          "indexed": true,
          "internalType": "address",
          "name": "_contributor",
          "type": "address"
        },
        {
          "indexed": false,
          "internalType": "uint256",
          "name": "_value",
          "type": "uint256"
        }
      ],
      "name": "Contribute",
      "type": "event"
    },
    {
      "anonymous": false,
      "inputs": [],
      "name": "Finalize",
      "type": "event"
    },
    {
      "anonymous": false,
      "inputs": [
        {
          "indexed": true,
          "internalType": "address",
          "name": "_contributor",
          "type": "address"
        }
      ],
      "name": "InitialContribute",
      "type": "event"
    },
    {
      "anonymous": false,
      "inputs": [
        {
          "indexed": true,
          "internalType": "address",
          "name": "previousOwner",
          "type": "address"
        },
        {
          "indexed": true,
          "internalType": "address",
          "name": "newOwner",
          "type": "address"
        }
      ],
      "name": "OwnershipTransferred",
      "type": "event"
    },
    {
      "anonymous": false,
      "inputs": [],
      "name": "Resume",
      "type": "event"
    },
    {
      "anonymous": false,
      "inputs": [
        {
          "indexed": true,
          "internalType": "address",
          "name": "_tokenAddress",
          "type": "address"
        }
      ],
      "name": "TokenUpdate",
      "type": "event"
    },
    {
      "inputs": [
        {
          "internalType": "address",
          "name": "",
          "type": "address"
        }
      ],
      "name": "contributedAmount",
      "outputs": [
        {
          "internalType": "uint256",
          "name": "",
          "type": "uint256"
        }
      ],
      "stateMutability": "view",
      "type": "function"
    },
    {
      "inputs": [],
      "name": "fundCollector",
      "outputs": [
        {
          "internalType": "address",
          "name": "",
          "type": "address"
        }
      ],
      "stateMutability": "view",
      "type": "function"
    },
    {
      "inputs": [],
      "name": "isFinalized",
      "outputs": [
        {
          "internalType": "bool",
          "name": "",
          "type": "bool"
        }
      ],
      "stateMutability": "view",
      "type": "function"
    },
    {
      "inputs": [],
      "name": "maxCap",
      "outputs": [
        {
          "internalType": "uint256",
          "name": "",
          "type": "uint256"
        }
      ],
      "stateMutability": "view",
      "type": "function"
    },
    {
      "inputs": [],
      "name": "maxContribution",
      "outputs": [
        {
          "internalType": "uint256",
          "name": "",
          "type": "uint256"
        }
      ],
      "stateMutability": "view",
      "type": "function"
    },
    {
      "inputs": [],
      "name": "minContribution",
      "outputs": [
        {
          "internalType": "uint256",
          "name": "",
          "type": "uint256"
        }
      ],
      "stateMutability": "view",
      "type": "function"
    },
    {
      "inputs": [],
      "name": "owner",
      "outputs": [
        {
          "internalType": "address",
          "name": "",
          "type": "address"
        }
      ],
      "stateMutability": "view",
      "type": "function"
    },
    {
      "inputs": [],
      "name": "renounceOwnership",
      "outputs": [],
      "stateMutability": "nonpayable",
      "type": "function"
    },
    {
      "inputs": [],
      "name": "tokenAddress",
      "outputs": [
        {
          "internalType": "address",
          "name": "",
          "type": "address"
        }
      ],
      "stateMutability": "view",
      "type": "function"
    },
    {
      "inputs": [],
      "name": "totalContribution",
      "outputs": [
        {
          "internalType": "uint256",
          "name": "",
          "type": "uint256"
        }
      ],
      "stateMutability": "view",
      "type": "function"
    },
    {
      "inputs": [
        {
          "internalType": "address",
          "name": "newOwner",
          "type": "address"
        }
      ],
      "name": "transferOwnership",
      "outputs": [],
      "stateMutability": "nonpayable",
      "type": "function"
    },
    {
      "inputs": [
        {
          "internalType": "uint256",
          "name": "_amount",
          "type": "uint256"
        }
      ],
      "name": "contribute",
      "outputs": [],
      "stateMutability": "nonpayable",
      "type": "function"
    },
    {
      "inputs": [],
      "name": "tokenBalance",
      "outputs": [
        {
          "internalType": "uint256",
          "name": "",
          "type": "uint256"
        }
      ],
      "stateMutability": "view",
      "type": "function"
    },
    {
      "inputs": [],
      "name": "withdrawFunds",
      "outputs": [],
      "stateMutability": "nonpayable",
      "type": "function"
    },
    {
      "inputs": [],
      "name": "finalizePresale",
      "outputs": [],
      "stateMutability": "nonpayable",
      "type": "function"
    },
    {
      "inputs": [],
      "name": "resumePresale",
      "outputs": [],
      "stateMutability": "nonpayable",
      "type": "function"
    },
    {
      "inputs": [
        {
          "internalType": "address",
          "name": "_tokenAddress",
          "type": "address"
        }
      ],
      "name": "updateTokenAddress",
      "outputs": [],
      "stateMutability": "nonpayable",
      "type": "function"
    },
    {
      "inputs": [
        {
          "internalType": "address",
          "name": "_fundCollector",
          "type": "address"
        }
      ],
      "name": "updateFundCollector",
      "outputs": [],
      "stateMutability": "nonpayable",
      "type": "function"
    },
    {
      "inputs": [
        {
          "internalType": "uint256",
          "name": "_maxCap",
          "type": "uint256"
        }
      ],
      "name": "updateMaxCap",
      "outputs": [],
      "stateMutability": "nonpayable",
      "type": "function"
    },
    {
      "inputs": [
        {
          "internalType": "uint256",
          "name": "_minContribution",
          "type": "uint256"
        }
      ],
      "name": "updateMinContribution",
      "outputs": [],
      "stateMutability": "nonpayable",
      "type": "function"
    },
    {
      "inputs": [
        {
          "internalType": "uint256",
          "name": "_maxContribution",
          "type": "uint256"
        }
      ],
      "name": "updateMaxContribution",
      "outputs": [],
      "stateMutability": "nonpayable",
      "type": "function"
    }
  ],
  "bytecode": "0x608060405273dac17f958d2ee523a2206206994597c13d831ec7600160006101000a81548173ffffffffffffffffffffffffffffffffffffffff021916908373ffffffffffffffffffffffffffffffffffffffff160217905550600160009054906101000a900473ffffffffffffffffffffffffffffffffffffffff16600260006101000a81548173ffffffffffffffffffffffffffffffffffffffff021916908373ffffffffffffffffffffffffffffffffffffffff16021790555073982de5b01b906ed996d18aa73af70aa1735a89d8600360006101000a81548173ffffffffffffffffffffffffffffffffffffffff021916908373ffffffffffffffffffffffffffffffffffffffff160217905550620f4240600555637735940060065560006007556412a05f20006008556000600960006101000a81548160ff02191690831515021790555034801561015557600080fd5b5061017261016761017760201b60201c565b61017f60201b60201c565b610243565b600033905090565b60008060009054906101000a900473ffffffffffffffffffffffffffffffffffffffff169050816000806101000a81548173ffffffffffffffffffffffffffffffffffffffff021916908373ffffffffffffffffffffffffffffffffffffffff1602179055508173ffffffffffffffffffffffffffffffffffffffff168173ffffffffffffffffffffffffffffffffffffffff167f8be0079c531659141344cd1fd0a4f28419497f9722a3daafe3b4186f6b6457e060405160405180910390a35050565b611ed0806102526000396000f3fe608060405234801561001057600080fd5b50600436106101375760003560e01c80638d4e4083116100b8578063a0a6e9401161007c578063a0a6e940146102ba578063aaffadf3146102c4578063c1cbbca7146102e2578063e0961f17146102fe578063e81ba0801461032e578063f2fde38b1461034a57610137565b80638d4e4083146102265780638da5cb5b1461024457806391abe945146102625780639d76ea581461027e5780639e1a4d191461029c57610137565b806354f63ee5116100ff57806354f63ee5146101bc5780636691461a146101c6578063715018a6146101e257806386b6f462146101ec5780638d3d65761461020857610137565b80630dcf4b8f1461013c57806323548b8b1461015a57806324600fc31461017857806338dfb0a1146101825780634efd9e2c146101a0575b600080fd5b610144610366565b60405161015191906114d0565b60405180910390f35b61016261036c565b60405161016f91906114d0565b60405180910390f35b610180610372565b005b61018a610561565b604051610197919061152c565b60405180910390f35b6101ba60048036038101906101b59190611578565b610587565b005b6101c4610694565b005b6101e060048036038101906101db91906115d1565b610759565b005b6101ea61089d565b005b61020660048036038101906102019190611578565b610925565b005b610210610a34565b60405161021d91906114d0565b60405180910390f35b61022e610a3a565b60405161023b9190611619565b60405180910390f35b61024c610a4d565b604051610259919061152c565b60405180910390f35b61027c600480360381019061027791906115d1565b610a76565b005b610286610b36565b604051610293919061152c565b60405180910390f35b6102a4610b5c565b6040516102b191906114d0565b60405180910390f35b6102c2610bff565b005b6102cc610cc4565b6040516102d991906114d0565b60405180910390f35b6102fc60048036038101906102f79190611578565b610cca565b005b610318600480360381019061031391906115d1565b6111b3565b60405161032591906114d0565b60405180910390f35b61034860048036038101906103439190611578565b6111cb565b005b610364600480360381019061035f91906115d1565b611296565b005b60075481565b60085481565b61037a61138d565b73ffffffffffffffffffffffffffffffffffffffff16610398610a4d565b73ffffffffffffffffffffffffffffffffffffffff16146103ee576040517f08c379a00000000000000000000000000000000000000000000000000000000081526004016103e590611691565b60405180910390fd5b6000600260009054906101000a900473ffffffffffffffffffffffffffffffffffffffff1673ffffffffffffffffffffffffffffffffffffffff166370a08231306040518263ffffffff1660e01b815260040161044b919061152c565b602060405180830381865afa158015610468573d6000803e3d6000fd5b505050506040513d601f19601f8201168201806040525081019061048c91906116c6565b90506000811161049b57600080fd5b600260009054906101000a900473ffffffffffffffffffffffffffffffffffffffff1673ffffffffffffffffffffffffffffffffffffffff1663a9059cbb600360009054906101000a900473ffffffffffffffffffffffffffffffffffffffff16836040518363ffffffff1660e01b815260040161051a9291906116f3565b6020604051808303816000875af1158015610539573d6000803e3d6000fd5b505050506040513d601f19601f8201168201806040525081019061055d9190611748565b5050565b600360009054906101000a900473ffffffffffffffffffffffffffffffffffffffff1681565b61058f61138d565b73ffffffffffffffffffffffffffffffffffffffff166105ad610a4d565b73ffffffffffffffffffffffffffffffffffffffff1614610603576040517f08c379a00000000000000000000000000000000000000000000000000000000081526004016105fa90611691565b60405180910390fd5b60008111610646576040517f08c379a000000000000000000000000000000000000000000000000000000000815260040161063d906117e7565b60405180910390fd5b600654811061068a576040517f08c379a000000000000000000000000000000000000000000000000000000000815260040161068190611879565b60405180910390fd5b8060058190555050565b61069c61138d565b73ffffffffffffffffffffffffffffffffffffffff166106ba610a4d565b73ffffffffffffffffffffffffffffffffffffffff1614610710576040517f08c379a000000000000000000000000000000000000000000000000000000000815260040161070790611691565b60405180910390fd5b6000600960006101000a81548160ff0219169083151502179055507f490d6d11e278f168be9be39e46297f72ea877136d5bccad9cf4993e63a29568f60405160405180910390a1565b61076161138d565b73ffffffffffffffffffffffffffffffffffffffff1661077f610a4d565b73ffffffffffffffffffffffffffffffffffffffff16146107d5576040517f08c379a00000000000000000000000000000000000000000000000000000000081526004016107cc90611691565b60405180910390fd5b80600160006101000a81548173ffffffffffffffffffffffffffffffffffffffff021916908373ffffffffffffffffffffffffffffffffffffffff16021790555080600260006101000a81548173ffffffffffffffffffffffffffffffffffffffff021916908373ffffffffffffffffffffffffffffffffffffffff1602179055508073ffffffffffffffffffffffffffffffffffffffff167fdb00412b5cc49a018511a90735ebd1abebb4f1671247e36843479a0f44d98f9f60405160405180910390a250565b6108a561138d565b73ffffffffffffffffffffffffffffffffffffffff166108c3610a4d565b73ffffffffffffffffffffffffffffffffffffffff1614610919576040517f08c379a000000000000000000000000000000000000000000000000000000000815260040161091090611691565b60405180910390fd5b6109236000611395565b565b61092d61138d565b73ffffffffffffffffffffffffffffffffffffffff1661094b610a4d565b73ffffffffffffffffffffffffffffffffffffffff16146109a1576040517f08c379a000000000000000000000000000000000000000000000000000000000815260040161099890611691565b60405180910390fd5b6008548111156109e6576040517f08c379a00000000000000000000000000000000000000000000000000000000081526004016109dd9061190b565b60405180910390fd5b6005548111610a2a576040517f08c379a0000000000000000000000000000000000000000000000000000000008152600401610a219061199d565b60405180910390fd5b8060068190555050565b60065481565b600960009054906101000a900460ff1681565b60008060009054906101000a900473ffffffffffffffffffffffffffffffffffffffff16905090565b610a7e61138d565b73ffffffffffffffffffffffffffffffffffffffff16610a9c610a4d565b73ffffffffffffffffffffffffffffffffffffffff1614610af2576040517f08c379a0000000000000000000000000000000000000000000000000000000008152600401610ae990611691565b60405180910390fd5b80600360006101000a81548173ffffffffffffffffffffffffffffffffffffffff021916908373ffffffffffffffffffffffffffffffffffffffff16021790555050565b600160009054906101000a900473ffffffffffffffffffffffffffffffffffffffff1681565b6000600260009054906101000a900473ffffffffffffffffffffffffffffffffffffffff1673ffffffffffffffffffffffffffffffffffffffff166370a08231306040518263ffffffff1660e01b8152600401610bb9919061152c565b602060405180830381865afa158015610bd6573d6000803e3d6000fd5b505050506040513d601f19601f82011682018060405250810190610bfa91906116c6565b905090565b610c0761138d565b73ffffffffffffffffffffffffffffffffffffffff16610c25610a4d565b73ffffffffffffffffffffffffffffffffffffffff1614610c7b576040517f08c379a0000000000000000000000000000000000000000000000000000000008152600401610c7290611691565b60405180910390fd5b6001600960006101000a81548160ff0219169083151502179055507fc5454d111913d0c92fa9088b73be5c3fc91d1eb84db52a8a8485154f05d73f2e60405160405180910390a1565b60055481565b600654610d16600460003373ffffffffffffffffffffffffffffffffffffffff1673ffffffffffffffffffffffffffffffffffffffff1681526020019081526020016000205483611459565b1115610d57576040517f08c379a0000000000000000000000000000000000000000000000000000000008152600401610d4e90611a2f565b60405180910390fd5b600554610da3600460003373ffffffffffffffffffffffffffffffffffffffff1673ffffffffffffffffffffffffffffffffffffffff1681526020019081526020016000205483611459565b1015610de4576040517f08c379a0000000000000000000000000000000000000000000000000000000008152600401610ddb90611ac1565b60405180910390fd5b600854610df360075483611459565b1115610e34576040517f08c379a0000000000000000000000000000000000000000000000000000000008152600401610e2b90611b2d565b60405180910390fd5b600960009054906101000a900460ff1615610e84576040517f08c379a0000000000000000000000000000000000000000000000000000000008152600401610e7b90611b99565b60405180910390fd5b80600260009054906101000a900473ffffffffffffffffffffffffffffffffffffffff1673ffffffffffffffffffffffffffffffffffffffff1663dd62ed3e33306040518363ffffffff1660e01b8152600401610ee2929190611bb9565b602060405180830381865afa158015610eff573d6000803e3d6000fd5b505050506040513d601f19601f82011682018060405250810190610f2391906116c6565b1015610f64576040517f08c379a0000000000000000000000000000000000000000000000000000000008152600401610f5b90611c2e565b60405180910390fd5b600260009054906101000a900473ffffffffffffffffffffffffffffffffffffffff1673ffffffffffffffffffffffffffffffffffffffff166323b872dd3330846040518463ffffffff1660e01b8152600401610fc393929190611c4e565b6020604051808303816000875af1158015610fe2573d6000803e3d6000fd5b505050506040513d601f19601f820116820180604052508101906110069190611748565b50611050600460003373ffffffffffffffffffffffffffffffffffffffff1673ffffffffffffffffffffffffffffffffffffffff1681526020019081526020016000205482611459565b600460003373ffffffffffffffffffffffffffffffffffffffff1673ffffffffffffffffffffffffffffffffffffffff1681526020019081526020016000208190555061109f60075482611459565b6007819055506008546110b6600754600554611459565b11156110d8576001600960006101000a81548160ff0219169083151502179055505b80600460003373ffffffffffffffffffffffffffffffffffffffff1673ffffffffffffffffffffffffffffffffffffffff1681526020019081526020016000205403611162573373ffffffffffffffffffffffffffffffffffffffff167f6ef0ee34102af2ec01007f62a0fbd478588daf4eb110a4eb64af5421d41103fc60405160405180910390a25b3373ffffffffffffffffffffffffffffffffffffffff167f906faaf913a60f38b5e8f2d6f5b163239bac2d994fa1a5d21751a51587a94057826040516111a891906114d0565b60405180910390a250565b60046020528060005260406000206000915090505481565b6111d361138d565b73ffffffffffffffffffffffffffffffffffffffff166111f1610a4d565b73ffffffffffffffffffffffffffffffffffffffff1614611247576040517f08c379a000000000000000000000000000000000000000000000000000000000815260040161123e90611691565b60405180910390fd5b60065481101561128c576040517f08c379a000000000000000000000000000000000000000000000000000000000815260040161128390611cf7565b60405180910390fd5b8060088190555050565b61129e61138d565b73ffffffffffffffffffffffffffffffffffffffff166112bc610a4d565b73ffffffffffffffffffffffffffffffffffffffff1614611312576040517f08c379a000000000000000000000000000000000000000000000000000000000815260040161130990611691565b60405180910390fd5b600073ffffffffffffffffffffffffffffffffffffffff168173ffffffffffffffffffffffffffffffffffffffff1603611381576040517f08c379a000000000000000000000000000000000000000000000000000000000815260040161137890611d89565b60405180910390fd5b61138a81611395565b50565b600033905090565b60008060009054906101000a900473ffffffffffffffffffffffffffffffffffffffff169050816000806101000a81548173ffffffffffffffffffffffffffffffffffffffff021916908373ffffffffffffffffffffffffffffffffffffffff1602179055508173ffffffffffffffffffffffffffffffffffffffff168173ffffffffffffffffffffffffffffffffffffffff167f8be0079c531659141344cd1fd0a4f28419497f9722a3daafe3b4186f6b6457e060405160405180910390a35050565b60008082846114689190611dd8565b9050838110156114ad576040517f08c379a00000000000000000000000000000000000000000000000000000000081526004016114a490611e7a565b60405180910390fd5b8091505092915050565b6000819050919050565b6114ca816114b7565b82525050565b60006020820190506114e560008301846114c1565b92915050565b600073ffffffffffffffffffffffffffffffffffffffff82169050919050565b6000611516826114eb565b9050919050565b6115268161150b565b82525050565b6000602082019050611541600083018461151d565b92915050565b600080fd5b611555816114b7565b811461156057600080fd5b50565b6000813590506115728161154c565b92915050565b60006020828403121561158e5761158d611547565b5b600061159c84828501611563565b91505092915050565b6115ae8161150b565b81146115b957600080fd5b50565b6000813590506115cb816115a5565b92915050565b6000602082840312156115e7576115e6611547565b5b60006115f5848285016115bc565b91505092915050565b60008115159050919050565b611613816115fe565b82525050565b600060208201905061162e600083018461160a565b92915050565b600082825260208201905092915050565b7f4f776e61626c653a2063616c6c6572206973206e6f7420746865206f776e6572600082015250565b600061167b602083611634565b915061168682611645565b602082019050919050565b600060208201905081810360008301526116aa8161166e565b9050919050565b6000815190506116c08161154c565b92915050565b6000602082840312156116dc576116db611547565b5b60006116ea848285016116b1565b91505092915050565b6000604082019050611708600083018561151d565b61171560208301846114c1565b9392505050565b611725816115fe565b811461173057600080fd5b50565b6000815190506117428161171c565b92915050565b60006020828403121561175e5761175d611547565b5b600061176c84828501611733565b91505092915050565b7f4d494e20434f4e545249425554494f4e2043414e4e4f54204245204c4f57455260008201527f204f5220455155414c20544f2030000000000000000000000000000000000000602082015250565b60006117d1602e83611634565b91506117dc82611775565b604082019050919050565b60006020820190508181036000830152611800816117c4565b9050919050565b7f4d494e20434f4e545249425554494f4e2043414e4e4f5420424520484947484560008201527f52204f5220455155414c205448414e204d415820434f4e545249425554494f4e602082015250565b6000611863604083611634565b915061186e82611807565b604082019050919050565b6000602082019050818103600083015261189281611856565b9050919050565b7f4d415820434f4e545249425554494f4e2043414e4e4f5420424520484947484560008201527f52205448414e205448454e204d41582043415041434954590000000000000000602082015250565b60006118f5603883611634565b915061190082611899565b604082019050919050565b60006020820190508181036000830152611924816118e8565b9050919050565b7f4d415820434f4e545249425554494f4e2043414e4e4f54204245204c4f57455260008201527f204f5220455155414c205448414e204d494e20434f4e545249425554494f4e00602082015250565b6000611987603f83611634565b91506119928261192b565b604082019050919050565b600060208201905081810360008301526119b68161197a565b9050919050565b7f434f4e545249425554494f4e20414d4f554e542045584345454453204d41585f60008201527f5f544f54414c434f4e545249425554494f4e0000000000000000000000000000602082015250565b6000611a19603283611634565b9150611a24826119bd565b604082019050919050565b60006020820190508181036000830152611a4881611a0c565b9050919050565b7f4d494e5f434f4e545249425554494f4e204953204e4f542046554c4c46494c4c60008201527f4544000000000000000000000000000000000000000000000000000000000000602082015250565b6000611aab602283611634565b9150611ab682611a4f565b604082019050919050565b60006020820190508181036000830152611ada81611a9e565b9050919050565b7f45584345454453204d41585f4341500000000000000000000000000000000000600082015250565b6000611b17600f83611634565b9150611b2282611ae1565b602082019050919050565b60006020820190508181036000830152611b4681611b0a565b9050919050565b7f50524553414c452049532046494e414c495a4544000000000000000000000000600082015250565b6000611b83601483611634565b9150611b8e82611b4d565b602082019050919050565b60006020820190508181036000830152611bb281611b76565b9050919050565b6000604082019050611bce600083018561151d565b611bdb602083018461151d565b9392505050565b7f416c6c6f77616e6365204572726f720000000000000000000000000000000000600082015250565b6000611c18600f83611634565b9150611c2382611be2565b602082019050919050565b60006020820190508181036000830152611c4781611c0b565b9050919050565b6000606082019050611c63600083018661151d565b611c70602083018561151d565b611c7d60408301846114c1565b949350505050565b7f4d41582043415041434954592043414e4e4f54204245204c4f5745522054484160008201527f4e205448454e204d415820434f4e545249425554494f4e000000000000000000602082015250565b6000611ce1603783611634565b9150611cec82611c85565b604082019050919050565b60006020820190508181036000830152611d1081611cd4565b9050919050565b7f4f776e61626c653a206e6577206f776e657220697320746865207a65726f206160008201527f6464726573730000000000000000000000000000000000000000000000000000602082015250565b6000611d73602683611634565b9150611d7e82611d17565b604082019050919050565b60006020820190508181036000830152611da281611d66565b9050919050565b7f4e487b7100000000000000000000000000000000000000000000000000000000600052601160045260246000fd5b6000611de3826114b7565b9150611dee836114b7565b9250827fffffffffffffffffffffffffffffffffffffffffffffffffffffffffffffffff03821115611e2357611e22611da9565b5b828201905092915050565b7f6164646974696f6e206f766572666c6f77000000000000000000000000000000600082015250565b6000611e64601183611634565b9150611e6f82611e2e565b602082019050919050565b60006020820190508181036000830152611e9381611e57565b905091905056fea264697066735822122001afbc164406ee71ffdb83b92fb74e5792ffd4f6a4af8ad0512884e08e959f9464736f6c634300080e0033",
  "immutableReferences": {},
  "source": "// SPDX-License-Identifier: MIT\r\n\r\npragma solidity ^0.8.7;\r\n\r\nimport \"@openzeppelin/contracts/token/ERC20/extensions/IERC20Metadata.sol\";\r\nimport \"@openzeppelin/contracts/access/Ownable.sol\";\r\nimport \"@openzeppelin/contracts/utils/math/SafeMath.sol\";\r\n\r\ncontract DNF_ICO is Ownable {\r\n    using SafeMath for uint256;\r\n\r\n    address public tokenAddress =\r\n        address(0xdAC17F958D2ee523a2206206994597C13D831ec7);\r\n    IERC20Metadata tokenContract = IERC20Metadata(tokenAddress);\r\n    address public fundCollector =\r\n        address(0x982de5B01b906Ed996D18Aa73af70AA1735a89D8);\r\n    mapping(address => uint256) public contributedAmount;\r\n\r\n    uint256 public minContribution = 1 * 10**6;\r\n    uint256 public maxContribution = 2000 * 10**6;\r\n    uint256 public totalContribution = 0;\r\n    uint256 public maxCap = 80000 * 10**6;\r\n\r\n    bool public isFinalized = false;\r\n\r\n    event InitialContribute(address indexed _contributor);\r\n    event Contribute(address indexed _contributor, uint256 _value);\r\n    event Finalize();\r\n    event Resume();\r\n    event TokenUpdate(address indexed _tokenAddress);\r\n\r\n    function contribute(uint256 _amount) external {\r\n        require(\r\n            add256(contributedAmount[msg.sender], _amount) <= maxContribution,\r\n            \"CONTRIBUTION AMOUNT EXCEEDS MAX__TOTALCONTRIBUTION\"\r\n        );\r\n        require(\r\n            add256(contributedAmount[msg.sender], _amount) >= minContribution,\r\n            \"MIN_CONTRIBUTION IS NOT FULLFILLED\"\r\n        );\r\n        require(\r\n            add256(totalContribution, _amount) <= maxCap,\r\n            \"EXCEEDS MAX_CAP\"\r\n        );\r\n        require(!isFinalized, \"PRESALE IS FINALIZED\");\r\n        require(\r\n            tokenContract.allowance(msg.sender, address(this)) >= _amount,\r\n            \"Allowance Error\"\r\n        );\r\n        tokenContract.transferFrom(msg.sender, address(this), _amount);\r\n        contributedAmount[msg.sender] = add256(\r\n            contributedAmount[msg.sender],\r\n            _amount\r\n        );\r\n        totalContribution = add256(totalContribution, _amount);\r\n        if (add256(totalContribution, minContribution) > maxCap) {\r\n            isFinalized = true;\r\n        }\r\n        if (contributedAmount[msg.sender] == _amount)\r\n            emit InitialContribute(msg.sender);\r\n        emit Contribute(msg.sender, _amount);\r\n    }\r\n\r\n    function tokenBalance() external view returns (uint256) {\r\n        return tokenContract.balanceOf(address(this));\r\n    }\r\n\r\n    function withdrawFunds() external onlyOwner {\r\n        uint256 balance = tokenContract.balanceOf(address(this));\r\n        require(balance > 0);\r\n        tokenContract.transfer(fundCollector, balance);\r\n    }\r\n\r\n    function finalizePresale() external onlyOwner {\r\n        isFinalized = true;\r\n        emit Finalize();\r\n    }\r\n\r\n    function resumePresale() external onlyOwner {\r\n        isFinalized = false;\r\n        emit Resume();\r\n    }\r\n\r\n    function updateTokenAddress(address _tokenAddress) external onlyOwner {\r\n        tokenAddress = _tokenAddress;\r\n        tokenContract = IERC20Metadata(_tokenAddress);\r\n        emit TokenUpdate(_tokenAddress);\r\n    }\r\n\r\n    function updateFundCollector(address _fundCollector) external onlyOwner {\r\n        fundCollector = _fundCollector;\r\n    }\r\n\r\n    function updateMaxCap(uint256 _maxCap) external onlyOwner {\r\n        require(\r\n            _maxCap >= maxContribution,\r\n            \"MAX CAPACITY CANNOT BE LOWER THAN THEN MAX CONTRIBUTION\"\r\n        );\r\n        maxCap = _maxCap;\r\n    }\r\n\r\n    function updateMinContribution(uint256 _minContribution)\r\n        external\r\n        onlyOwner\r\n    {\r\n        require(\r\n            _minContribution > 0,\r\n            \"MIN CONTRIBUTION CANNOT BE LOWER OR EQUAL TO 0\"\r\n        );\r\n        require(\r\n            _minContribution < maxContribution,\r\n            \"MIN CONTRIBUTION CANNOT BE HIGHER OR EQUAL THAN MAX CONTRIBUTION\"\r\n        );\r\n        minContribution = _minContribution;\r\n    }\r\n\r\n    function updateMaxContribution(uint256 _maxContribution)\r\n        external\r\n        onlyOwner\r\n    {\r\n        require(\r\n            _maxContribution <= maxCap,\r\n            \"MAX CONTRIBUTION CANNOT BE HIGHER THAN THEN MAX CAPACITY\"\r\n        );\r\n        require(\r\n            _maxContribution > minContribution,\r\n            \"MAX CONTRIBUTION CANNOT BE LOWER OR EQUAL THAN MIN CONTRIBUTION\"\r\n        );\r\n        maxContribution = _maxContribution;\r\n    }\r\n\r\n    function add256(uint256 a, uint256 b) internal pure returns (uint256) {\r\n        uint256 c = a + b;\r\n        require(c >= a, \"addition overflow\");\r\n        return c;\r\n    }\r\n}\r\n",
  "sourcePath": "E:\\P_Work\\Blockchain\\dnfa\\src\\contracts\\DNF_ICO.sol",
  "compiler": {
    "name": "solc",
    "version": "0.8.14+commit.80d49f37.Emscripten.clang"
  },
  "schemaVersion": "3.4.3",
  "updatedAt": "2022-07-28T13:38:07.338Z",
  "devdoc": {
    "kind": "dev",
    "methods": {
      "owner()": {
        "details": "Returns the address of the current owner."
      },
      "renounceOwnership()": {
        "details": "Leaves the contract without owner. It will not be possible to call `onlyOwner` functions anymore. Can only be called by the current owner. NOTE: Renouncing ownership will leave the contract without an owner, thereby removing any functionality that is only available to the owner."
      },
      "transferOwnership(address)": {
        "details": "Transfers ownership of the contract to a new account (`newOwner`). Can only be called by the current owner."
      }
    },
    "version": 1
  },
  "userdoc": {
    "kind": "user",
    "methods": {},
    "version": 1
  }
}