{
  "contractName": "TokenWithFee",
  "abi": [
    {
      "inputs": [],
      "stateMutability": "nonpayable",
      "type": "constructor"
    },
    {
      "anonymous": false,
      "inputs": [
        {
          "indexed": true,
          "internalType": "address",
          "name": "_owner",
          "type": "address"
        },
        {
          "indexed": true,
          "internalType": "address",
          "name": "_spender",
          "type": "address"
        },
        {
          "indexed": false,
          "internalType": "uint256",
          "name": "_value",
          "type": "uint256"
        }
      ],
      "name": "Approval",
      "type": "event"
    },
    {
      "anonymous": false,
      "inputs": [
        {
          "indexed": true,
          "internalType": "address",
          "name": "_from",
          "type": "address"
        },
        {
          "indexed": true,
          "internalType": "address",
          "name": "_to",
          "type": "address"
        },
        {
          "indexed": false,
          "internalType": "uint256",
          "name": "_value",
          "type": "uint256"
        }
      ],
      "name": "Transfer",
      "type": "event"
    },
    {
      "inputs": [],
      "name": "FeePercent",
      "outputs": [
        {
          "internalType": "uint256",
          "name": "",
          "type": "uint256"
        }
      ],
      "stateMutability": "view",
      "type": "function"
    },
    {
      "inputs": [
        {
          "internalType": "address",
          "name": "",
          "type": "address"
        }
      ],
      "name": "ImmuneFromFee",
      "outputs": [
        {
          "internalType": "bool",
          "name": "",
          "type": "bool"
        }
      ],
      "stateMutability": "view",
      "type": "function"
    },
    {
      "inputs": [
        {
          "internalType": "address",
          "name": "",
          "type": "address"
        }
      ],
      "name": "SpookySwap",
      "outputs": [
        {
          "internalType": "bool",
          "name": "",
          "type": "bool"
        }
      ],
      "stateMutability": "view",
      "type": "function"
    },
    {
      "inputs": [],
      "name": "admin",
      "outputs": [
        {
          "internalType": "address",
          "name": "",
          "type": "address"
        }
      ],
      "stateMutability": "view",
      "type": "function"
    },
    {
      "inputs": [
        {
          "internalType": "address",
          "name": "",
          "type": "address"
        },
        {
          "internalType": "address",
          "name": "",
          "type": "address"
        }
      ],
      "name": "allowed",
      "outputs": [
        {
          "internalType": "uint256",
          "name": "",
          "type": "uint256"
        }
      ],
      "stateMutability": "view",
      "type": "function"
    },
    {
      "inputs": [
        {
          "internalType": "address",
          "name": "",
          "type": "address"
        }
      ],
      "name": "balances",
      "outputs": [
        {
          "internalType": "uint256",
          "name": "",
          "type": "uint256"
        }
      ],
      "stateMutability": "view",
      "type": "function"
    },
    {
      "inputs": [],
      "name": "decimals",
      "outputs": [
        {
          "internalType": "uint8",
          "name": "",
          "type": "uint8"
        }
      ],
      "stateMutability": "view",
      "type": "function"
    },
    {
      "inputs": [],
      "name": "name",
      "outputs": [
        {
          "internalType": "string",
          "name": "",
          "type": "string"
        }
      ],
      "stateMutability": "view",
      "type": "function"
    },
    {
      "inputs": [],
      "name": "symbol",
      "outputs": [
        {
          "internalType": "string",
          "name": "",
          "type": "string"
        }
      ],
      "stateMutability": "view",
      "type": "function"
    },
    {
      "inputs": [],
      "name": "totalSupply",
      "outputs": [
        {
          "internalType": "uint256",
          "name": "",
          "type": "uint256"
        }
      ],
      "stateMutability": "view",
      "type": "function"
    },
    {
      "inputs": [
        {
          "internalType": "address",
          "name": "DEX",
          "type": "address"
        },
        {
          "internalType": "bool",
          "name": "TrueOrFalse",
          "type": "bool"
        }
      ],
      "name": "EditDEX",
      "outputs": [],
      "stateMutability": "nonpayable",
      "type": "function"
    },
    {
      "inputs": [
        {
          "internalType": "uint256",
          "name": "Fee",
          "type": "uint256"
        }
      ],
      "name": "EditFee",
      "outputs": [],
      "stateMutability": "nonpayable",
      "type": "function"
    },
    {
      "inputs": [
        {
          "internalType": "address",
          "name": "Who",
          "type": "address"
        }
      ],
      "name": "ExcludeFromFee",
      "outputs": [],
      "stateMutability": "nonpayable",
      "type": "function"
    },
    {
      "inputs": [
        {
          "internalType": "address",
          "name": "Who",
          "type": "address"
        }
      ],
      "name": "IncludeFromFee",
      "outputs": [],
      "stateMutability": "nonpayable",
      "type": "function"
    },
    {
      "inputs": [
        {
          "internalType": "address",
          "name": "_to",
          "type": "address"
        },
        {
          "internalType": "uint256",
          "name": "_value",
          "type": "uint256"
        }
      ],
      "name": "transfer",
      "outputs": [
        {
          "internalType": "bool",
          "name": "success",
          "type": "bool"
        }
      ],
      "stateMutability": "nonpayable",
      "type": "function"
    },
    {
      "inputs": [
        {
          "internalType": "address",
          "name": "_from",
          "type": "address"
        },
        {
          "internalType": "address",
          "name": "_to",
          "type": "address"
        },
        {
          "internalType": "uint256",
          "name": "_value",
          "type": "uint256"
        }
      ],
      "name": "transferFrom",
      "outputs": [
        {
          "internalType": "bool",
          "name": "success",
          "type": "bool"
        }
      ],
      "stateMutability": "nonpayable",
      "type": "function"
    },
    {
      "inputs": [
        {
          "internalType": "address",
          "name": "_owner",
          "type": "address"
        }
      ],
      "name": "balanceOf",
      "outputs": [
        {
          "internalType": "uint256",
          "name": "balance",
          "type": "uint256"
        }
      ],
      "stateMutability": "view",
      "type": "function"
    },
    {
      "inputs": [
        {
          "internalType": "address",
          "name": "_spender",
          "type": "address"
        },
        {
          "internalType": "uint256",
          "name": "_value",
          "type": "uint256"
        }
      ],
      "name": "approve",
      "outputs": [
        {
          "internalType": "bool",
          "name": "success",
          "type": "bool"
        }
      ],
      "stateMutability": "nonpayable",
      "type": "function"
    },
    {
      "inputs": [
        {
          "internalType": "address",
          "name": "_owner",
          "type": "address"
        },
        {
          "internalType": "address",
          "name": "_spender",
          "type": "address"
        }
      ],
      "name": "allowance",
      "outputs": [
        {
          "internalType": "uint256",
          "name": "remaining",
          "type": "uint256"
        }
      ],
      "stateMutability": "view",
      "type": "function"
    }
  ],
  "bytecode": "0x60806040523480156200001157600080fd5b506a01a784379d99db420000006000803373ffffffffffffffffffffffffffffffffffffffff1673ffffffffffffffffffffffffffffffffffffffff168152602001908152602001600020819055506a01a784379d99db420000006005819055506040518060400160405280600981526020017f4c4f4720746f6b656e000000000000000000000000000000000000000000000081525060029080519060200190620000bf92919062000229565b506012600360006101000a81548160ff021916908360ff1602179055506040518060400160405280600381526020017f4c4f470000000000000000000000000000000000000000000000000000000000815250600490805190602001906200012992919062000229565b50600560068190555033600860006101000a81548173ffffffffffffffffffffffffffffffffffffffff021916908373ffffffffffffffffffffffffffffffffffffffff1602179055506001600760003073ffffffffffffffffffffffffffffffffffffffff1673ffffffffffffffffffffffffffffffffffffffff16815260200190815260200160002060006101000a81548160ff0219169083151502179055506001600760003373ffffffffffffffffffffffffffffffffffffffff1673ffffffffffffffffffffffffffffffffffffffff16815260200190815260200160002060006101000a81548160ff0219169083151502179055506200033d565b828054620002379062000308565b90600052602060002090601f0160209004810192826200025b5760008555620002a7565b82601f106200027657805160ff1916838001178555620002a7565b82800160010185558215620002a7579182015b82811115620002a657825182559160200191906001019062000289565b5b509050620002b69190620002ba565b5090565b5b80821115620002d5576000816000905550600101620002bb565b5090565b7f4e487b7100000000000000000000000000000000000000000000000000000000600052602260045260246000fd5b600060028204905060018216806200032157607f821691505b602082108103620003375762000336620002d9565b5b50919050565b611ac7806200034d6000396000f3fe608060405234801561001057600080fd5b50600436106101215760003560e01c806358c3e050116100ad57806395d89b411161007157806395d89b4114610342578063a9059cbb14610360578063dd62ed3e14610390578063e9065bd7146103c0578063f851a440146103dc57610121565b806358c3e050146102665780635c6581651461028257806370a08231146102b2578063854b343f146102e25780638dcac86f1461031257610121565b80631f927dcb116100f45780631f927dcb146101ae57806323b872dd146101cc57806324dda224146101fc57806327e235e314610218578063313ce5671461024857610121565b806306fdde0314610126578063095ea7b314610144578063172447a01461017457806318160ddd14610190575b600080fd5b61012e6103fa565b60405161013b919061133b565b60405180910390f35b61015e600480360381019061015991906113f6565b610488565b60405161016b9190611451565b60405180910390f35b61018e6004803603810190610189919061146c565b61057a565b005b610198610665565b6040516101a591906114a8565b60405180910390f35b6101b661066b565b6040516101c391906114a8565b60405180910390f35b6101e660048036038101906101e191906114c3565b610671565b6040516101f39190611451565b60405180910390f35b61021660048036038101906102119190611516565b6109ef565b005b610232600480360381019061022d919061146c565b610acd565b60405161023f91906114a8565b60405180910390f35b610250610ae5565b60405161025d919061155f565b60405180910390f35b610280600480360381019061027b919061146c565b610af8565b005b61029c6004803603810190610297919061157a565b610be3565b6040516102a991906114a8565b60405180910390f35b6102cc60048036038101906102c7919061146c565b610c08565b6040516102d991906114a8565b60405180910390f35b6102fc60048036038101906102f7919061146c565b610c50565b6040516103099190611451565b60405180910390f35b61032c6004803603810190610327919061146c565b610c70565b6040516103399190611451565b60405180910390f35b61034a610c90565b604051610357919061133b565b60405180910390f35b61037a600480360381019061037591906113f6565b610d1e565b6040516103879190611451565b60405180910390f35b6103aa60048036038101906103a5919061157a565b610f80565b6040516103b791906114a8565b60405180910390f35b6103da60048036038101906103d591906115e6565b611007565b005b6103e46110f2565b6040516103f19190611635565b60405180910390f35b600280546104079061167f565b80601f01602080910402602001604051908101604052809291908181526020018280546104339061167f565b80156104805780601f1061045557610100808354040283529160200191610480565b820191906000526020600020905b81548152906001019060200180831161046357829003601f168201915b505050505081565b600081600160003373ffffffffffffffffffffffffffffffffffffffff1673ffffffffffffffffffffffffffffffffffffffff16815260200190815260200160002060008573ffffffffffffffffffffffffffffffffffffffff1673ffffffffffffffffffffffffffffffffffffffff168152602001908152602001600020819055508273ffffffffffffffffffffffffffffffffffffffff163373ffffffffffffffffffffffffffffffffffffffff167f8c5be1e5ebec7d5bd14f71427d1e84f3dd0314c0f7b2291e5b200ac8c7c3b9258460405161056891906114a8565b60405180910390a36001905092915050565b600860009054906101000a900473ffffffffffffffffffffffffffffffffffffffff1673ffffffffffffffffffffffffffffffffffffffff163373ffffffffffffffffffffffffffffffffffffffff161461060a576040517f08c379a000000000000000000000000000000000000000000000000000000000815260040161060190611722565b60405180910390fd5b6000600760008373ffffffffffffffffffffffffffffffffffffffff1673ffffffffffffffffffffffffffffffffffffffff16815260200190815260200160002060006101000a81548160ff02191690831515021790555050565b60055481565b60065481565b6000816000808673ffffffffffffffffffffffffffffffffffffffff1673ffffffffffffffffffffffffffffffffffffffff168152602001908152602001600020541015801561073d575081600160008673ffffffffffffffffffffffffffffffffffffffff1673ffffffffffffffffffffffffffffffffffffffff16815260200190815260200160002060003373ffffffffffffffffffffffffffffffffffffffff1673ffffffffffffffffffffffffffffffffffffffff1681526020019081526020016000205410155b61077c576040517f08c379a0000000000000000000000000000000000000000000000000000000008152600401610773906117da565b60405180910390fd5b600180156107db575060011515600760008673ffffffffffffffffffffffffffffffffffffffff1673ffffffffffffffffffffffffffffffffffffffff16815260200190815260200160002060009054906101000a900460ff16151514155b600960008573ffffffffffffffffffffffffffffffffffffffff1673ffffffffffffffffffffffffffffffffffffffff16815260200190815260200160002060006101000a81548160ff0219169083151502179055156108425761083f8285611118565b91505b816000808573ffffffffffffffffffffffffffffffffffffffff1673ffffffffffffffffffffffffffffffffffffffff16815260200190815260200160002060008282546108909190611829565b92505081905550816000808673ffffffffffffffffffffffffffffffffffffffff1673ffffffffffffffffffffffffffffffffffffffff16815260200190815260200160002060008282546108e5919061187f565b9250508190555081600160008673ffffffffffffffffffffffffffffffffffffffff1673ffffffffffffffffffffffffffffffffffffffff16815260200190815260200160002060003373ffffffffffffffffffffffffffffffffffffffff1673ffffffffffffffffffffffffffffffffffffffff1681526020019081526020016000206000828254610978919061187f565b925050819055508273ffffffffffffffffffffffffffffffffffffffff168473ffffffffffffffffffffffffffffffffffffffff167fddf252ad1be2c89b69c2b068fc378daa952ba7f163c4a11628f55a4df523b3ef846040516109dc91906114a8565b60405180910390a3600190509392505050565b600860009054906101000a900473ffffffffffffffffffffffffffffffffffffffff1673ffffffffffffffffffffffffffffffffffffffff163373ffffffffffffffffffffffffffffffffffffffff1614610a7f576040517f08c379a0000000000000000000000000000000000000000000000000000000008152600401610a7690611722565b60405180910390fd5b6064811115610ac3576040517f08c379a0000000000000000000000000000000000000000000000000000000008152600401610aba90611925565b60405180910390fd5b8060068190555050565b60006020528060005260406000206000915090505481565b600360009054906101000a900460ff1681565b600860009054906101000a900473ffffffffffffffffffffffffffffffffffffffff1673ffffffffffffffffffffffffffffffffffffffff163373ffffffffffffffffffffffffffffffffffffffff1614610b88576040517f08c379a0000000000000000000000000000000000000000000000000000000008152600401610b7f90611722565b60405180910390fd5b6001600760008373ffffffffffffffffffffffffffffffffffffffff1673ffffffffffffffffffffffffffffffffffffffff16815260200190815260200160002060006101000a81548160ff02191690831515021790555050565b6001602052816000526040600020602052806000526040600020600091509150505481565b60008060008373ffffffffffffffffffffffffffffffffffffffff1673ffffffffffffffffffffffffffffffffffffffff168152602001908152602001600020549050919050565b60076020528060005260406000206000915054906101000a900460ff1681565b60096020528060005260406000206000915054906101000a900460ff1681565b60048054610c9d9061167f565b80601f0160208091040260200160405190810160405280929190818152602001828054610cc99061167f565b8015610d165780601f10610ceb57610100808354040283529160200191610d16565b820191906000526020600020905b815481529060010190602001808311610cf957829003601f168201915b505050505081565b6000816000803373ffffffffffffffffffffffffffffffffffffffff1673ffffffffffffffffffffffffffffffffffffffff168152602001908152602001600020541015610da1576040517f08c379a0000000000000000000000000000000000000000000000000000000008152600401610d98906119b7565b60405180910390fd5b60018015610e00575060011515600760003373ffffffffffffffffffffffffffffffffffffffff1673ffffffffffffffffffffffffffffffffffffffff16815260200190815260200160002060009054906101000a900460ff16151514155b600960008573ffffffffffffffffffffffffffffffffffffffff1673ffffffffffffffffffffffffffffffffffffffff16815260200190815260200160002060006101000a81548160ff021916908315150217905515610e6757610e648233611118565b91505b816000803373ffffffffffffffffffffffffffffffffffffffff1673ffffffffffffffffffffffffffffffffffffffff1681526020019081526020016000206000828254610eb5919061187f565b92505081905550816000808573ffffffffffffffffffffffffffffffffffffffff1673ffffffffffffffffffffffffffffffffffffffff1681526020019081526020016000206000828254610f0a9190611829565b925050819055508273ffffffffffffffffffffffffffffffffffffffff163373ffffffffffffffffffffffffffffffffffffffff167fddf252ad1be2c89b69c2b068fc378daa952ba7f163c4a11628f55a4df523b3ef84604051610f6e91906114a8565b60405180910390a36001905092915050565b6000600160008473ffffffffffffffffffffffffffffffffffffffff1673ffffffffffffffffffffffffffffffffffffffff16815260200190815260200160002060008373ffffffffffffffffffffffffffffffffffffffff1673ffffffffffffffffffffffffffffffffffffffff16815260200190815260200160002054905092915050565b600860009054906101000a900473ffffffffffffffffffffffffffffffffffffffff1673ffffffffffffffffffffffffffffffffffffffff163373ffffffffffffffffffffffffffffffffffffffff1614611097576040517f08c379a000000000000000000000000000000000000000000000000000000000815260040161108e90611722565b60405180910390fd5b80600960008473ffffffffffffffffffffffffffffffffffffffff1673ffffffffffffffffffffffffffffffffffffffff16815260200190815260200160002060006101000a81548160ff0219169083151502179055505050565b600860009054906101000a900473ffffffffffffffffffffffffffffffffffffffff1681565b6000806064846111289190611a06565b6006546111359190611a37565b90508084611143919061187f565b9350806000808573ffffffffffffffffffffffffffffffffffffffff1673ffffffffffffffffffffffffffffffffffffffff1681526020019081526020016000206000828254611193919061187f565b9250508190555080600080600860009054906101000a900473ffffffffffffffffffffffffffffffffffffffff1673ffffffffffffffffffffffffffffffffffffffff1673ffffffffffffffffffffffffffffffffffffffff168152602001908152602001600020600082825461120a9190611829565b92505081905550600860009054906101000a900473ffffffffffffffffffffffffffffffffffffffff1673ffffffffffffffffffffffffffffffffffffffff168373ffffffffffffffffffffffffffffffffffffffff167fddf252ad1be2c89b69c2b068fc378daa952ba7f163c4a11628f55a4df523b3ef8360405161129091906114a8565b60405180910390a38391505092915050565b600081519050919050565b600082825260208201905092915050565b60005b838110156112dc5780820151818401526020810190506112c1565b838111156112eb576000848401525b50505050565b6000601f19601f8301169050919050565b600061130d826112a2565b61131781856112ad565b93506113278185602086016112be565b611330816112f1565b840191505092915050565b600060208201905081810360008301526113558184611302565b905092915050565b600080fd5b600073ffffffffffffffffffffffffffffffffffffffff82169050919050565b600061138d82611362565b9050919050565b61139d81611382565b81146113a857600080fd5b50565b6000813590506113ba81611394565b92915050565b6000819050919050565b6113d3816113c0565b81146113de57600080fd5b50565b6000813590506113f0816113ca565b92915050565b6000806040838503121561140d5761140c61135d565b5b600061141b858286016113ab565b925050602061142c858286016113e1565b9150509250929050565b60008115159050919050565b61144b81611436565b82525050565b60006020820190506114666000830184611442565b92915050565b6000602082840312156114825761148161135d565b5b6000611490848285016113ab565b91505092915050565b6114a2816113c0565b82525050565b60006020820190506114bd6000830184611499565b92915050565b6000806000606084860312156114dc576114db61135d565b5b60006114ea868287016113ab565b93505060206114fb868287016113ab565b925050604061150c868287016113e1565b9150509250925092565b60006020828403121561152c5761152b61135d565b5b600061153a848285016113e1565b91505092915050565b600060ff82169050919050565b61155981611543565b82525050565b60006020820190506115746000830184611550565b92915050565b600080604083850312156115915761159061135d565b5b600061159f858286016113ab565b92505060206115b0858286016113ab565b9150509250929050565b6115c381611436565b81146115ce57600080fd5b50565b6000813590506115e0816115ba565b92915050565b600080604083850312156115fd576115fc61135d565b5b600061160b858286016113ab565b925050602061161c858286016115d1565b9150509250929050565b61162f81611382565b82525050565b600060208201905061164a6000830184611626565b92915050565b7f4e487b7100000000000000000000000000000000000000000000000000000000600052602260045260246000fd5b6000600282049050600182168061169757607f821691505b6020821081036116aa576116a9611650565b5b50919050565b7f596f75206172656e2774207468652061646d696e20736f20796f752063616e2760008201527f74207072657373207468697320627574746f6e21000000000000000000000000602082015250565b600061170c6034836112ad565b9150611717826116b0565b604082019050919050565b6000602082019050818103600083015261173b816116ff565b9050919050565b7f596f752063616e27742073656e64206d6f726520746f6b656e73207468616e2060008201527f796f752068617665206f722074686520617070726f76616c2069736e2774206560208201527f6e6f756768000000000000000000000000000000000000000000000000000000604082015250565b60006117c46045836112ad565b91506117cf82611742565b606082019050919050565b600060208201905081810360008301526117f3816117b7565b9050919050565b7f4e487b7100000000000000000000000000000000000000000000000000000000600052601160045260246000fd5b6000611834826113c0565b915061183f836113c0565b9250827fffffffffffffffffffffffffffffffffffffffffffffffffffffffffffffffff03821115611874576118736117fa565b5b828201905092915050565b600061188a826113c0565b9150611895836113c0565b9250828210156118a8576118a76117fa565b5b828203905092915050565b7f596f752063616e6e6f74206d616b65207468652066656520686967686572207460008201527f68616e2031303025000000000000000000000000000000000000000000000000602082015250565b600061190f6028836112ad565b915061191a826118b3565b604082019050919050565b6000602082019050818103600083015261193e81611902565b9050919050565b7f596f752063616e27742073656e64206d6f726520746f6b656e73207468616e2060008201527f796f752068617665000000000000000000000000000000000000000000000000602082015250565b60006119a16028836112ad565b91506119ac82611945565b604082019050919050565b600060208201905081810360008301526119d081611994565b9050919050565b7f4e487b7100000000000000000000000000000000000000000000000000000000600052601260045260246000fd5b6000611a11826113c0565b9150611a1c836113c0565b925082611a2c57611a2b6119d7565b5b828204905092915050565b6000611a42826113c0565b9150611a4d836113c0565b9250817fffffffffffffffffffffffffffffffffffffffffffffffffffffffffffffffff0483118215151615611a8657611a856117fa565b5b82820290509291505056fea264697066735822122075e936d22cd7e9a5fea377314d9e91b2ed554d50c5f95a3f7366d58d624c309364736f6c634300080e0033",
  "immutableReferences": {},
  "source": "// SPDX-License-Identifier: CC-BY-SA 4.0\r\n//https://creativecommons.org/licenses/by-sa/4.0/\r\n\r\n// TL;DR: The creator of this contract (@LogETH) is not liable for any damages associated with using the following code\r\n// This contract must be deployed with credits toward the original creator, @LogETH.\r\n// You must indicate if changes were made in a reasonable manner, but not in any way that suggests I endorse you or your use.\r\n// If you remix, transform, or build upon the material, you must distribute your contributions under the same license as the original.\r\n// You may not apply legal terms or technological measures that legally restrict others from doing anything the license permits.\r\n// This TL;DR is solely an explaination and is not a representation of the license.\r\n\r\n// By deploying this contract, you agree to the license above and the terms and conditions that come with it.\r\n\r\npragma solidity >=0.7.0 <0.9.0;\r\n\r\n//// What is this contract?\r\n\r\n//// This contract is an ERC20 token that has a fee module attached to it that only triggers on sells\r\n//// The admin can change the fee or set it to zero and assign the \"immume\" role to addresses that makes them immune to the fee.\r\n//// The admin is the person that deploys the contract, it cannot be changed once deployed.\r\n\r\n//// Unlike traditional fee contracts, this contract broadcasts the fee and the sent amount in the transaction data.\r\n//// The broadcast is supported by ethereum explorers like etherscan and makes accounting much easier.\r\n\r\n//// Commissioned by spagetti#7777 on 3/19/2022\r\n\r\ncontract TokenWithFee {\r\n    //// Before you deploy the contract, make sure to change these parameters to what you want\r\n\r\n    constructor() {\r\n        balances[msg.sender] = 2000000 * 10**18;\r\n        totalSupply = 2000000 * 10**18;\r\n        name = \"LOG token\";\r\n        decimals = 18;\r\n        symbol = \"LOG\";\r\n        FeePercent = 5;\r\n\r\n        // SpookySwap = ???????????????????????????;\r\n\r\n        admin = msg.sender;\r\n        ImmuneFromFee[address(this)] = true;\r\n        ImmuneFromFee[msg.sender] = true;\r\n    }\r\n\r\n    mapping(address => uint256) public balances;\r\n    mapping(address => mapping(address => uint256)) public allowed;\r\n\r\n    event Transfer(address indexed _from, address indexed _to, uint256 _value);\r\n    event Approval(\r\n        address indexed _owner,\r\n        address indexed _spender,\r\n        uint256 _value\r\n    );\r\n\r\n    string public name;\r\n    uint8 public decimals;\r\n    string public symbol;\r\n    uint256 public totalSupply;\r\n    uint256 public FeePercent;\r\n    mapping(address => bool) public ImmuneFromFee;\r\n    address public admin;\r\n    mapping(address => bool) public SpookySwap;\r\n\r\n    function EditDEX(address DEX, bool TrueOrFalse) public {\r\n        require(\r\n            msg.sender == admin,\r\n            \"You aren't the admin so you can't press this button!\"\r\n        );\r\n\r\n        SpookySwap[DEX] = TrueOrFalse;\r\n    }\r\n\r\n    function EditFee(uint256 Fee) public {\r\n        require(\r\n            msg.sender == admin,\r\n            \"You aren't the admin so you can't press this button!\"\r\n        );\r\n        require(Fee <= 100, \"You cannot make the fee higher than 100%\");\r\n        FeePercent = Fee;\r\n    }\r\n\r\n    function ExcludeFromFee(address Who) public {\r\n        require(\r\n            msg.sender == admin,\r\n            \"You aren't the admin so you can't press this button!\"\r\n        );\r\n\r\n        ImmuneFromFee[Who] = true;\r\n    }\r\n\r\n    function IncludeFromFee(address Who) public {\r\n        require(\r\n            msg.sender == admin,\r\n            \"You aren't the admin so you can't press this button!\"\r\n        );\r\n\r\n        ImmuneFromFee[Who] = false;\r\n    }\r\n\r\n    function ProcessFee(uint256 _value, address _payee)\r\n        internal\r\n        returns (uint256)\r\n    {\r\n        uint256 fee = FeePercent * (_value / 100);\r\n        _value -= fee;\r\n\r\n        balances[_payee] -= fee;\r\n        balances[admin] += fee;\r\n        emit Transfer(_payee, admin, fee);\r\n        return _value;\r\n    }\r\n\r\n    function transfer(address _to, uint256 _value)\r\n        public\r\n        returns (bool success)\r\n    {\r\n        require(\r\n            balances[msg.sender] >= _value,\r\n            \"You can't send more tokens than you have\"\r\n        );\r\n\r\n        if (SpookySwap[_to] = true && ImmuneFromFee[msg.sender] != true) {\r\n            _value = ProcessFee(_value, msg.sender);\r\n        }\r\n\r\n        balances[msg.sender] -= _value;\r\n        balances[_to] += _value;\r\n        emit Transfer(msg.sender, _to, _value);\r\n        return true;\r\n    }\r\n\r\n    function transferFrom(\r\n        address _from,\r\n        address _to,\r\n        uint256 _value\r\n    ) public returns (bool success) {\r\n        require(\r\n            balances[_from] >= _value && allowed[_from][msg.sender] >= _value,\r\n            \"You can't send more tokens than you have or the approval isn't enough\"\r\n        );\r\n\r\n        if (SpookySwap[_to] = true && ImmuneFromFee[_from] != true) {\r\n            _value = ProcessFee(_value, _from);\r\n        }\r\n\r\n        balances[_to] += _value;\r\n        balances[_from] -= _value;\r\n        allowed[_from][msg.sender] -= _value;\r\n\r\n        emit Transfer(_from, _to, _value);\r\n        return true;\r\n    }\r\n\r\n    function balanceOf(address _owner) public view returns (uint256 balance) {\r\n        return balances[_owner];\r\n    }\r\n\r\n    function approve(address _spender, uint256 _value)\r\n        public\r\n        returns (bool success)\r\n    {\r\n        allowed[msg.sender][_spender] = _value;\r\n\r\n        emit Approval(msg.sender, _spender, _value);\r\n        return true;\r\n    }\r\n\r\n    function allowance(address _owner, address _spender)\r\n        public\r\n        view\r\n        returns (uint256 remaining)\r\n    {\r\n        return allowed[_owner][_spender];\r\n    }\r\n}\r\n",
  "sourcePath": "E:\\P_Work\\Blockchain\\dnfa\\src\\contracts\\Test.sol",
  "compiler": {
    "name": "solc",
    "version": "0.8.14+commit.80d49f37.Emscripten.clang"
  },
  "schemaVersion": "3.4.3",
  "updatedAt": "2022-07-28T13:38:07.365Z",
  "devdoc": {
    "kind": "dev",
    "methods": {},
    "version": 1
  },
  "userdoc": {
    "kind": "user",
    "methods": {},
    "version": 1
  }
}