{
  "contractName": "WagmiClub",
  "abi": [
    {
      "inputs": [],
      "stateMutability": "nonpayable",
      "type": "constructor"
    },
    {
      "anonymous": false,
      "inputs": [
        {
          "indexed": true,
          "internalType": "address",
          "name": "owner",
          "type": "address"
        },
        {
          "indexed": true,
          "internalType": "address",
          "name": "approved",
          "type": "address"
        },
        {
          "indexed": true,
          "internalType": "uint256",
          "name": "tokenId",
          "type": "uint256"
        }
      ],
      "name": "Approval",
      "type": "event"
    },
    {
      "anonymous": false,
      "inputs": [
        {
          "indexed": true,
          "internalType": "address",
          "name": "owner",
          "type": "address"
        },
        {
          "indexed": true,
          "internalType": "address",
          "name": "operator",
          "type": "address"
        },
        {
          "indexed": false,
          "internalType": "bool",
          "name": "approved",
          "type": "bool"
        }
      ],
      "name": "ApprovalForAll",
      "type": "event"
    },
    {
      "anonymous": false,
      "inputs": [
        {
          "indexed": true,
          "internalType": "address",
          "name": "previousOwner",
          "type": "address"
        },
        {
          "indexed": true,
          "internalType": "address",
          "name": "newOwner",
          "type": "address"
        }
      ],
      "name": "OwnershipTransferred",
      "type": "event"
    },
    {
      "anonymous": false,
      "inputs": [
        {
          "indexed": false,
          "internalType": "address",
          "name": "account",
          "type": "address"
        }
      ],
      "name": "Paused",
      "type": "event"
    },
    {
      "anonymous": false,
      "inputs": [
        {
          "indexed": true,
          "internalType": "address",
          "name": "from",
          "type": "address"
        },
        {
          "indexed": true,
          "internalType": "address",
          "name": "to",
          "type": "address"
        },
        {
          "indexed": true,
          "internalType": "uint256",
          "name": "tokenId",
          "type": "uint256"
        }
      ],
      "name": "Transfer",
      "type": "event"
    },
    {
      "anonymous": false,
      "inputs": [
        {
          "indexed": false,
          "internalType": "address",
          "name": "account",
          "type": "address"
        }
      ],
      "name": "Unpaused",
      "type": "event"
    },
    {
      "inputs": [
        {
          "internalType": "address",
          "name": "",
          "type": "address"
        }
      ],
      "name": "addressMintedBalance",
      "outputs": [
        {
          "internalType": "uint256",
          "name": "",
          "type": "uint256"
        }
      ],
      "stateMutability": "view",
      "type": "function"
    },
    {
      "inputs": [
        {
          "internalType": "address",
          "name": "to",
          "type": "address"
        },
        {
          "internalType": "uint256",
          "name": "tokenId",
          "type": "uint256"
        }
      ],
      "name": "approve",
      "outputs": [],
      "stateMutability": "nonpayable",
      "type": "function"
    },
    {
      "inputs": [
        {
          "internalType": "address",
          "name": "owner",
          "type": "address"
        }
      ],
      "name": "balanceOf",
      "outputs": [
        {
          "internalType": "uint256",
          "name": "",
          "type": "uint256"
        }
      ],
      "stateMutability": "view",
      "type": "function"
    },
    {
      "inputs": [],
      "name": "baseExtension",
      "outputs": [
        {
          "internalType": "string",
          "name": "",
          "type": "string"
        }
      ],
      "stateMutability": "view",
      "type": "function"
    },
    {
      "inputs": [],
      "name": "baseURI",
      "outputs": [
        {
          "internalType": "string",
          "name": "",
          "type": "string"
        }
      ],
      "stateMutability": "view",
      "type": "function"
    },
    {
      "inputs": [],
      "name": "costAurora",
      "outputs": [
        {
          "internalType": "uint256",
          "name": "",
          "type": "uint256"
        }
      ],
      "stateMutability": "view",
      "type": "function"
    },
    {
      "inputs": [],
      "name": "costGenesis",
      "outputs": [
        {
          "internalType": "uint256",
          "name": "",
          "type": "uint256"
        }
      ],
      "stateMutability": "view",
      "type": "function"
    },
    {
      "inputs": [],
      "name": "costNova",
      "outputs": [
        {
          "internalType": "uint256",
          "name": "",
          "type": "uint256"
        }
      ],
      "stateMutability": "view",
      "type": "function"
    },
    {
      "inputs": [],
      "name": "costSuperNova",
      "outputs": [
        {
          "internalType": "uint256",
          "name": "",
          "type": "uint256"
        }
      ],
      "stateMutability": "view",
      "type": "function"
    },
    {
      "inputs": [
        {
          "internalType": "uint256",
          "name": "tokenId",
          "type": "uint256"
        }
      ],
      "name": "getApproved",
      "outputs": [
        {
          "internalType": "address",
          "name": "",
          "type": "address"
        }
      ],
      "stateMutability": "view",
      "type": "function"
    },
    {
      "inputs": [
        {
          "internalType": "uint256",
          "name": "",
          "type": "uint256"
        }
      ],
      "name": "ids",
      "outputs": [
        {
          "internalType": "uint256",
          "name": "",
          "type": "uint256"
        }
      ],
      "stateMutability": "view",
      "type": "function"
    },
    {
      "inputs": [
        {
          "internalType": "address",
          "name": "owner",
          "type": "address"
        },
        {
          "internalType": "address",
          "name": "operator",
          "type": "address"
        }
      ],
      "name": "isApprovedForAll",
      "outputs": [
        {
          "internalType": "bool",
          "name": "",
          "type": "bool"
        }
      ],
      "stateMutability": "view",
      "type": "function"
    },
    {
      "inputs": [],
      "name": "maxSupply",
      "outputs": [
        {
          "internalType": "uint256",
          "name": "",
          "type": "uint256"
        }
      ],
      "stateMutability": "view",
      "type": "function"
    },
    {
      "inputs": [],
      "name": "name",
      "outputs": [
        {
          "internalType": "string",
          "name": "",
          "type": "string"
        }
      ],
      "stateMutability": "view",
      "type": "function"
    },
    {
      "inputs": [],
      "name": "onlyWhitelisted",
      "outputs": [
        {
          "internalType": "bool",
          "name": "",
          "type": "bool"
        }
      ],
      "stateMutability": "view",
      "type": "function"
    },
    {
      "inputs": [],
      "name": "owner",
      "outputs": [
        {
          "internalType": "address",
          "name": "",
          "type": "address"
        }
      ],
      "stateMutability": "view",
      "type": "function"
    },
    {
      "inputs": [
        {
          "internalType": "uint256",
          "name": "tokenId",
          "type": "uint256"
        }
      ],
      "name": "ownerOf",
      "outputs": [
        {
          "internalType": "address",
          "name": "",
          "type": "address"
        }
      ],
      "stateMutability": "view",
      "type": "function"
    },
    {
      "inputs": [],
      "name": "paused",
      "outputs": [
        {
          "internalType": "bool",
          "name": "",
          "type": "bool"
        }
      ],
      "stateMutability": "view",
      "type": "function"
    },
    {
      "inputs": [],
      "name": "renounceOwnership",
      "outputs": [],
      "stateMutability": "nonpayable",
      "type": "function"
    },
    {
      "inputs": [
        {
          "internalType": "address",
          "name": "from",
          "type": "address"
        },
        {
          "internalType": "address",
          "name": "to",
          "type": "address"
        },
        {
          "internalType": "uint256",
          "name": "tokenId",
          "type": "uint256"
        }
      ],
      "name": "safeTransferFrom",
      "outputs": [],
      "stateMutability": "nonpayable",
      "type": "function"
    },
    {
      "inputs": [
        {
          "internalType": "address",
          "name": "from",
          "type": "address"
        },
        {
          "internalType": "address",
          "name": "to",
          "type": "address"
        },
        {
          "internalType": "uint256",
          "name": "tokenId",
          "type": "uint256"
        },
        {
          "internalType": "bytes",
          "name": "_data",
          "type": "bytes"
        }
      ],
      "name": "safeTransferFrom",
      "outputs": [],
      "stateMutability": "nonpayable",
      "type": "function"
    },
    {
      "inputs": [
        {
          "internalType": "address",
          "name": "operator",
          "type": "address"
        },
        {
          "internalType": "bool",
          "name": "approved",
          "type": "bool"
        }
      ],
      "name": "setApprovalForAll",
      "outputs": [],
      "stateMutability": "nonpayable",
      "type": "function"
    },
    {
      "inputs": [],
      "name": "symbol",
      "outputs": [
        {
          "internalType": "string",
          "name": "",
          "type": "string"
        }
      ],
      "stateMutability": "view",
      "type": "function"
    },
    {
      "inputs": [
        {
          "internalType": "uint256",
          "name": "index",
          "type": "uint256"
        }
      ],
      "name": "tokenByIndex",
      "outputs": [
        {
          "internalType": "uint256",
          "name": "",
          "type": "uint256"
        }
      ],
      "stateMutability": "view",
      "type": "function"
    },
    {
      "inputs": [
        {
          "internalType": "address",
          "name": "owner",
          "type": "address"
        },
        {
          "internalType": "uint256",
          "name": "index",
          "type": "uint256"
        }
      ],
      "name": "tokenOfOwnerByIndex",
      "outputs": [
        {
          "internalType": "uint256",
          "name": "",
          "type": "uint256"
        }
      ],
      "stateMutability": "view",
      "type": "function"
    },
    {
      "inputs": [],
      "name": "totalAurora",
      "outputs": [
        {
          "internalType": "uint256",
          "name": "",
          "type": "uint256"
        }
      ],
      "stateMutability": "view",
      "type": "function"
    },
    {
      "inputs": [],
      "name": "totalGenesis",
      "outputs": [
        {
          "internalType": "uint256",
          "name": "",
          "type": "uint256"
        }
      ],
      "stateMutability": "view",
      "type": "function"
    },
    {
      "inputs": [],
      "name": "totalNova",
      "outputs": [
        {
          "internalType": "uint256",
          "name": "",
          "type": "uint256"
        }
      ],
      "stateMutability": "view",
      "type": "function"
    },
    {
      "inputs": [],
      "name": "totalSuperNova",
      "outputs": [
        {
          "internalType": "uint256",
          "name": "",
          "type": "uint256"
        }
      ],
      "stateMutability": "view",
      "type": "function"
    },
    {
      "inputs": [],
      "name": "totalSupply",
      "outputs": [
        {
          "internalType": "uint256",
          "name": "",
          "type": "uint256"
        }
      ],
      "stateMutability": "view",
      "type": "function"
    },
    {
      "inputs": [
        {
          "internalType": "address",
          "name": "from",
          "type": "address"
        },
        {
          "internalType": "address",
          "name": "to",
          "type": "address"
        },
        {
          "internalType": "uint256",
          "name": "tokenId",
          "type": "uint256"
        }
      ],
      "name": "transferFrom",
      "outputs": [],
      "stateMutability": "nonpayable",
      "type": "function"
    },
    {
      "inputs": [
        {
          "internalType": "address",
          "name": "newOwner",
          "type": "address"
        }
      ],
      "name": "transferOwnership",
      "outputs": [],
      "stateMutability": "nonpayable",
      "type": "function"
    },
    {
      "inputs": [
        {
          "internalType": "uint256",
          "name": "",
          "type": "uint256"
        }
      ],
      "name": "whitelistAurora",
      "outputs": [
        {
          "internalType": "address",
          "name": "",
          "type": "address"
        }
      ],
      "stateMutability": "view",
      "type": "function"
    },
    {
      "inputs": [
        {
          "internalType": "uint256",
          "name": "",
          "type": "uint256"
        }
      ],
      "name": "whitelistGenesis",
      "outputs": [
        {
          "internalType": "address",
          "name": "",
          "type": "address"
        }
      ],
      "stateMutability": "view",
      "type": "function"
    },
    {
      "inputs": [
        {
          "internalType": "uint256",
          "name": "",
          "type": "uint256"
        }
      ],
      "name": "whitelistNova",
      "outputs": [
        {
          "internalType": "address",
          "name": "",
          "type": "address"
        }
      ],
      "stateMutability": "view",
      "type": "function"
    },
    {
      "inputs": [
        {
          "internalType": "uint256",
          "name": "",
          "type": "uint256"
        }
      ],
      "name": "whitelistSuperNova",
      "outputs": [
        {
          "internalType": "address",
          "name": "",
          "type": "address"
        }
      ],
      "stateMutability": "view",
      "type": "function"
    },
    {
      "inputs": [
        {
          "internalType": "uint256",
          "name": "mintAmount",
          "type": "uint256"
        }
      ],
      "name": "mintSuperNova",
      "outputs": [],
      "stateMutability": "payable",
      "type": "function"
    },
    {
      "inputs": [
        {
          "internalType": "uint256",
          "name": "mintAmount",
          "type": "uint256"
        }
      ],
      "name": "mintNova",
      "outputs": [],
      "stateMutability": "payable",
      "type": "function"
    },
    {
      "inputs": [
        {
          "internalType": "uint256",
          "name": "mintAmount",
          "type": "uint256"
        }
      ],
      "name": "mintAurora",
      "outputs": [],
      "stateMutability": "payable",
      "type": "function"
    },
    {
      "inputs": [
        {
          "internalType": "uint256",
          "name": "mintAmount",
          "type": "uint256"
        }
      ],
      "name": "mintGenesis",
      "outputs": [],
      "stateMutability": "payable",
      "type": "function"
    },
    {
      "inputs": [
        {
          "internalType": "address",
          "name": "_user",
          "type": "address"
        }
      ],
      "name": "isSuperNova",
      "outputs": [
        {
          "internalType": "bool",
          "name": "",
          "type": "bool"
        }
      ],
      "stateMutability": "view",
      "type": "function"
    },
    {
      "inputs": [
        {
          "internalType": "address",
          "name": "_user",
          "type": "address"
        }
      ],
      "name": "isNova",
      "outputs": [
        {
          "internalType": "bool",
          "name": "",
          "type": "bool"
        }
      ],
      "stateMutability": "view",
      "type": "function"
    },
    {
      "inputs": [
        {
          "internalType": "address",
          "name": "_user",
          "type": "address"
        }
      ],
      "name": "isAurora",
      "outputs": [
        {
          "internalType": "bool",
          "name": "",
          "type": "bool"
        }
      ],
      "stateMutability": "view",
      "type": "function"
    },
    {
      "inputs": [
        {
          "internalType": "address",
          "name": "_user",
          "type": "address"
        }
      ],
      "name": "isGenesis",
      "outputs": [
        {
          "internalType": "bool",
          "name": "",
          "type": "bool"
        }
      ],
      "stateMutability": "view",
      "type": "function"
    },
    {
      "inputs": [
        {
          "internalType": "uint256",
          "name": "tokenId",
          "type": "uint256"
        }
      ],
      "name": "tokenURI",
      "outputs": [
        {
          "internalType": "string",
          "name": "",
          "type": "string"
        }
      ],
      "stateMutability": "view",
      "type": "function"
    },
    {
      "inputs": [
        {
          "internalType": "bytes4",
          "name": "interfaceId",
          "type": "bytes4"
        }
      ],
      "name": "supportsInterface",
      "outputs": [
        {
          "internalType": "bool",
          "name": "",
          "type": "bool"
        }
      ],
      "stateMutability": "view",
      "type": "function"
    },
    {
      "inputs": [
        {
          "internalType": "address",
          "name": "_owner",
          "type": "address"
        }
      ],
      "name": "walletOfOwner",
      "outputs": [
        {
          "internalType": "uint256[]",
          "name": "",
          "type": "uint256[]"
        }
      ],
      "stateMutability": "view",
      "type": "function"
    },
    {
      "inputs": [],
      "name": "withdraw",
      "outputs": [],
      "stateMutability": "payable",
      "type": "function"
    },
    {
      "inputs": [
        {
          "internalType": "bool",
          "name": "_state",
          "type": "bool"
        }
      ],
      "name": "setOnlyWhitelisted",
      "outputs": [],
      "stateMutability": "nonpayable",
      "type": "function"
    },
    {
      "inputs": [
        {
          "internalType": "address[]",
          "name": "_users",
          "type": "address[]"
        }
      ],
      "name": "goSuperNova",
      "outputs": [],
      "stateMutability": "nonpayable",
      "type": "function"
    },
    {
      "inputs": [
        {
          "internalType": "address[]",
          "name": "_users",
          "type": "address[]"
        }
      ],
      "name": "goNova",
      "outputs": [],
      "stateMutability": "nonpayable",
      "type": "function"
    },
    {
      "inputs": [
        {
          "internalType": "address[]",
          "name": "_users",
          "type": "address[]"
        }
      ],
      "name": "goAurora",
      "outputs": [],
      "stateMutability": "nonpayable",
      "type": "function"
    },
    {
      "inputs": [
        {
          "internalType": "address[]",
          "name": "_users",
          "type": "address[]"
        }
      ],
      "name": "goGenesis",
      "outputs": [],
      "stateMutability": "nonpayable",
      "type": "function"
    },
    {
      "inputs": [
        {
          "internalType": "uint256",
          "name": "_newCostSuperNova",
          "type": "uint256"
        }
      ],
      "name": "setCostSuperNova",
      "outputs": [],
      "stateMutability": "nonpayable",
      "type": "function"
    },
    {
      "inputs": [
        {
          "internalType": "uint256",
          "name": "_newCostNova",
          "type": "uint256"
        }
      ],
      "name": "setCostNova",
      "outputs": [],
      "stateMutability": "nonpayable",
      "type": "function"
    },
    {
      "inputs": [
        {
          "internalType": "uint256",
          "name": "_newCostAurora",
          "type": "uint256"
        }
      ],
      "name": "setCostAurora",
      "outputs": [],
      "stateMutability": "nonpayable",
      "type": "function"
    },
    {
      "inputs": [
        {
          "internalType": "uint256",
          "name": "_newCostGenesis",
          "type": "uint256"
        }
      ],
      "name": "setCostGenesis",
      "outputs": [],
      "stateMutability": "nonpayable",
      "type": "function"
    },
    {
      "inputs": [],
      "name": "pause",
      "outputs": [],
      "stateMutability": "nonpayable",
      "type": "function"
    },
    {
      "inputs": [],
      "name": "unpause",
      "outputs": [],
      "stateMutability": "nonpayable",
      "type": "function"
    }
  ],
  "bytecode": "0x60806040526040518060400160405280600581526020017f2e6a736f6e000000000000000000000000000000000000000000000000000000815250600d9080519060200190620000519291906200024a565b5060006103fb5560006103fc5560006103fd5560006103fe556103e76103ff55600161040060006101000a81548160ff0219169083151502179055503480156200009a57600080fd5b506040518060400160405280600a81526020017f5761676d6920436c7562000000000000000000000000000000000000000000008152506040518060400160405280600281526020017f574300000000000000000000000000000000000000000000000000000000000081525081600090805190602001906200011f9291906200024a565b508060019080519060200190620001389291906200024a565b5050506000600b60006101000a81548160ff021916908315150217905550620001766200016a6200017c60201b60201c565b6200018460201b60201c565b6200035e565b600033905090565b6000600b60019054906101000a900473ffffffffffffffffffffffffffffffffffffffff16905081600b60016101000a81548173ffffffffffffffffffffffffffffffffffffffff021916908373ffffffffffffffffffffffffffffffffffffffff1602179055508173ffffffffffffffffffffffffffffffffffffffff168173ffffffffffffffffffffffffffffffffffffffff167f8be0079c531659141344cd1fd0a4f28419497f9722a3daafe3b4186f6b6457e060405160405180910390a35050565b828054620002589062000329565b90600052602060002090601f0160209004810192826200027c5760008555620002c8565b82601f106200029757805160ff1916838001178555620002c8565b82800160010185558215620002c8579182015b82811115620002c7578251825591602001919060010190620002aa565b5b509050620002d79190620002db565b5090565b5b80821115620002f6576000816000905550600101620002dc565b5090565b7f4e487b7100000000000000000000000000000000000000000000000000000000600052602260045260246000fd5b600060028204905060018216806200034257607f821691505b602082108103620003585762000357620002fa565b5b50919050565b615aed806200036e6000396000f3fe60806040526004361061038c5760003560e01c8063715018a6116101dc578063a22cb46511610102578063da2e153b116100a0578063e985e9c51161006f578063e985e9c514610d4d578063eb5a3bb614610d8a578063f2fde38b14610db3578063fac333ac14610ddc5761038c565b8063da2e153b14610ca0578063dd23a99d14610cc9578063de343f6014610cf4578063dff6324314610d315761038c565b8063c24f1911116100dc578063c24f191114610bd0578063c668286214610c0d578063c87b56dd14610c38578063d5abeb0114610c755761038c565b8063a22cb46514610b53578063b88d4fde14610b7c578063bc6ecf2714610ba55761038c565b80638da93e191161017a57806395d89b411161014957806395d89b4114610a955780639c70b51214610ac0578063a104d7ed14610aeb578063a11c8b6914610b165761038c565b80638da93e19146109d95780638f5d4c1514610a0457806391bfea3a14610a2d5780639326cf8714610a6a5761038c565b806385291cda116101b657806385291cda1461091857806387864383146109555780638c128e5b146109925780638da5cb5b146109ae5761038c565b8063715018a6146108bf57806380609736146108d65780638456cb59146109015761038c565b80633f4ba83a116102c15780635c975abb1161025f5780636b227dd11161022e5780636b227dd1146107f15780636c0360eb1461081a5780636ff198171461084557806370a08231146108825761038c565b80635c975abb1461072357806360e8ad471461074e5780636352211e1461078b57806364ff52a3146107c85761038c565b80634f6ccce71161029b5780634f6ccce71461068357806355f21904146106c0578063568725d4146106dc57806357141dee146106f85761038c565b80633f4ba83a1461060657806342842e0e1461061d578063438b6300146106465761038c565b806318cae2691161032e5780633accd93a116103085780633accd93a1461057f5780633b4fd38e146105aa5780633c952764146105d35780633ccfd60b146105fc5761038c565b806318cae269146104dc57806323b872dd146105195780632f745c59146105425761038c565b8063095ea7b31161036a578063095ea7b31461043657806309b74e9b1461045f5780630c7229881461048857806318160ddd146104b15761038c565b806301ffc9a71461039157806306fdde03146103ce578063081812fc146103f9575b600080fd5b34801561039d57600080fd5b506103b860048036038101906103b391906141c6565b610e19565b6040516103c5919061420e565b60405180910390f35b3480156103da57600080fd5b506103e3610e2b565b6040516103f091906142c2565b60405180910390f35b34801561040557600080fd5b50610420600480360381019061041b919061431a565b610ebd565b60405161042d9190614388565b60405180910390f35b34801561044257600080fd5b5061045d600480360381019061045891906143cf565b610f42565b005b34801561046b57600080fd5b5061048660048036038101906104819190614474565b611059565b005b34801561049457600080fd5b506104af60048036038101906104aa919061431a565b6110fb565b005b3480156104bd57600080fd5b506104c6611182565b6040516104d391906144d0565b60405180910390f35b3480156104e857600080fd5b5061050360048036038101906104fe91906144eb565b61118f565b60405161051091906144d0565b60405180910390f35b34801561052557600080fd5b50610540600480360381019061053b9190614518565b6111a8565b005b34801561054e57600080fd5b50610569600480360381019061056491906143cf565b611208565b60405161057691906144d0565b60405180910390f35b34801561058b57600080fd5b506105946112ad565b6040516105a191906144d0565b60405180910390f35b3480156105b657600080fd5b506105d160048036038101906105cc919061431a565b6112b4565b005b3480156105df57600080fd5b506105fa60048036038101906105f59190614597565b61133b565b005b6106046113d5565b005b34801561061257600080fd5b5061061b6114ca565b005b34801561062957600080fd5b50610644600480360381019061063f9190614518565b611550565b005b34801561065257600080fd5b5061066d600480360381019061066891906144eb565b611570565b60405161067a9190614682565b60405180910390f35b34801561068f57600080fd5b506106aa60048036038101906106a5919061431a565b61161e565b6040516106b791906144d0565b60405180910390f35b6106da60048036038101906106d5919061431a565b61168f565b005b6106f660048036038101906106f1919061431a565b611837565b005b34801561070457600080fd5b5061070d6119e3565b60405161071a91906144d0565b60405180910390f35b34801561072f57600080fd5b506107386119ea565b604051610745919061420e565b60405180910390f35b34801561075a57600080fd5b50610775600480360381019061077091906144eb565b611a01565b604051610782919061420e565b60405180910390f35b34801561079757600080fd5b506107b260048036038101906107ad919061431a565b611ab1565b6040516107bf9190614388565b60405180910390f35b3480156107d457600080fd5b506107ef60048036038101906107ea9190614474565b611b62565b005b3480156107fd57600080fd5b506108186004803603810190610813919061431a565b611c04565b005b34801561082657600080fd5b5061082f611c8b565b60405161083c91906142c2565b60405180910390f35b34801561085157600080fd5b5061086c6004803603810190610867919061431a565b611d19565b6040516108799190614388565b60405180910390f35b34801561088e57600080fd5b506108a960048036038101906108a491906144eb565b611d59565b6040516108b691906144d0565b60405180910390f35b3480156108cb57600080fd5b506108d4611e10565b005b3480156108e257600080fd5b506108eb611e98565b6040516108f891906144d0565b60405180910390f35b34801561090d57600080fd5b50610916611e9f565b005b34801561092457600080fd5b5061093f600480360381019061093a919061431a565b611f25565b60405161094c9190614388565b60405180910390f35b34801561096157600080fd5b5061097c600480360381019061097791906144eb565b611f65565b604051610989919061420e565b60405180910390f35b6109ac60048036038101906109a7919061431a565b612015565b005b3480156109ba57600080fd5b506109c36121c1565b6040516109d09190614388565b60405180910390f35b3480156109e557600080fd5b506109ee6121eb565b6040516109fb91906144d0565b60405180910390f35b348015610a1057600080fd5b50610a2b6004803603810190610a26919061431a565b6121f2565b005b348015610a3957600080fd5b50610a546004803603810190610a4f91906144eb565b612279565b604051610a61919061420e565b60405180910390f35b348015610a7657600080fd5b50610a7f612329565b604051610a8c91906144d0565b60405180910390f35b348015610aa157600080fd5b50610aaa612330565b604051610ab791906142c2565b60405180910390f35b348015610acc57600080fd5b50610ad56123c2565b604051610ae2919061420e565b60405180910390f35b348015610af757600080fd5b50610b006123d6565b604051610b0d91906144d0565b60405180910390f35b348015610b2257600080fd5b50610b3d6004803603810190610b38919061431a565b6123dd565b604051610b4a9190614388565b60405180910390f35b348015610b5f57600080fd5b50610b7a6004803603810190610b7591906146a4565b61241d565b005b348015610b8857600080fd5b50610ba36004803603810190610b9e9190614814565b612433565b005b348015610bb157600080fd5b50610bba612495565b604051610bc791906144d0565b60405180910390f35b348015610bdc57600080fd5b50610bf76004803603810190610bf2919061431a565b61249c565b604051610c049190614388565b60405180910390f35b348015610c1957600080fd5b50610c226124dc565b604051610c2f91906142c2565b60405180910390f35b348015610c4457600080fd5b50610c5f6004803603810190610c5a919061431a565b61256a565b604051610c6c91906142c2565b60405180910390f35b348015610c8157600080fd5b50610c8a612614565b604051610c9791906144d0565b60405180910390f35b348015610cac57600080fd5b50610cc76004803603810190610cc29190614474565b61261b565b005b348015610cd557600080fd5b50610cde6126bd565b604051610ceb91906144d0565b60405180910390f35b348015610d0057600080fd5b50610d1b6004803603810190610d1691906144eb565b6126c4565b604051610d28919061420e565b60405180910390f35b610d4b6004803603810190610d46919061431a565b612774565b005b348015610d5957600080fd5b50610d746004803603810190610d6f9190614897565b612921565b604051610d81919061420e565b60405180910390f35b348015610d9657600080fd5b50610db16004803603810190610dac9190614474565b6129b5565b005b348015610dbf57600080fd5b50610dda6004803603810190610dd591906144eb565b612a57565b005b348015610de857600080fd5b50610e036004803603810190610dfe919061431a565b612b4e565b604051610e1091906144d0565b60405180910390f35b6000610e2482612b6a565b9050919050565b606060008054610e3a90614906565b80601f0160208091040260200160405190810160405280929190818152602001828054610e6690614906565b8015610eb35780601f10610e8857610100808354040283529160200191610eb3565b820191906000526020600020905b815481529060010190602001808311610e9657829003601f168201915b5050505050905090565b6000610ec882612be4565b610f07576040517f08c379a0000000000000000000000000000000000000000000000000000000008152600401610efe906149a9565b60405180910390fd5b6004600083815260200190815260200160002060009054906101000a900473ffffffffffffffffffffffffffffffffffffffff169050919050565b6000610f4d82611ab1565b90508073ffffffffffffffffffffffffffffffffffffffff168373ffffffffffffffffffffffffffffffffffffffff1603610fbd576040517f08c379a0000000000000000000000000000000000000000000000000000000008152600401610fb490614a3b565b60405180910390fd5b8073ffffffffffffffffffffffffffffffffffffffff16610fdc612c50565b73ffffffffffffffffffffffffffffffffffffffff16148061100b575061100a81611005612c50565b612921565b5b61104a576040517f08c379a000000000000000000000000000000000000000000000000000000000815260040161104190614acd565b60405180910390fd5b6110548383612c58565b505050565b611061612c50565b73ffffffffffffffffffffffffffffffffffffffff1661107f6121c1565b73ffffffffffffffffffffffffffffffffffffffff16146110d5576040517f08c379a00000000000000000000000000000000000000000000000000000000081526004016110cc90614b39565b60405180910390fd5b61040160006110e49190613ff6565b818161040191906110f6929190614017565b505050565b611103612c50565b73ffffffffffffffffffffffffffffffffffffffff166111216121c1565b73ffffffffffffffffffffffffffffffffffffffff1614611177576040517f08c379a000000000000000000000000000000000000000000000000000000000815260040161116e90614b39565b60405180910390fd5b806103fb8190555050565b6000600880549050905090565b6104056020528060005260406000206000915090505481565b6111b96111b3612c50565b82612d11565b6111f8576040517f08c379a00000000000000000000000000000000000000000000000000000000081526004016111ef90614bcb565b60405180910390fd5b611203838383612def565b505050565b600061121383611d59565b8210611254576040517f08c379a000000000000000000000000000000000000000000000000000000000815260040161124b90614c5d565b60405180910390fd5b600660008473ffffffffffffffffffffffffffffffffffffffff1673ffffffffffffffffffffffffffffffffffffffff168152602001908152602001600020600083815260200190815260200160002054905092915050565b6103fc5481565b6112bc612c50565b73ffffffffffffffffffffffffffffffffffffffff166112da6121c1565b73ffffffffffffffffffffffffffffffffffffffff1614611330576040517f08c379a000000000000000000000000000000000000000000000000000000000815260040161132790614b39565b60405180910390fd5b806103fd8190555050565b611343612c50565b73ffffffffffffffffffffffffffffffffffffffff166113616121c1565b73ffffffffffffffffffffffffffffffffffffffff16146113b7576040517f08c379a00000000000000000000000000000000000000000000000000000000081526004016113ae90614b39565b60405180910390fd5b8061040060006101000a81548160ff02191690831515021790555050565b6113dd612c50565b73ffffffffffffffffffffffffffffffffffffffff166113fb6121c1565b73ffffffffffffffffffffffffffffffffffffffff1614611451576040517f08c379a000000000000000000000000000000000000000000000000000000000815260040161144890614b39565b60405180910390fd5b60003373ffffffffffffffffffffffffffffffffffffffff164760405161147790614cae565b60006040518083038185875af1925050503d80600081146114b4576040519150601f19603f3d011682016040523d82523d6000602084013e6114b9565b606091505b50509050806114c757600080fd5b50565b6114d2612c50565b73ffffffffffffffffffffffffffffffffffffffff166114f06121c1565b73ffffffffffffffffffffffffffffffffffffffff1614611546576040517f08c379a000000000000000000000000000000000000000000000000000000000815260040161153d90614b39565b60405180910390fd5b61154e613055565b565b61156b83838360405180602001604052806000815250612433565b505050565b6060600061157d83611d59565b905060008167ffffffffffffffff81111561159b5761159a6146e9565b5b6040519080825280602002602001820160405280156115c95781602001602082028036833780820191505090505b50905060005b82811015611613576115e18582611208565b8282815181106115f4576115f3614cc3565b5b602002602001018181525050808061160b90614d21565b9150506115cf565b508092505050919050565b6000611628611182565b8210611669576040517f08c379a000000000000000000000000000000000000000000000000000000000815260040161166090614ddb565b60405180910390fd5b6008828154811061167d5761167c614cc3565b5b90600052602060002001549050919050565b6000611699611182565b90506103ff5482826116ab9190614dfb565b11156116ec576040517f08c379a00000000000000000000000000000000000000000000000000000000081526004016116e390614e9d565b60405180910390fd5b816103fb546116fb9190614ebd565b34101561173d576040517f08c379a000000000000000000000000000000000000000000000000000000000815260040161173490614f63565b60405180910390fd5b61175e604051806080016040528060518152602001615a67605191396130f7565b6117666121c1565b73ffffffffffffffffffffffffffffffffffffffff163373ffffffffffffffffffffffffffffffffffffffff16146117fe576001151561040060009054906101000a900460ff161515036117fd576117bd33611f65565b6117fc576040517f08c379a00000000000000000000000000000000000000000000000000000000081526004016117f390614fcf565b60405180910390fd5b5b5b6000826103f760008282546118139190614dfb565b92505081905550611832336103f7548361182d9190614dfb565b613111565b505050565b6000611841611182565b90506103ff5482826118539190614dfb565b1115611894576040517f08c379a000000000000000000000000000000000000000000000000000000000815260040161188b90614e9d565b60405180910390fd5b816103fc546118a39190614ebd565b3410156118e5576040517f08c379a00000000000000000000000000000000000000000000000000000000081526004016118dc90614f63565b60405180910390fd5b611906604051806080016040528060518152602001615a16605191396130f7565b61190e6121c1565b73ffffffffffffffffffffffffffffffffffffffff163373ffffffffffffffffffffffffffffffffffffffff16146119a6576001151561040060009054906101000a900460ff161515036119a557611965336126c4565b6119a4576040517f08c379a000000000000000000000000000000000000000000000000000000000815260040161199b90614fcf565b60405180910390fd5b5b5b600060099050826103f860008282546119bf9190614dfb565b925050819055506119de336103f854836119d99190614dfb565b613111565b505050565b6103fe5481565b6000600b60009054906101000a900460ff16905090565b600080600090505b61040480549050811015611aa6578273ffffffffffffffffffffffffffffffffffffffff166104048281548110611a4357611a42614cc3565b5b9060005260206000200160009054906101000a900473ffffffffffffffffffffffffffffffffffffffff1673ffffffffffffffffffffffffffffffffffffffff1603611a93576001915050611aac565b8080611a9e90614d21565b915050611a09565b50600090505b919050565b6000806002600084815260200190815260200160002060009054906101000a900473ffffffffffffffffffffffffffffffffffffffff169050600073ffffffffffffffffffffffffffffffffffffffff168173ffffffffffffffffffffffffffffffffffffffff1603611b59576040517f08c379a0000000000000000000000000000000000000000000000000000000008152600401611b5090615061565b60405180910390fd5b80915050919050565b611b6a612c50565b73ffffffffffffffffffffffffffffffffffffffff16611b886121c1565b73ffffffffffffffffffffffffffffffffffffffff1614611bde576040517f08c379a0000000000000000000000000000000000000000000000000000000008152600401611bd590614b39565b60405180910390fd5b6104046000611bed9190613ff6565b81816104049190611bff929190614017565b505050565b611c0c612c50565b73ffffffffffffffffffffffffffffffffffffffff16611c2a6121c1565b73ffffffffffffffffffffffffffffffffffffffff1614611c80576040517f08c379a0000000000000000000000000000000000000000000000000000000008152600401611c7790614b39565b60405180910390fd5b806103fe8190555050565b600c8054611c9890614906565b80601f0160208091040260200160405190810160405280929190818152602001828054611cc490614906565b8015611d115780601f10611ce657610100808354040283529160200191611d11565b820191906000526020600020905b815481529060010190602001808311611cf457829003601f168201915b505050505081565b6104018181548110611d2a57600080fd5b906000526020600020016000915054906101000a900473ffffffffffffffffffffffffffffffffffffffff1681565b60008073ffffffffffffffffffffffffffffffffffffffff168273ffffffffffffffffffffffffffffffffffffffff1603611dc9576040517f08c379a0000000000000000000000000000000000000000000000000000000008152600401611dc0906150f3565b60405180910390fd5b600360008373ffffffffffffffffffffffffffffffffffffffff1673ffffffffffffffffffffffffffffffffffffffff168152602001908152602001600020549050919050565b611e18612c50565b73ffffffffffffffffffffffffffffffffffffffff16611e366121c1565b73ffffffffffffffffffffffffffffffffffffffff1614611e8c576040517f08c379a0000000000000000000000000000000000000000000000000000000008152600401611e8390614b39565b60405180910390fd5b611e96600061312f565b565b6103f75481565b611ea7612c50565b73ffffffffffffffffffffffffffffffffffffffff16611ec56121c1565b73ffffffffffffffffffffffffffffffffffffffff1614611f1b576040517f08c379a0000000000000000000000000000000000000000000000000000000008152600401611f1290614b39565b60405180910390fd5b611f236131f5565b565b6104048181548110611f3657600080fd5b906000526020600020016000915054906101000a900473ffffffffffffffffffffffffffffffffffffffff1681565b600080600090505b6104018054905081101561200a578273ffffffffffffffffffffffffffffffffffffffff166104018281548110611fa757611fa6614cc3565b5b9060005260206000200160009054906101000a900473ffffffffffffffffffffffffffffffffffffffff1673ffffffffffffffffffffffffffffffffffffffff1603611ff7576001915050612010565b808061200290614d21565b915050611f6d565b50600090505b919050565b600061201f611182565b90506103ff5482826120319190614dfb565b1115612072576040517f08c379a000000000000000000000000000000000000000000000000000000000815260040161206990614e9d565b60405180910390fd5b816103fd546120819190614ebd565b3410156120c3576040517f08c379a00000000000000000000000000000000000000000000000000000000081526004016120ba90614f63565b60405180910390fd5b6120e46040518060800160405280605181526020016159c5605191396130f7565b6120ec6121c1565b73ffffffffffffffffffffffffffffffffffffffff163373ffffffffffffffffffffffffffffffffffffffff1614612184576001151561040060009054906101000a900460ff161515036121835761214333612279565b612182576040517f08c379a000000000000000000000000000000000000000000000000000000000815260040161217990614fcf565b60405180910390fd5b5b5b600060639050826103f9600082825461219d9190614dfb565b925050819055506121bc336103f954836121b79190614dfb565b613111565b505050565b6000600b60019054906101000a900473ffffffffffffffffffffffffffffffffffffffff16905090565b6103fd5481565b6121fa612c50565b73ffffffffffffffffffffffffffffffffffffffff166122186121c1565b73ffffffffffffffffffffffffffffffffffffffff161461226e576040517f08c379a000000000000000000000000000000000000000000000000000000000815260040161226590614b39565b60405180910390fd5b806103fc8190555050565b600080600090505b6104038054905081101561231e578273ffffffffffffffffffffffffffffffffffffffff1661040382815481106122bb576122ba614cc3565b5b9060005260206000200160009054906101000a900473ffffffffffffffffffffffffffffffffffffffff1673ffffffffffffffffffffffffffffffffffffffff160361230b576001915050612324565b808061231690614d21565b915050612281565b50600090505b919050565b6103fb5481565b60606001805461233f90614906565b80601f016020809104026020016040519081016040528092919081815260200182805461236b90614906565b80156123b85780601f1061238d576101008083540402835291602001916123b8565b820191906000526020600020905b81548152906001019060200180831161239b57829003601f168201915b5050505050905090565b61040060009054906101000a900460ff1681565b6103f95481565b61040281815481106123ee57600080fd5b906000526020600020016000915054906101000a900473ffffffffffffffffffffffffffffffffffffffff1681565b61242f612428612c50565b8383613298565b5050565b61244461243e612c50565b83612d11565b612483576040517f08c379a000000000000000000000000000000000000000000000000000000000815260040161247a90614bcb565b60405180910390fd5b61248f84848484613404565b50505050565b6103fa5481565b61040381815481106124ad57600080fd5b906000526020600020016000915054906101000a900473ffffffffffffffffffffffffffffffffffffffff1681565b600d80546124e990614906565b80601f016020809104026020016040519081016040528092919081815260200182805461251590614906565b80156125625780601f1061253757610100808354040283529160200191612562565b820191906000526020600020905b81548152906001019060200180831161254557829003601f168201915b505050505081565b606061257582612be4565b6125b4576040517f08c379a00000000000000000000000000000000000000000000000000000000081526004016125ab90615185565b60405180910390fd5b60006125be613460565b905060008151116125de576040518060200160405280600081525061260c565b806125e8846134f2565b600d6040516020016125fc93929190615275565b6040516020818303038152906040525b915050919050565b6103ff5481565b612623612c50565b73ffffffffffffffffffffffffffffffffffffffff166126416121c1565b73ffffffffffffffffffffffffffffffffffffffff1614612697576040517f08c379a000000000000000000000000000000000000000000000000000000000815260040161268e90614b39565b60405180910390fd5b61040360006126a69190613ff6565b818161040391906126b8929190614017565b505050565b6103f85481565b600080600090505b61040280549050811015612769578273ffffffffffffffffffffffffffffffffffffffff16610402828154811061270657612705614cc3565b5b9060005260206000200160009054906101000a900473ffffffffffffffffffffffffffffffffffffffff1673ffffffffffffffffffffffffffffffffffffffff160361275657600191505061276f565b808061276190614d21565b9150506126cc565b50600090505b919050565b600061277e611182565b90506103ff5482826127909190614dfb565b11156127d1576040517f08c379a00000000000000000000000000000000000000000000000000000000081526004016127c890614e9d565b60405180910390fd5b816103fe546127e09190614ebd565b341015612822576040517f08c379a000000000000000000000000000000000000000000000000000000000815260040161281990614f63565b60405180910390fd5b612843604051806080016040528060518152602001615974605191396130f7565b61284b6121c1565b73ffffffffffffffffffffffffffffffffffffffff163373ffffffffffffffffffffffffffffffffffffffff16146128e3576001151561040060009054906101000a900460ff161515036128e2576128a233611a01565b6128e1576040517f08c379a00000000000000000000000000000000000000000000000000000000081526004016128d890614fcf565b60405180910390fd5b5b5b60006101c19050826103fa60008282546128fd9190614dfb565b9250508190555061291c336103fa54836129179190614dfb565b613111565b505050565b6000600560008473ffffffffffffffffffffffffffffffffffffffff1673ffffffffffffffffffffffffffffffffffffffff16815260200190815260200160002060008373ffffffffffffffffffffffffffffffffffffffff1673ffffffffffffffffffffffffffffffffffffffff16815260200190815260200160002060009054906101000a900460ff16905092915050565b6129bd612c50565b73ffffffffffffffffffffffffffffffffffffffff166129db6121c1565b73ffffffffffffffffffffffffffffffffffffffff1614612a31576040517f08c379a0000000000000000000000000000000000000000000000000000000008152600401612a2890614b39565b60405180910390fd5b6104026000612a409190613ff6565b81816104029190612a52929190614017565b505050565b612a5f612c50565b73ffffffffffffffffffffffffffffffffffffffff16612a7d6121c1565b73ffffffffffffffffffffffffffffffffffffffff1614612ad3576040517f08c379a0000000000000000000000000000000000000000000000000000000008152600401612aca90614b39565b60405180910390fd5b600073ffffffffffffffffffffffffffffffffffffffff168173ffffffffffffffffffffffffffffffffffffffff1603612b42576040517f08c379a0000000000000000000000000000000000000000000000000000000008152600401612b3990615318565b60405180910390fd5b612b4b8161312f565b50565b600f816103e78110612b5f57600080fd5b016000915090505481565b60007f780e9d63000000000000000000000000000000000000000000000000000000007bffffffffffffffffffffffffffffffffffffffffffffffffffffffff1916827bffffffffffffffffffffffffffffffffffffffffffffffffffffffff19161480612bdd5750612bdc82613652565b5b9050919050565b60008073ffffffffffffffffffffffffffffffffffffffff166002600084815260200190815260200160002060009054906101000a900473ffffffffffffffffffffffffffffffffffffffff1673ffffffffffffffffffffffffffffffffffffffff1614159050919050565b600033905090565b816004600083815260200190815260200160002060006101000a81548173ffffffffffffffffffffffffffffffffffffffff021916908373ffffffffffffffffffffffffffffffffffffffff160217905550808273ffffffffffffffffffffffffffffffffffffffff16612ccb83611ab1565b73ffffffffffffffffffffffffffffffffffffffff167f8c5be1e5ebec7d5bd14f71427d1e84f3dd0314c0f7b2291e5b200ac8c7c3b92560405160405180910390a45050565b6000612d1c82612be4565b612d5b576040517f08c379a0000000000000000000000000000000000000000000000000000000008152600401612d52906153aa565b60405180910390fd5b6000612d6683611ab1565b90508073ffffffffffffffffffffffffffffffffffffffff168473ffffffffffffffffffffffffffffffffffffffff161480612da85750612da78185612921565b5b80612de657508373ffffffffffffffffffffffffffffffffffffffff16612dce84610ebd565b73ffffffffffffffffffffffffffffffffffffffff16145b91505092915050565b8273ffffffffffffffffffffffffffffffffffffffff16612e0f82611ab1565b73ffffffffffffffffffffffffffffffffffffffff1614612e65576040517f08c379a0000000000000000000000000000000000000000000000000000000008152600401612e5c9061543c565b60405180910390fd5b600073ffffffffffffffffffffffffffffffffffffffff168273ffffffffffffffffffffffffffffffffffffffff1603612ed4576040517f08c379a0000000000000000000000000000000000000000000000000000000008152600401612ecb906154ce565b60405180910390fd5b612edf838383613734565b612eea600082612c58565b6001600360008573ffffffffffffffffffffffffffffffffffffffff1673ffffffffffffffffffffffffffffffffffffffff1681526020019081526020016000206000828254612f3a91906154ee565b925050819055506001600360008473ffffffffffffffffffffffffffffffffffffffff1673ffffffffffffffffffffffffffffffffffffffff1681526020019081526020016000206000828254612f919190614dfb565b92505081905550816002600083815260200190815260200160002060006101000a81548173ffffffffffffffffffffffffffffffffffffffff021916908373ffffffffffffffffffffffffffffffffffffffff160217905550808273ffffffffffffffffffffffffffffffffffffffff168473ffffffffffffffffffffffffffffffffffffffff167fddf252ad1be2c89b69c2b068fc378daa952ba7f163c4a11628f55a4df523b3ef60405160405180910390a461305083838361378c565b505050565b61305d6119ea565b61309c576040517f08c379a00000000000000000000000000000000000000000000000000000000081526004016130939061556e565b60405180910390fd5b6000600b60006101000a81548160ff0219169083151502179055507f5db9ee0a495bf2e6ff9c91a7834c1ba4fdd244a5e8aa4e537bd38aeae4b073aa6130e0612c50565b6040516130ed9190614388565b60405180910390a1565b80600c908051906020019061310d9291906140b7565b5050565b61312b828260405180602001604052806000815250613791565b5050565b6000600b60019054906101000a900473ffffffffffffffffffffffffffffffffffffffff16905081600b60016101000a81548173ffffffffffffffffffffffffffffffffffffffff021916908373ffffffffffffffffffffffffffffffffffffffff1602179055508173ffffffffffffffffffffffffffffffffffffffff168173ffffffffffffffffffffffffffffffffffffffff167f8be0079c531659141344cd1fd0a4f28419497f9722a3daafe3b4186f6b6457e060405160405180910390a35050565b6131fd6119ea565b1561323d576040517f08c379a0000000000000000000000000000000000000000000000000000000008152600401613234906155da565b60405180910390fd5b6001600b60006101000a81548160ff0219169083151502179055507f62e78cea01bee320cd4e420270b5ea74000d11b0c9f74754ebdbfc544b05a258613281612c50565b60405161328e9190614388565b60405180910390a1565b8173ffffffffffffffffffffffffffffffffffffffff168373ffffffffffffffffffffffffffffffffffffffff1603613306576040517f08c379a00000000000000000000000000000000000000000000000000000000081526004016132fd90615646565b60405180910390fd5b80600560008573ffffffffffffffffffffffffffffffffffffffff1673ffffffffffffffffffffffffffffffffffffffff16815260200190815260200160002060008473ffffffffffffffffffffffffffffffffffffffff1673ffffffffffffffffffffffffffffffffffffffff16815260200190815260200160002060006101000a81548160ff0219169083151502179055508173ffffffffffffffffffffffffffffffffffffffff168373ffffffffffffffffffffffffffffffffffffffff167f17307eab39ab6107e8899845ad3d59bd9653f200f220920489ca2b5937696c31836040516133f7919061420e565b60405180910390a3505050565b61340f848484612def565b61341b848484846137ec565b61345a576040517f08c379a0000000000000000000000000000000000000000000000000000000008152600401613451906156d8565b60405180910390fd5b50505050565b6060600c805461346f90614906565b80601f016020809104026020016040519081016040528092919081815260200182805461349b90614906565b80156134e85780601f106134bd576101008083540402835291602001916134e8565b820191906000526020600020905b8154815290600101906020018083116134cb57829003601f168201915b5050505050905090565b606060008203613539576040518060400160405280600181526020017f3000000000000000000000000000000000000000000000000000000000000000815250905061364d565b600082905060005b6000821461356b57808061355490614d21565b915050600a826135649190615727565b9150613541565b60008167ffffffffffffffff811115613587576135866146e9565b5b6040519080825280601f01601f1916602001820160405280156135b95781602001600182028036833780820191505090505b5090505b60008514613646576001826135d291906154ee565b9150600a856135e19190615758565b60306135ed9190614dfb565b60f81b81838151811061360357613602614cc3565b5b60200101907effffffffffffffffffffffffffffffffffffffffffffffffffffffffffffff1916908160001a905350600a8561363f9190615727565b94506135bd565b8093505050505b919050565b60007f80ac58cd000000000000000000000000000000000000000000000000000000007bffffffffffffffffffffffffffffffffffffffffffffffffffffffff1916827bffffffffffffffffffffffffffffffffffffffffffffffffffffffff1916148061371d57507f5b5e139f000000000000000000000000000000000000000000000000000000007bffffffffffffffffffffffffffffffffffffffffffffffffffffffff1916827bffffffffffffffffffffffffffffffffffffffffffffffffffffffff1916145b8061372d575061372c82613973565b5b9050919050565b61373c6119ea565b1561377c576040517f08c379a0000000000000000000000000000000000000000000000000000000008152600401613773906155da565b60405180910390fd5b6137878383836139dd565b505050565b505050565b61379b8383613aef565b6137a860008484846137ec565b6137e7576040517f08c379a00000000000000000000000000000000000000000000000000000000081526004016137de906156d8565b60405180910390fd5b505050565b600061380d8473ffffffffffffffffffffffffffffffffffffffff16613cc8565b15613966578373ffffffffffffffffffffffffffffffffffffffff1663150b7a02613836612c50565b8786866040518563ffffffff1660e01b815260040161385894939291906157de565b6020604051808303816000875af192505050801561389457506040513d601f19601f82011682018060405250810190613891919061583f565b60015b613916573d80600081146138c4576040519150601f19603f3d011682016040523d82523d6000602084013e6138c9565b606091505b50600081510361390e576040517f08c379a0000000000000000000000000000000000000000000000000000000008152600401613905906156d8565b60405180910390fd5b805181602001fd5b63150b7a0260e01b7bffffffffffffffffffffffffffffffffffffffffffffffffffffffff1916817bffffffffffffffffffffffffffffffffffffffffffffffffffffffff19161491505061396b565b600190505b949350505050565b60007f01ffc9a7000000000000000000000000000000000000000000000000000000007bffffffffffffffffffffffffffffffffffffffffffffffffffffffff1916827bffffffffffffffffffffffffffffffffffffffffffffffffffffffff1916149050919050565b6139e8838383613ceb565b600073ffffffffffffffffffffffffffffffffffffffff168373ffffffffffffffffffffffffffffffffffffffff1603613a2a57613a2581613cf0565b613a69565b8173ffffffffffffffffffffffffffffffffffffffff168373ffffffffffffffffffffffffffffffffffffffff1614613a6857613a678382613d39565b5b5b600073ffffffffffffffffffffffffffffffffffffffff168273ffffffffffffffffffffffffffffffffffffffff1603613aab57613aa681613ea6565b613aea565b8273ffffffffffffffffffffffffffffffffffffffff168273ffffffffffffffffffffffffffffffffffffffff1614613ae957613ae88282613f77565b5b5b505050565b600073ffffffffffffffffffffffffffffffffffffffff168273ffffffffffffffffffffffffffffffffffffffff1603613b5e576040517f08c379a0000000000000000000000000000000000000000000000000000000008152600401613b55906158b8565b60405180910390fd5b613b6781612be4565b15613ba7576040517f08c379a0000000000000000000000000000000000000000000000000000000008152600401613b9e90615924565b60405180910390fd5b613bb360008383613734565b6001600360008473ffffffffffffffffffffffffffffffffffffffff1673ffffffffffffffffffffffffffffffffffffffff1681526020019081526020016000206000828254613c039190614dfb565b92505081905550816002600083815260200190815260200160002060006101000a81548173ffffffffffffffffffffffffffffffffffffffff021916908373ffffffffffffffffffffffffffffffffffffffff160217905550808273ffffffffffffffffffffffffffffffffffffffff16600073ffffffffffffffffffffffffffffffffffffffff167fddf252ad1be2c89b69c2b068fc378daa952ba7f163c4a11628f55a4df523b3ef60405160405180910390a4613cc46000838361378c565b5050565b6000808273ffffffffffffffffffffffffffffffffffffffff163b119050919050565b505050565b6008805490506009600083815260200190815260200160002081905550600881908060018154018082558091505060019003906000526020600020016000909190919091505550565b60006001613d4684611d59565b613d5091906154ee565b9050600060076000848152602001908152602001600020549050818114613e35576000600660008673ffffffffffffffffffffffffffffffffffffffff1673ffffffffffffffffffffffffffffffffffffffff168152602001908152602001600020600084815260200190815260200160002054905080600660008773ffffffffffffffffffffffffffffffffffffffff1673ffffffffffffffffffffffffffffffffffffffff168152602001908152602001600020600084815260200190815260200160002081905550816007600083815260200190815260200160002081905550505b6007600084815260200190815260200160002060009055600660008573ffffffffffffffffffffffffffffffffffffffff1673ffffffffffffffffffffffffffffffffffffffff16815260200190815260200160002060008381526020019081526020016000206000905550505050565b60006001600880549050613eba91906154ee565b9050600060096000848152602001908152602001600020549050600060088381548110613eea57613ee9614cc3565b5b906000526020600020015490508060088381548110613f0c57613f0b614cc3565b5b906000526020600020018190555081600960008381526020019081526020016000208190555060096000858152602001908152602001600020600090556008805480613f5b57613f5a615944565b5b6001900381819060005260206000200160009055905550505050565b6000613f8283611d59565b905081600660008573ffffffffffffffffffffffffffffffffffffffff1673ffffffffffffffffffffffffffffffffffffffff168152602001908152602001600020600083815260200190815260200160002081905550806007600084815260200190815260200160002081905550505050565b5080546000825590600052602060002090810190614014919061413d565b50565b8280548282559060005260206000209081019282156140a6579160200282015b828111156140a557823573ffffffffffffffffffffffffffffffffffffffff168260006101000a81548173ffffffffffffffffffffffffffffffffffffffff021916908373ffffffffffffffffffffffffffffffffffffffff16021790555091602001919060010190614037565b5b5090506140b3919061413d565b5090565b8280546140c390614906565b90600052602060002090601f0160209004810192826140e5576000855561412c565b82601f106140fe57805160ff191683800117855561412c565b8280016001018555821561412c579182015b8281111561412b578251825591602001919060010190614110565b5b509050614139919061413d565b5090565b5b8082111561415657600081600090555060010161413e565b5090565b6000604051905090565b600080fd5b600080fd5b60007fffffffff0000000000000000000000000000000000000000000000000000000082169050919050565b6141a38161416e565b81146141ae57600080fd5b50565b6000813590506141c08161419a565b92915050565b6000602082840312156141dc576141db614164565b5b60006141ea848285016141b1565b91505092915050565b60008115159050919050565b614208816141f3565b82525050565b600060208201905061422360008301846141ff565b92915050565b600081519050919050565b600082825260208201905092915050565b60005b83811015614263578082015181840152602081019050614248565b83811115614272576000848401525b50505050565b6000601f19601f8301169050919050565b600061429482614229565b61429e8185614234565b93506142ae818560208601614245565b6142b781614278565b840191505092915050565b600060208201905081810360008301526142dc8184614289565b905092915050565b6000819050919050565b6142f7816142e4565b811461430257600080fd5b50565b600081359050614314816142ee565b92915050565b6000602082840312156143305761432f614164565b5b600061433e84828501614305565b91505092915050565b600073ffffffffffffffffffffffffffffffffffffffff82169050919050565b600061437282614347565b9050919050565b61438281614367565b82525050565b600060208201905061439d6000830184614379565b92915050565b6143ac81614367565b81146143b757600080fd5b50565b6000813590506143c9816143a3565b92915050565b600080604083850312156143e6576143e5614164565b5b60006143f4858286016143ba565b925050602061440585828601614305565b9150509250929050565b600080fd5b600080fd5b600080fd5b60008083601f8401126144345761443361440f565b5b8235905067ffffffffffffffff81111561445157614450614414565b5b60208301915083602082028301111561446d5761446c614419565b5b9250929050565b6000806020838503121561448b5761448a614164565b5b600083013567ffffffffffffffff8111156144a9576144a8614169565b5b6144b58582860161441e565b92509250509250929050565b6144ca816142e4565b82525050565b60006020820190506144e560008301846144c1565b92915050565b60006020828403121561450157614500614164565b5b600061450f848285016143ba565b91505092915050565b60008060006060848603121561453157614530614164565b5b600061453f868287016143ba565b9350506020614550868287016143ba565b925050604061456186828701614305565b9150509250925092565b614574816141f3565b811461457f57600080fd5b50565b6000813590506145918161456b565b92915050565b6000602082840312156145ad576145ac614164565b5b60006145bb84828501614582565b91505092915050565b600081519050919050565b600082825260208201905092915050565b6000819050602082019050919050565b6145f9816142e4565b82525050565b600061460b83836145f0565b60208301905092915050565b6000602082019050919050565b600061462f826145c4565b61463981856145cf565b9350614644836145e0565b8060005b8381101561467557815161465c88826145ff565b975061466783614617565b925050600181019050614648565b5085935050505092915050565b6000602082019050818103600083015261469c8184614624565b905092915050565b600080604083850312156146bb576146ba614164565b5b60006146c9858286016143ba565b92505060206146da85828601614582565b9150509250929050565b600080fd5b7f4e487b7100000000000000000000000000000000000000000000000000000000600052604160045260246000fd5b61472182614278565b810181811067ffffffffffffffff821117156147405761473f6146e9565b5b80604052505050565b600061475361415a565b905061475f8282614718565b919050565b600067ffffffffffffffff82111561477f5761477e6146e9565b5b61478882614278565b9050602081019050919050565b82818337600083830152505050565b60006147b76147b284614764565b614749565b9050828152602081018484840111156147d3576147d26146e4565b5b6147de848285614795565b509392505050565b600082601f8301126147fb576147fa61440f565b5b813561480b8482602086016147a4565b91505092915050565b6000806000806080858703121561482e5761482d614164565b5b600061483c878288016143ba565b945050602061484d878288016143ba565b935050604061485e87828801614305565b925050606085013567ffffffffffffffff81111561487f5761487e614169565b5b61488b878288016147e6565b91505092959194509250565b600080604083850312156148ae576148ad614164565b5b60006148bc858286016143ba565b92505060206148cd858286016143ba565b9150509250929050565b7f4e487b7100000000000000000000000000000000000000000000000000000000600052602260045260246000fd5b6000600282049050600182168061491e57607f821691505b602082108103614931576149306148d7565b5b50919050565b7f4552433732313a20617070726f76656420717565727920666f72206e6f6e657860008201527f697374656e7420746f6b656e0000000000000000000000000000000000000000602082015250565b6000614993602c83614234565b915061499e82614937565b604082019050919050565b600060208201905081810360008301526149c281614986565b9050919050565b7f4552433732313a20617070726f76616c20746f2063757272656e74206f776e6560008201527f7200000000000000000000000000000000000000000000000000000000000000602082015250565b6000614a25602183614234565b9150614a30826149c9565b604082019050919050565b60006020820190508181036000830152614a5481614a18565b9050919050565b7f4552433732313a20617070726f76652063616c6c6572206973206e6f74206f7760008201527f6e6572206e6f7220617070726f76656420666f7220616c6c0000000000000000602082015250565b6000614ab7603883614234565b9150614ac282614a5b565b604082019050919050565b60006020820190508181036000830152614ae681614aaa565b9050919050565b7f4f776e61626c653a2063616c6c6572206973206e6f7420746865206f776e6572600082015250565b6000614b23602083614234565b9150614b2e82614aed565b602082019050919050565b60006020820190508181036000830152614b5281614b16565b9050919050565b7f4552433732313a207472616e736665722063616c6c6572206973206e6f74206f60008201527f776e6572206e6f7220617070726f766564000000000000000000000000000000602082015250565b6000614bb5603183614234565b9150614bc082614b59565b604082019050919050565b60006020820190508181036000830152614be481614ba8565b9050919050565b7f455243373231456e756d657261626c653a206f776e657220696e646578206f7560008201527f74206f6620626f756e6473000000000000000000000000000000000000000000602082015250565b6000614c47602b83614234565b9150614c5282614beb565b604082019050919050565b60006020820190508181036000830152614c7681614c3a565b9050919050565b600081905092915050565b50565b6000614c98600083614c7d565b9150614ca382614c88565b600082019050919050565b6000614cb982614c8b565b9150819050919050565b7f4e487b7100000000000000000000000000000000000000000000000000000000600052603260045260246000fd5b7f4e487b7100000000000000000000000000000000000000000000000000000000600052601160045260246000fd5b6000614d2c826142e4565b91507fffffffffffffffffffffffffffffffffffffffffffffffffffffffffffffffff8203614d5e57614d5d614cf2565b5b600182019050919050565b7f455243373231456e756d657261626c653a20676c6f62616c20696e646578206f60008201527f7574206f6620626f756e64730000000000000000000000000000000000000000602082015250565b6000614dc5602c83614234565b9150614dd082614d69565b604082019050919050565b60006020820190508181036000830152614df481614db8565b9050919050565b6000614e06826142e4565b9150614e11836142e4565b9250827fffffffffffffffffffffffffffffffffffffffffffffffffffffffffffffffff03821115614e4657614e45614cf2565b5b828201905092915050565b7f45786365656473204d617820537570706c790000000000000000000000000000600082015250565b6000614e87601283614234565b9150614e9282614e51565b602082019050919050565b60006020820190508181036000830152614eb681614e7a565b9050919050565b6000614ec8826142e4565b9150614ed3836142e4565b9250817fffffffffffffffffffffffffffffffffffffffffffffffffffffffffffffffff0483118215151615614f0c57614f0b614cf2565b5b828202905092915050565b7f496e73756666696369656e742046756e64730000000000000000000000000000600082015250565b6000614f4d601283614234565b9150614f5882614f17565b602082019050919050565b60006020820190508181036000830152614f7c81614f40565b9050919050565b7f55736572204973204e6f742057686974656c6973746564000000000000000000600082015250565b6000614fb9601783614234565b9150614fc482614f83565b602082019050919050565b60006020820190508181036000830152614fe881614fac565b9050919050565b7f4552433732313a206f776e657220717565727920666f72206e6f6e657869737460008201527f656e7420746f6b656e0000000000000000000000000000000000000000000000602082015250565b600061504b602983614234565b915061505682614fef565b604082019050919050565b6000602082019050818103600083015261507a8161503e565b9050919050565b7f4552433732313a2062616c616e636520717565727920666f7220746865207a6560008201527f726f206164647265737300000000000000000000000000000000000000000000602082015250565b60006150dd602a83614234565b91506150e882615081565b604082019050919050565b6000602082019050818103600083015261510c816150d0565b9050919050565b7f4552433732314d657461646174613a2055524920717565727920666f72206e6f60008201527f6e6578697374656e7420746f6b656e0000000000000000000000000000000000602082015250565b600061516f602f83614234565b915061517a82615113565b604082019050919050565b6000602082019050818103600083015261519e81615162565b9050919050565b600081905092915050565b60006151bb82614229565b6151c581856151a5565b93506151d5818560208601614245565b80840191505092915050565b60008190508160005260206000209050919050565b6000815461520381614906565b61520d81866151a5565b9450600182166000811461522857600181146152395761526c565b60ff1983168652818601935061526c565b615242856151e1565b60005b8381101561526457815481890152600182019150602081019050615245565b838801955050505b50505092915050565b600061528182866151b0565b915061528d82856151b0565b915061529982846151f6565b9150819050949350505050565b7f4f776e61626c653a206e6577206f776e657220697320746865207a65726f206160008201527f6464726573730000000000000000000000000000000000000000000000000000602082015250565b6000615302602683614234565b915061530d826152a6565b604082019050919050565b60006020820190508181036000830152615331816152f5565b9050919050565b7f4552433732313a206f70657261746f7220717565727920666f72206e6f6e657860008201527f697374656e7420746f6b656e0000000000000000000000000000000000000000602082015250565b6000615394602c83614234565b915061539f82615338565b604082019050919050565b600060208201905081810360008301526153c381615387565b9050919050565b7f4552433732313a207472616e736665722066726f6d20696e636f72726563742060008201527f6f776e6572000000000000000000000000000000000000000000000000000000602082015250565b6000615426602583614234565b9150615431826153ca565b604082019050919050565b6000602082019050818103600083015261545581615419565b9050919050565b7f4552433732313a207472616e7366657220746f20746865207a65726f2061646460008201527f7265737300000000000000000000000000000000000000000000000000000000602082015250565b60006154b8602483614234565b91506154c38261545c565b604082019050919050565b600060208201905081810360008301526154e7816154ab565b9050919050565b60006154f9826142e4565b9150615504836142e4565b92508282101561551757615516614cf2565b5b828203905092915050565b7f5061757361626c653a206e6f7420706175736564000000000000000000000000600082015250565b6000615558601483614234565b915061556382615522565b602082019050919050565b600060208201905081810360008301526155878161554b565b9050919050565b7f5061757361626c653a2070617573656400000000000000000000000000000000600082015250565b60006155c4601083614234565b91506155cf8261558e565b602082019050919050565b600060208201905081810360008301526155f3816155b7565b9050919050565b7f4552433732313a20617070726f766520746f2063616c6c657200000000000000600082015250565b6000615630601983614234565b915061563b826155fa565b602082019050919050565b6000602082019050818103600083015261565f81615623565b9050919050565b7f4552433732313a207472616e7366657220746f206e6f6e20455243373231526560008201527f63656976657220696d706c656d656e7465720000000000000000000000000000602082015250565b60006156c2603283614234565b91506156cd82615666565b604082019050919050565b600060208201905081810360008301526156f1816156b5565b9050919050565b7f4e487b7100000000000000000000000000000000000000000000000000000000600052601260045260246000fd5b6000615732826142e4565b915061573d836142e4565b92508261574d5761574c6156f8565b5b828204905092915050565b6000615763826142e4565b915061576e836142e4565b92508261577e5761577d6156f8565b5b828206905092915050565b600081519050919050565b600082825260208201905092915050565b60006157b082615789565b6157ba8185615794565b93506157ca818560208601614245565b6157d381614278565b840191505092915050565b60006080820190506157f36000830187614379565b6158006020830186614379565b61580d60408301856144c1565b818103606083015261581f81846157a5565b905095945050505050565b6000815190506158398161419a565b92915050565b60006020828403121561585557615854614164565b5b60006158638482850161582a565b91505092915050565b7f4552433732313a206d696e7420746f20746865207a65726f2061646472657373600082015250565b60006158a2602083614234565b91506158ad8261586c565b602082019050919050565b600060208201905081810360008301526158d181615895565b9050919050565b7f4552433732313a20746f6b656e20616c7265616479206d696e74656400000000600082015250565b600061590e601c83614234565b9150615919826158d8565b602082019050919050565b6000602082019050818103600083015261593d81615901565b9050919050565b7f4e487b7100000000000000000000000000000000000000000000000000000000600052603160045260246000fdfe68747470733a2f2f676174657761792e70696e6174612e636c6f75642f697066732f516d5a466a6f77664c73455835625262526776396f6a764b436779546a6f71524236516b397871563734763842692f68747470733a2f2f676174657761792e70696e6174612e636c6f75642f697066732f516d4e63315866456636554e6658527861356841734e6d43736b3155556b32444e517033435574637971447373662f68747470733a2f2f676174657761792e70696e6174612e636c6f75642f697066732f516d5a6e625059767a6174586655624d6b315855554133557146716b6f6d71427131426d75454c7767507a4a54682f68747470733a2f2f676174657761792e70696e6174612e636c6f75642f697066732f516d6234436d756247316d3144576253635772416f4c5161566d63433477593642535532625336555871367367782fa2646970667358221220c0fedf6969c4f7f27ced88f376f94ba1a492128dad1d49e2e7717e0dde4a4ab764736f6c634300080e0033",
  "immutableReferences": {},
  "source": "// SPDX-License-Identifier: MIT\r\npragma solidity ^0.8.7;\r\n\r\nimport \"@openzeppelin/contracts/token/ERC721/ERC721.sol\";\r\nimport \"@openzeppelin/contracts/token/ERC721/extensions/ERC721Enumerable.sol\";\r\nimport \"@openzeppelin/contracts/token/ERC721/extensions/ERC721URIStorage.sol\";\r\nimport \"@openzeppelin/contracts/security/Pausable.sol\";\r\nimport \"@openzeppelin/contracts/access/Ownable.sol\";\r\nimport \"@openzeppelin/contracts/utils/Counters.sol\";\r\n\r\ncontract WagmiClub is\r\n    ERC721,\r\n    ERC721Enumerable,\r\n    ERC721URIStorage,\r\n    Pausable,\r\n    Ownable\r\n{\r\n    using Strings for uint256;\r\n    using Counters for Counters.Counter;\r\n\r\n    string public baseURI;\r\n    string public baseExtension = \".json\";\r\n    Counters.Counter private _tokenIdCounter;\r\n\r\n    uint256[999] public ids;\r\n    uint256 private index;\r\n\r\n    uint256 public totalSuperNova;\r\n    uint256 public totalNova;\r\n    uint256 public totalAurora;\r\n    uint256 public totalGenesis;\r\n\r\n    uint256 public costSuperNova = 0 ether;\r\n    uint256 public costNova = 0 ether;\r\n    uint256 public costAurora = 0 ether;\r\n    uint256 public costGenesis = 0 ether;\r\n\r\n    uint256 public maxSupply = 999;\r\n    bool public onlyWhitelisted = true;\r\n\r\n    address[] public whitelistSuperNova;\r\n    address[] public whitelistNova;\r\n    address[] public whitelistAurora;\r\n    address[] public whitelistGenesis;\r\n\r\n    mapping(address => uint256) public addressMintedBalance;\r\n\r\n    constructor() ERC721(\"Wagmi Club\", \"WC\") {}\r\n\r\n    function _baseURI() internal view virtual override returns (string memory) {\r\n        return baseURI;\r\n    }\r\n\r\n    function mintSuperNova(uint256 mintAmount) public payable {\r\n        uint256 supply = totalSupply();\r\n        require(supply + mintAmount <= maxSupply, \"Exceeds Max Supply\");\r\n        require(msg.value >= costSuperNova * mintAmount, \"Insufficient Funds\");\r\n\r\n        setBaseURI(\r\n            \"https://gateway.pinata.cloud/ipfs/Qmb4CmubG1m1DWbScWrAoLQaVmcC4wY6BSU2bS6UXq6sgx/\"\r\n        );\r\n\r\n        if (msg.sender != owner()) {\r\n            if (onlyWhitelisted == true) {\r\n                require(isSuperNova(msg.sender), \"User Is Not Whitelisted\");\r\n            }\r\n        }\r\n        uint256 tokenId = 0;\r\n        totalSuperNova += mintAmount;\r\n        _safeMint(msg.sender, tokenId + totalSuperNova);\r\n    }\r\n\r\n    function mintNova(uint256 mintAmount) public payable {\r\n        uint256 supply = totalSupply();\r\n        require(supply + mintAmount <= maxSupply, \"Exceeds Max Supply\");\r\n        require(msg.value >= costNova * mintAmount, \"Insufficient Funds\");\r\n\r\n        setBaseURI(\r\n            \"https://gateway.pinata.cloud/ipfs/QmZnbPYvzatXfUbMk1XUUA3UqFqkomqBq1BmuELwgPzJTh/\"\r\n        );\r\n\r\n        if (msg.sender != owner()) {\r\n            if (onlyWhitelisted == true) {\r\n                require(isNova(msg.sender), \"User Is Not Whitelisted\");\r\n            }\r\n        }\r\n        uint256 tokenId = 9;\r\n        totalNova += mintAmount;\r\n        _safeMint(msg.sender, tokenId + totalNova);\r\n    }\r\n\r\n    function mintAurora(uint256 mintAmount) public payable {\r\n        uint256 supply = totalSupply();\r\n        require(supply + mintAmount <= maxSupply, \"Exceeds Max Supply\");\r\n        require(msg.value >= costAurora * mintAmount, \"Insufficient Funds\");\r\n\r\n        setBaseURI(\r\n            \"https://gateway.pinata.cloud/ipfs/QmNc1XfEf6UNfXRxa5hAsNmCsk1UUk2DNQp3CUtcyqDssf/\"\r\n        );\r\n\r\n        if (msg.sender != owner()) {\r\n            if (onlyWhitelisted == true) {\r\n                require(isAurora(msg.sender), \"User Is Not Whitelisted\");\r\n            }\r\n        }\r\n        uint256 tokenId = 99;\r\n        totalAurora += mintAmount;\r\n        _safeMint(msg.sender, tokenId + totalAurora);\r\n    }\r\n\r\n    function mintGenesis(uint256 mintAmount) public payable {\r\n        uint256 supply = totalSupply();\r\n        require(supply + mintAmount <= maxSupply, \"Exceeds Max Supply\");\r\n        require(msg.value >= costGenesis * mintAmount, \"Insufficient Funds\");\r\n\r\n        setBaseURI(\r\n            \"https://gateway.pinata.cloud/ipfs/QmZFjowfLsEX5bRbRgv9ojvKCgyTjoqRB6Qk9xqV74v8Bi/\"\r\n        );\r\n\r\n        if (msg.sender != owner()) {\r\n            if (onlyWhitelisted == true) {\r\n                require(isGenesis(msg.sender), \"User Is Not Whitelisted\");\r\n            }\r\n        }\r\n        uint256 tokenId = 449;\r\n        totalGenesis += mintAmount;\r\n        _safeMint(msg.sender, tokenId + totalGenesis);\r\n    }\r\n\r\n    function isSuperNova(address _user) public view returns (bool) {\r\n        for (uint256 i = 0; i < whitelistSuperNova.length; i++) {\r\n            if (whitelistSuperNova[i] == _user) {\r\n                return true;\r\n            }\r\n        }\r\n        return false;\r\n    }\r\n\r\n    function isNova(address _user) public view returns (bool) {\r\n        for (uint256 i = 0; i < whitelistNova.length; i++) {\r\n            if (whitelistNova[i] == _user) {\r\n                return true;\r\n            }\r\n        }\r\n        return false;\r\n    }\r\n\r\n    function isAurora(address _user) public view returns (bool) {\r\n        for (uint256 i = 0; i < whitelistAurora.length; i++) {\r\n            if (whitelistAurora[i] == _user) {\r\n                return true;\r\n            }\r\n        }\r\n        return false;\r\n    }\r\n\r\n    function isGenesis(address _user) public view returns (bool) {\r\n        for (uint256 i = 0; i < whitelistGenesis.length; i++) {\r\n            if (whitelistGenesis[i] == _user) {\r\n                return true;\r\n            }\r\n        }\r\n        return false;\r\n    }\r\n\r\n    function _beforeTokenTransfer(\r\n        address from,\r\n        address to,\r\n        uint256 tokenId\r\n    ) internal override(ERC721, ERC721Enumerable) whenNotPaused {\r\n        super._beforeTokenTransfer(from, to, tokenId);\r\n    }\r\n\r\n    function setBaseURI(string memory _newBaseURI) private {\r\n        baseURI = _newBaseURI;\r\n    }\r\n\r\n    function _burn(uint256 tokenId)\r\n        internal\r\n        override(ERC721, ERC721URIStorage)\r\n    {\r\n        super._burn(tokenId);\r\n    }\r\n\r\n    function tokenURI(uint256 tokenId)\r\n        public\r\n        view\r\n        virtual\r\n        override(ERC721, ERC721URIStorage)\r\n        returns (string memory)\r\n    {\r\n        require(\r\n            _exists(tokenId),\r\n            \"ERC721Metadata: URI query for nonexistent token\"\r\n        );\r\n        string memory currentBaseURI = _baseURI();\r\n        return\r\n            bytes(currentBaseURI).length > 0\r\n                ? string(\r\n                    abi.encodePacked(\r\n                        currentBaseURI,\r\n                        Strings.toString(tokenId),\r\n                        baseExtension\r\n                    )\r\n                )\r\n                : \"\";\r\n    }\r\n\r\n    function supportsInterface(bytes4 interfaceId)\r\n        public\r\n        view\r\n        override(ERC721, ERC721Enumerable)\r\n        returns (bool)\r\n    {\r\n        return super.supportsInterface(interfaceId);\r\n    }\r\n\r\n    function walletOfOwner(address _owner)\r\n        public\r\n        view\r\n        returns (uint256[] memory)\r\n    {\r\n        uint256 ownerTokenCount = balanceOf(_owner);\r\n        uint256[] memory tokenIds = new uint256[](ownerTokenCount);\r\n        for (uint256 i; i < ownerTokenCount; i++) {\r\n            tokenIds[i] = tokenOfOwnerByIndex(_owner, i);\r\n        }\r\n        return tokenIds;\r\n    }\r\n\r\n    function withdraw() external payable onlyOwner {\r\n        (bool success, ) = payable(msg.sender).call{\r\n            value: address(this).balance\r\n        }(\"\");\r\n        require(success);\r\n    }\r\n\r\n    function setOnlyWhitelisted(bool _state) public onlyOwner {\r\n        onlyWhitelisted = _state;\r\n    }\r\n\r\n    function goSuperNova(address[] calldata _users) public onlyOwner {\r\n        delete whitelistSuperNova;\r\n        whitelistSuperNova = _users;\r\n    }\r\n\r\n    function goNova(address[] calldata _users) public onlyOwner {\r\n        delete whitelistNova;\r\n        whitelistNova = _users;\r\n    }\r\n\r\n    function goAurora(address[] calldata _users) public onlyOwner {\r\n        delete whitelistAurora;\r\n        whitelistAurora = _users;\r\n    }\r\n\r\n    function goGenesis(address[] calldata _users) public onlyOwner {\r\n        delete whitelistGenesis;\r\n        whitelistGenesis = _users;\r\n    }\r\n\r\n    function setCostSuperNova(uint256 _newCostSuperNova) public onlyOwner {\r\n        costSuperNova = _newCostSuperNova;\r\n    }\r\n\r\n    function setCostNova(uint256 _newCostNova) public onlyOwner {\r\n        costNova = _newCostNova;\r\n    }\r\n\r\n    function setCostAurora(uint256 _newCostAurora) public onlyOwner {\r\n        costAurora = _newCostAurora;\r\n    }\r\n\r\n    function setCostGenesis(uint256 _newCostGenesis) public onlyOwner {\r\n        costGenesis = _newCostGenesis;\r\n    }\r\n\r\n    function pause() public onlyOwner {\r\n        _pause();\r\n    }\r\n\r\n    function unpause() public onlyOwner {\r\n        _unpause();\r\n    }\r\n}\r\n",
  "sourcePath": "E:\\P_Work\\Blockchain\\dnfa\\src\\contracts\\WagmiClub.sol",
  "compiler": {
    "name": "solc",
    "version": "0.8.14+commit.80d49f37.Emscripten.clang"
  },
  "schemaVersion": "3.4.3",
  "updatedAt": "2022-07-28T13:38:07.435Z",
  "devdoc": {
    "kind": "dev",
    "methods": {
      "approve(address,uint256)": {
        "details": "See {IERC721-approve}."
      },
      "balanceOf(address)": {
        "details": "See {IERC721-balanceOf}."
      },
      "getApproved(uint256)": {
        "details": "See {IERC721-getApproved}."
      },
      "isApprovedForAll(address,address)": {
        "details": "See {IERC721-isApprovedForAll}."
      },
      "name()": {
        "details": "See {IERC721Metadata-name}."
      },
      "owner()": {
        "details": "Returns the address of the current owner."
      },
      "ownerOf(uint256)": {
        "details": "See {IERC721-ownerOf}."
      },
      "paused()": {
        "details": "Returns true if the contract is paused, and false otherwise."
      },
      "renounceOwnership()": {
        "details": "Leaves the contract without owner. It will not be possible to call `onlyOwner` functions anymore. Can only be called by the current owner. NOTE: Renouncing ownership will leave the contract without an owner, thereby removing any functionality that is only available to the owner."
      },
      "safeTransferFrom(address,address,uint256)": {
        "details": "See {IERC721-safeTransferFrom}."
      },
      "safeTransferFrom(address,address,uint256,bytes)": {
        "details": "See {IERC721-safeTransferFrom}."
      },
      "setApprovalForAll(address,bool)": {
        "details": "See {IERC721-setApprovalForAll}."
      },
      "symbol()": {
        "details": "See {IERC721Metadata-symbol}."
      },
      "tokenByIndex(uint256)": {
        "details": "See {IERC721Enumerable-tokenByIndex}."
      },
      "tokenOfOwnerByIndex(address,uint256)": {
        "details": "See {IERC721Enumerable-tokenOfOwnerByIndex}."
      },
      "totalSupply()": {
        "details": "See {IERC721Enumerable-totalSupply}."
      },
      "transferFrom(address,address,uint256)": {
        "details": "See {IERC721-transferFrom}."
      },
      "transferOwnership(address)": {
        "details": "Transfers ownership of the contract to a new account (`newOwner`). Can only be called by the current owner."
      }
    },
    "version": 1
  },
  "userdoc": {
    "kind": "user",
    "methods": {},
    "version": 1
  }
}