{
  "contractName": "WagmiClub",
  "abi": [
    {
      "inputs": [],
      "stateMutability": "nonpayable",
      "type": "constructor"
    },
    {
      "anonymous": false,
      "inputs": [
        {
          "indexed": true,
          "internalType": "address",
          "name": "owner",
          "type": "address"
        },
        {
          "indexed": true,
          "internalType": "address",
          "name": "approved",
          "type": "address"
        },
        {
          "indexed": true,
          "internalType": "uint256",
          "name": "tokenId",
          "type": "uint256"
        }
      ],
      "name": "Approval",
      "type": "event"
    },
    {
      "anonymous": false,
      "inputs": [
        {
          "indexed": true,
          "internalType": "address",
          "name": "owner",
          "type": "address"
        },
        {
          "indexed": true,
          "internalType": "address",
          "name": "operator",
          "type": "address"
        },
        {
          "indexed": false,
          "internalType": "bool",
          "name": "approved",
          "type": "bool"
        }
      ],
      "name": "ApprovalForAll",
      "type": "event"
    },
    {
      "anonymous": false,
      "inputs": [
        {
          "indexed": true,
          "internalType": "address",
          "name": "previousOwner",
          "type": "address"
        },
        {
          "indexed": true,
          "internalType": "address",
          "name": "newOwner",
          "type": "address"
        }
      ],
      "name": "OwnershipTransferred",
      "type": "event"
    },
    {
      "anonymous": false,
      "inputs": [
        {
          "indexed": false,
          "internalType": "address",
          "name": "account",
          "type": "address"
        }
      ],
      "name": "Paused",
      "type": "event"
    },
    {
      "anonymous": false,
      "inputs": [
        {
          "indexed": true,
          "internalType": "address",
          "name": "from",
          "type": "address"
        },
        {
          "indexed": true,
          "internalType": "address",
          "name": "to",
          "type": "address"
        },
        {
          "indexed": true,
          "internalType": "uint256",
          "name": "tokenId",
          "type": "uint256"
        }
      ],
      "name": "Transfer",
      "type": "event"
    },
    {
      "anonymous": false,
      "inputs": [
        {
          "indexed": false,
          "internalType": "address",
          "name": "account",
          "type": "address"
        }
      ],
      "name": "Unpaused",
      "type": "event"
    },
    {
      "inputs": [
        {
          "internalType": "address",
          "name": "",
          "type": "address"
        }
      ],
      "name": "addressMintedBalance",
      "outputs": [
        {
          "internalType": "uint256",
          "name": "",
          "type": "uint256"
        }
      ],
      "stateMutability": "view",
      "type": "function"
    },
    {
      "inputs": [
        {
          "internalType": "address",
          "name": "to",
          "type": "address"
        },
        {
          "internalType": "uint256",
          "name": "tokenId",
          "type": "uint256"
        }
      ],
      "name": "approve",
      "outputs": [],
      "stateMutability": "nonpayable",
      "type": "function"
    },
    {
      "inputs": [
        {
          "internalType": "address",
          "name": "owner",
          "type": "address"
        }
      ],
      "name": "balanceOf",
      "outputs": [
        {
          "internalType": "uint256",
          "name": "",
          "type": "uint256"
        }
      ],
      "stateMutability": "view",
      "type": "function"
    },
    {
      "inputs": [],
      "name": "baseExtension",
      "outputs": [
        {
          "internalType": "string",
          "name": "",
          "type": "string"
        }
      ],
      "stateMutability": "view",
      "type": "function"
    },
    {
      "inputs": [],
      "name": "baseURI",
      "outputs": [
        {
          "internalType": "string",
          "name": "",
          "type": "string"
        }
      ],
      "stateMutability": "view",
      "type": "function"
    },
    {
      "inputs": [],
      "name": "costAurora",
      "outputs": [
        {
          "internalType": "uint256",
          "name": "",
          "type": "uint256"
        }
      ],
      "stateMutability": "view",
      "type": "function"
    },
    {
      "inputs": [],
      "name": "costGenesis",
      "outputs": [
        {
          "internalType": "uint256",
          "name": "",
          "type": "uint256"
        }
      ],
      "stateMutability": "view",
      "type": "function"
    },
    {
      "inputs": [],
      "name": "costNova",
      "outputs": [
        {
          "internalType": "uint256",
          "name": "",
          "type": "uint256"
        }
      ],
      "stateMutability": "view",
      "type": "function"
    },
    {
      "inputs": [],
      "name": "costSuperNova",
      "outputs": [
        {
          "internalType": "uint256",
          "name": "",
          "type": "uint256"
        }
      ],
      "stateMutability": "view",
      "type": "function"
    },
    {
      "inputs": [
        {
          "internalType": "uint256",
          "name": "tokenId",
          "type": "uint256"
        }
      ],
      "name": "getApproved",
      "outputs": [
        {
          "internalType": "address",
          "name": "",
          "type": "address"
        }
      ],
      "stateMutability": "view",
      "type": "function"
    },
    {
      "inputs": [
        {
          "internalType": "uint256",
          "name": "",
          "type": "uint256"
        }
      ],
      "name": "ids",
      "outputs": [
        {
          "internalType": "uint256",
          "name": "",
          "type": "uint256"
        }
      ],
      "stateMutability": "view",
      "type": "function"
    },
    {
      "inputs": [
        {
          "internalType": "address",
          "name": "owner",
          "type": "address"
        },
        {
          "internalType": "address",
          "name": "operator",
          "type": "address"
        }
      ],
      "name": "isApprovedForAll",
      "outputs": [
        {
          "internalType": "bool",
          "name": "",
          "type": "bool"
        }
      ],
      "stateMutability": "view",
      "type": "function"
    },
    {
      "inputs": [],
      "name": "maxSupply",
      "outputs": [
        {
          "internalType": "uint256",
          "name": "",
          "type": "uint256"
        }
      ],
      "stateMutability": "view",
      "type": "function"
    },
    {
      "inputs": [],
      "name": "name",
      "outputs": [
        {
          "internalType": "string",
          "name": "",
          "type": "string"
        }
      ],
      "stateMutability": "view",
      "type": "function"
    },
    {
      "inputs": [],
      "name": "onlyWhitelisted",
      "outputs": [
        {
          "internalType": "bool",
          "name": "",
          "type": "bool"
        }
      ],
      "stateMutability": "view",
      "type": "function"
    },
    {
      "inputs": [],
      "name": "owner",
      "outputs": [
        {
          "internalType": "address",
          "name": "",
          "type": "address"
        }
      ],
      "stateMutability": "view",
      "type": "function"
    },
    {
      "inputs": [
        {
          "internalType": "uint256",
          "name": "tokenId",
          "type": "uint256"
        }
      ],
      "name": "ownerOf",
      "outputs": [
        {
          "internalType": "address",
          "name": "",
          "type": "address"
        }
      ],
      "stateMutability": "view",
      "type": "function"
    },
    {
      "inputs": [],
      "name": "paused",
      "outputs": [
        {
          "internalType": "bool",
          "name": "",
          "type": "bool"
        }
      ],
      "stateMutability": "view",
      "type": "function"
    },
    {
      "inputs": [],
      "name": "renounceOwnership",
      "outputs": [],
      "stateMutability": "nonpayable",
      "type": "function"
    },
    {
      "inputs": [
        {
          "internalType": "address",
          "name": "from",
          "type": "address"
        },
        {
          "internalType": "address",
          "name": "to",
          "type": "address"
        },
        {
          "internalType": "uint256",
          "name": "tokenId",
          "type": "uint256"
        }
      ],
      "name": "safeTransferFrom",
      "outputs": [],
      "stateMutability": "nonpayable",
      "type": "function"
    },
    {
      "inputs": [
        {
          "internalType": "address",
          "name": "from",
          "type": "address"
        },
        {
          "internalType": "address",
          "name": "to",
          "type": "address"
        },
        {
          "internalType": "uint256",
          "name": "tokenId",
          "type": "uint256"
        },
        {
          "internalType": "bytes",
          "name": "_data",
          "type": "bytes"
        }
      ],
      "name": "safeTransferFrom",
      "outputs": [],
      "stateMutability": "nonpayable",
      "type": "function"
    },
    {
      "inputs": [
        {
          "internalType": "address",
          "name": "operator",
          "type": "address"
        },
        {
          "internalType": "bool",
          "name": "approved",
          "type": "bool"
        }
      ],
      "name": "setApprovalForAll",
      "outputs": [],
      "stateMutability": "nonpayable",
      "type": "function"
    },
    {
      "inputs": [],
      "name": "symbol",
      "outputs": [
        {
          "internalType": "string",
          "name": "",
          "type": "string"
        }
      ],
      "stateMutability": "view",
      "type": "function"
    },
    {
      "inputs": [
        {
          "internalType": "uint256",
          "name": "index",
          "type": "uint256"
        }
      ],
      "name": "tokenByIndex",
      "outputs": [
        {
          "internalType": "uint256",
          "name": "",
          "type": "uint256"
        }
      ],
      "stateMutability": "view",
      "type": "function"
    },
    {
      "inputs": [
        {
          "internalType": "address",
          "name": "owner",
          "type": "address"
        },
        {
          "internalType": "uint256",
          "name": "index",
          "type": "uint256"
        }
      ],
      "name": "tokenOfOwnerByIndex",
      "outputs": [
        {
          "internalType": "uint256",
          "name": "",
          "type": "uint256"
        }
      ],
      "stateMutability": "view",
      "type": "function"
    },
    {
      "inputs": [],
      "name": "totalAurora",
      "outputs": [
        {
          "internalType": "uint256",
          "name": "",
          "type": "uint256"
        }
      ],
      "stateMutability": "view",
      "type": "function"
    },
    {
      "inputs": [],
      "name": "totalGenesis",
      "outputs": [
        {
          "internalType": "uint256",
          "name": "",
          "type": "uint256"
        }
      ],
      "stateMutability": "view",
      "type": "function"
    },
    {
      "inputs": [],
      "name": "totalNova",
      "outputs": [
        {
          "internalType": "uint256",
          "name": "",
          "type": "uint256"
        }
      ],
      "stateMutability": "view",
      "type": "function"
    },
    {
      "inputs": [],
      "name": "totalSuperNova",
      "outputs": [
        {
          "internalType": "uint256",
          "name": "",
          "type": "uint256"
        }
      ],
      "stateMutability": "view",
      "type": "function"
    },
    {
      "inputs": [],
      "name": "totalSupply",
      "outputs": [
        {
          "internalType": "uint256",
          "name": "",
          "type": "uint256"
        }
      ],
      "stateMutability": "view",
      "type": "function"
    },
    {
      "inputs": [
        {
          "internalType": "address",
          "name": "from",
          "type": "address"
        },
        {
          "internalType": "address",
          "name": "to",
          "type": "address"
        },
        {
          "internalType": "uint256",
          "name": "tokenId",
          "type": "uint256"
        }
      ],
      "name": "transferFrom",
      "outputs": [],
      "stateMutability": "nonpayable",
      "type": "function"
    },
    {
      "inputs": [
        {
          "internalType": "address",
          "name": "newOwner",
          "type": "address"
        }
      ],
      "name": "transferOwnership",
      "outputs": [],
      "stateMutability": "nonpayable",
      "type": "function"
    },
    {
      "inputs": [
        {
          "internalType": "uint256",
          "name": "",
          "type": "uint256"
        }
      ],
      "name": "whitelistAurora",
      "outputs": [
        {
          "internalType": "address",
          "name": "",
          "type": "address"
        }
      ],
      "stateMutability": "view",
      "type": "function"
    },
    {
      "inputs": [
        {
          "internalType": "uint256",
          "name": "",
          "type": "uint256"
        }
      ],
      "name": "whitelistGenesis",
      "outputs": [
        {
          "internalType": "address",
          "name": "",
          "type": "address"
        }
      ],
      "stateMutability": "view",
      "type": "function"
    },
    {
      "inputs": [
        {
          "internalType": "uint256",
          "name": "",
          "type": "uint256"
        }
      ],
      "name": "whitelistNova",
      "outputs": [
        {
          "internalType": "address",
          "name": "",
          "type": "address"
        }
      ],
      "stateMutability": "view",
      "type": "function"
    },
    {
      "inputs": [
        {
          "internalType": "uint256",
          "name": "",
          "type": "uint256"
        }
      ],
      "name": "whitelistSuperNova",
      "outputs": [
        {
          "internalType": "address",
          "name": "",
          "type": "address"
        }
      ],
      "stateMutability": "view",
      "type": "function"
    },
    {
      "inputs": [
        {
          "internalType": "uint256",
          "name": "mintAmount",
          "type": "uint256"
        }
      ],
      "name": "mintSuperNova",
      "outputs": [],
      "stateMutability": "payable",
      "type": "function"
    },
    {
      "inputs": [
        {
          "internalType": "uint256",
          "name": "mintAmount",
          "type": "uint256"
        }
      ],
      "name": "mintNova",
      "outputs": [],
      "stateMutability": "payable",
      "type": "function"
    },
    {
      "inputs": [
        {
          "internalType": "uint256",
          "name": "mintAmount",
          "type": "uint256"
        }
      ],
      "name": "mintAurora",
      "outputs": [],
      "stateMutability": "payable",
      "type": "function"
    },
    {
      "inputs": [
        {
          "internalType": "uint256",
          "name": "mintAmount",
          "type": "uint256"
        }
      ],
      "name": "mintGenesis",
      "outputs": [],
      "stateMutability": "payable",
      "type": "function"
    },
    {
      "inputs": [
        {
          "internalType": "address",
          "name": "_user",
          "type": "address"
        }
      ],
      "name": "isSuperNova",
      "outputs": [
        {
          "internalType": "bool",
          "name": "",
          "type": "bool"
        }
      ],
      "stateMutability": "view",
      "type": "function"
    },
    {
      "inputs": [
        {
          "internalType": "address",
          "name": "_user",
          "type": "address"
        }
      ],
      "name": "isNova",
      "outputs": [
        {
          "internalType": "bool",
          "name": "",
          "type": "bool"
        }
      ],
      "stateMutability": "view",
      "type": "function"
    },
    {
      "inputs": [
        {
          "internalType": "address",
          "name": "_user",
          "type": "address"
        }
      ],
      "name": "isAurora",
      "outputs": [
        {
          "internalType": "bool",
          "name": "",
          "type": "bool"
        }
      ],
      "stateMutability": "view",
      "type": "function"
    },
    {
      "inputs": [
        {
          "internalType": "address",
          "name": "_user",
          "type": "address"
        }
      ],
      "name": "isGenesis",
      "outputs": [
        {
          "internalType": "bool",
          "name": "",
          "type": "bool"
        }
      ],
      "stateMutability": "view",
      "type": "function"
    },
    {
      "inputs": [
        {
          "internalType": "uint256",
          "name": "tokenId",
          "type": "uint256"
        }
      ],
      "name": "tokenURI",
      "outputs": [
        {
          "internalType": "string",
          "name": "",
          "type": "string"
        }
      ],
      "stateMutability": "view",
      "type": "function"
    },
    {
      "inputs": [
        {
          "internalType": "bytes4",
          "name": "interfaceId",
          "type": "bytes4"
        }
      ],
      "name": "supportsInterface",
      "outputs": [
        {
          "internalType": "bool",
          "name": "",
          "type": "bool"
        }
      ],
      "stateMutability": "view",
      "type": "function"
    },
    {
      "inputs": [
        {
          "internalType": "address",
          "name": "_owner",
          "type": "address"
        }
      ],
      "name": "walletOfOwner",
      "outputs": [
        {
          "internalType": "uint256[]",
          "name": "",
          "type": "uint256[]"
        }
      ],
      "stateMutability": "view",
      "type": "function"
    },
    {
      "inputs": [],
      "name": "withdraw",
      "outputs": [],
      "stateMutability": "payable",
      "type": "function"
    },
    {
      "inputs": [
        {
          "internalType": "bool",
          "name": "_state",
          "type": "bool"
        }
      ],
      "name": "setOnlyWhitelisted",
      "outputs": [],
      "stateMutability": "nonpayable",
      "type": "function"
    },
    {
      "inputs": [
        {
          "internalType": "address[]",
          "name": "_users",
          "type": "address[]"
        }
      ],
      "name": "goSuperNova",
      "outputs": [],
      "stateMutability": "nonpayable",
      "type": "function"
    },
    {
      "inputs": [
        {
          "internalType": "address[]",
          "name": "_users",
          "type": "address[]"
        }
      ],
      "name": "goNova",
      "outputs": [],
      "stateMutability": "nonpayable",
      "type": "function"
    },
    {
      "inputs": [
        {
          "internalType": "address[]",
          "name": "_users",
          "type": "address[]"
        }
      ],
      "name": "goAurora",
      "outputs": [],
      "stateMutability": "nonpayable",
      "type": "function"
    },
    {
      "inputs": [
        {
          "internalType": "address[]",
          "name": "_users",
          "type": "address[]"
        }
      ],
      "name": "goGenesis",
      "outputs": [],
      "stateMutability": "nonpayable",
      "type": "function"
    },
    {
      "inputs": [
        {
          "internalType": "uint256",
          "name": "_newCostSuperNova",
          "type": "uint256"
        }
      ],
      "name": "setCostSuperNova",
      "outputs": [],
      "stateMutability": "nonpayable",
      "type": "function"
    },
    {
      "inputs": [
        {
          "internalType": "uint256",
          "name": "_newCostNova",
          "type": "uint256"
        }
      ],
      "name": "setCostNova",
      "outputs": [],
      "stateMutability": "nonpayable",
      "type": "function"
    },
    {
      "inputs": [
        {
          "internalType": "uint256",
          "name": "_newCostAurora",
          "type": "uint256"
        }
      ],
      "name": "setCostAurora",
      "outputs": [],
      "stateMutability": "nonpayable",
      "type": "function"
    },
    {
      "inputs": [
        {
          "internalType": "uint256",
          "name": "_newCostGenesis",
          "type": "uint256"
        }
      ],
      "name": "setCostGenesis",
      "outputs": [],
      "stateMutability": "nonpayable",
      "type": "function"
    },
    {
      "inputs": [],
      "name": "pause",
      "outputs": [],
      "stateMutability": "nonpayable",
      "type": "function"
    },
    {
      "inputs": [],
      "name": "unpause",
      "outputs": [],
      "stateMutability": "nonpayable",
      "type": "function"
    }
  ],
  "bytecode": "0x60806040526040518060400160405280600581526020017f2e6a736f6e000000000000000000000000000000000000000000000000000000815250600d9080519060200190620000519291906200024a565b5060006103fb5560006103fc5560006103fd5560006103fe556103e76103ff55600161040060006101000a81548160ff0219169083151502179055503480156200009a57600080fd5b506040518060400160405280600a81526020017f5761676d6920436c7562000000000000000000000000000000000000000000008152506040518060400160405280600281526020017f574300000000000000000000000000000000000000000000000000000000000081525081600090805190602001906200011f9291906200024a565b508060019080519060200190620001389291906200024a565b5050506000600b60006101000a81548160ff021916908315150217905550620001766200016a6200017c60201b60201c565b6200018460201b60201c565b6200035e565b600033905090565b6000600b60019054906101000a900473ffffffffffffffffffffffffffffffffffffffff16905081600b60016101000a81548173ffffffffffffffffffffffffffffffffffffffff021916908373ffffffffffffffffffffffffffffffffffffffff1602179055508173ffffffffffffffffffffffffffffffffffffffff168173ffffffffffffffffffffffffffffffffffffffff167f8be0079c531659141344cd1fd0a4f28419497f9722a3daafe3b4186f6b6457e060405160405180910390a35050565b828054620002589062000329565b90600052602060002090601f0160209004810192826200027c5760008555620002c8565b82601f106200029757805160ff1916838001178555620002c8565b82800160010185558215620002c8579182015b82811115620002c7578251825591602001919060010190620002aa565b5b509050620002d79190620002db565b5090565b5b80821115620002f6576000816000905550600101620002dc565b5090565b7f4e487b7100000000000000000000000000000000000000000000000000000000600052602260045260246000fd5b600060028204905060018216806200034257607f821691505b602082108103620003585762000357620002fa565b5b50919050565b615b29806200036e6000396000f3fe60806040526004361061038c5760003560e01c8063715018a6116101dc578063a22cb46511610102578063da2e153b116100a0578063e985e9c51161006f578063e985e9c514610d4d578063eb5a3bb614610d8a578063f2fde38b14610db3578063fac333ac14610ddc5761038c565b8063da2e153b14610ca0578063dd23a99d14610cc9578063de343f6014610cf4578063dff6324314610d315761038c565b8063c24f1911116100dc578063c24f191114610bd0578063c668286214610c0d578063c87b56dd14610c38578063d5abeb0114610c755761038c565b8063a22cb46514610b53578063b88d4fde14610b7c578063bc6ecf2714610ba55761038c565b80638da93e191161017a57806395d89b411161014957806395d89b4114610a955780639c70b51214610ac0578063a104d7ed14610aeb578063a11c8b6914610b165761038c565b80638da93e19146109d95780638f5d4c1514610a0457806391bfea3a14610a2d5780639326cf8714610a6a5761038c565b806385291cda116101b657806385291cda1461091857806387864383146109555780638c128e5b146109925780638da5cb5b146109ae5761038c565b8063715018a6146108bf57806380609736146108d65780638456cb59146109015761038c565b80633f4ba83a116102c15780635c975abb1161025f5780636b227dd11161022e5780636b227dd1146107f15780636c0360eb1461081a5780636ff198171461084557806370a08231146108825761038c565b80635c975abb1461072357806360e8ad471461074e5780636352211e1461078b57806364ff52a3146107c85761038c565b80634f6ccce71161029b5780634f6ccce71461068357806355f21904146106c0578063568725d4146106dc57806357141dee146106f85761038c565b80633f4ba83a1461060657806342842e0e1461061d578063438b6300146106465761038c565b806318cae2691161032e5780633accd93a116103085780633accd93a1461057f5780633b4fd38e146105aa5780633c952764146105d35780633ccfd60b146105fc5761038c565b806318cae269146104dc57806323b872dd146105195780632f745c59146105425761038c565b8063095ea7b31161036a578063095ea7b31461043657806309b74e9b1461045f5780630c7229881461048857806318160ddd146104b15761038c565b806301ffc9a71461039157806306fdde03146103ce578063081812fc146103f9575b600080fd5b34801561039d57600080fd5b506103b860048036038101906103b39190614202565b610e19565b6040516103c5919061424a565b60405180910390f35b3480156103da57600080fd5b506103e3610e2b565b6040516103f091906142fe565b60405180910390f35b34801561040557600080fd5b50610420600480360381019061041b9190614356565b610ebd565b60405161042d91906143c4565b60405180910390f35b34801561044257600080fd5b5061045d6004803603810190610458919061440b565b610f42565b005b34801561046b57600080fd5b50610486600480360381019061048191906144b0565b611059565b005b34801561049457600080fd5b506104af60048036038101906104aa9190614356565b6110fb565b005b3480156104bd57600080fd5b506104c6611182565b6040516104d3919061450c565b60405180910390f35b3480156104e857600080fd5b5061050360048036038101906104fe9190614527565b61118f565b604051610510919061450c565b60405180910390f35b34801561052557600080fd5b50610540600480360381019061053b9190614554565b6111a8565b005b34801561054e57600080fd5b506105696004803603810190610564919061440b565b611208565b604051610576919061450c565b60405180910390f35b34801561058b57600080fd5b506105946112ad565b6040516105a1919061450c565b60405180910390f35b3480156105b657600080fd5b506105d160048036038101906105cc9190614356565b6112b4565b005b3480156105df57600080fd5b506105fa60048036038101906105f591906145d3565b61133b565b005b6106046113d5565b005b34801561061257600080fd5b5061061b6114ca565b005b34801561062957600080fd5b50610644600480360381019061063f9190614554565b611550565b005b34801561065257600080fd5b5061066d60048036038101906106689190614527565b611570565b60405161067a91906146be565b60405180910390f35b34801561068f57600080fd5b506106aa60048036038101906106a59190614356565b61161e565b6040516106b7919061450c565b60405180910390f35b6106da60048036038101906106d59190614356565b61168f565b005b6106f660048036038101906106f19190614356565b611846565b005b34801561070457600080fd5b5061070d611a01565b60405161071a919061450c565b60405180910390f35b34801561072f57600080fd5b50610738611a08565b604051610745919061424a565b60405180910390f35b34801561075a57600080fd5b5061077560048036038101906107709190614527565b611a1f565b604051610782919061424a565b60405180910390f35b34801561079757600080fd5b506107b260048036038101906107ad9190614356565b611acf565b6040516107bf91906143c4565b60405180910390f35b3480156107d457600080fd5b506107ef60048036038101906107ea91906144b0565b611b80565b005b3480156107fd57600080fd5b5061081860048036038101906108139190614356565b611c22565b005b34801561082657600080fd5b5061082f611ca9565b60405161083c91906142fe565b60405180910390f35b34801561085157600080fd5b5061086c60048036038101906108679190614356565b611d37565b60405161087991906143c4565b60405180910390f35b34801561088e57600080fd5b506108a960048036038101906108a49190614527565b611d77565b6040516108b6919061450c565b60405180910390f35b3480156108cb57600080fd5b506108d4611e2e565b005b3480156108e257600080fd5b506108eb611eb6565b6040516108f8919061450c565b60405180910390f35b34801561090d57600080fd5b50610916611ebd565b005b34801561092457600080fd5b5061093f600480360381019061093a9190614356565b611f43565b60405161094c91906143c4565b60405180910390f35b34801561096157600080fd5b5061097c60048036038101906109779190614527565b611f83565b604051610989919061424a565b60405180910390f35b6109ac60048036038101906109a79190614356565b612033565b005b3480156109ba57600080fd5b506109c36121ee565b6040516109d091906143c4565b60405180910390f35b3480156109e557600080fd5b506109ee612218565b6040516109fb919061450c565b60405180910390f35b348015610a1057600080fd5b50610a2b6004803603810190610a269190614356565b61221f565b005b348015610a3957600080fd5b50610a546004803603810190610a4f9190614527565b6122a6565b604051610a61919061424a565b60405180910390f35b348015610a7657600080fd5b50610a7f612356565b604051610a8c919061450c565b60405180910390f35b348015610aa157600080fd5b50610aaa61235d565b604051610ab791906142fe565b60405180910390f35b348015610acc57600080fd5b50610ad56123ef565b604051610ae2919061424a565b60405180910390f35b348015610af757600080fd5b50610b00612403565b604051610b0d919061450c565b60405180910390f35b348015610b2257600080fd5b50610b3d6004803603810190610b389190614356565b61240a565b604051610b4a91906143c4565b60405180910390f35b348015610b5f57600080fd5b50610b7a6004803603810190610b7591906146e0565b61244a565b005b348015610b8857600080fd5b50610ba36004803603810190610b9e9190614850565b612460565b005b348015610bb157600080fd5b50610bba6124c2565b604051610bc7919061450c565b60405180910390f35b348015610bdc57600080fd5b50610bf76004803603810190610bf29190614356565b6124c9565b604051610c0491906143c4565b60405180910390f35b348015610c1957600080fd5b50610c22612509565b604051610c2f91906142fe565b60405180910390f35b348015610c4457600080fd5b50610c5f6004803603810190610c5a9190614356565b612597565b604051610c6c91906142fe565b60405180910390f35b348015610c8157600080fd5b50610c8a612641565b604051610c97919061450c565b60405180910390f35b348015610cac57600080fd5b50610cc76004803603810190610cc291906144b0565b612648565b005b348015610cd557600080fd5b50610cde6126ea565b604051610ceb919061450c565b60405180910390f35b348015610d0057600080fd5b50610d1b6004803603810190610d169190614527565b6126f1565b604051610d28919061424a565b60405180910390f35b610d4b6004803603810190610d469190614356565b6127a1565b005b348015610d5957600080fd5b50610d746004803603810190610d6f91906148d3565b61295d565b604051610d81919061424a565b60405180910390f35b348015610d9657600080fd5b50610db16004803603810190610dac91906144b0565b6129f1565b005b348015610dbf57600080fd5b50610dda6004803603810190610dd59190614527565b612a93565b005b348015610de857600080fd5b50610e036004803603810190610dfe9190614356565b612b8a565b604051610e10919061450c565b60405180910390f35b6000610e2482612ba6565b9050919050565b606060008054610e3a90614942565b80601f0160208091040260200160405190810160405280929190818152602001828054610e6690614942565b8015610eb35780601f10610e8857610100808354040283529160200191610eb3565b820191906000526020600020905b815481529060010190602001808311610e9657829003601f168201915b5050505050905090565b6000610ec882612c20565b610f07576040517f08c379a0000000000000000000000000000000000000000000000000000000008152600401610efe906149e5565b60405180910390fd5b6004600083815260200190815260200160002060009054906101000a900473ffffffffffffffffffffffffffffffffffffffff169050919050565b6000610f4d82611acf565b90508073ffffffffffffffffffffffffffffffffffffffff168373ffffffffffffffffffffffffffffffffffffffff1603610fbd576040517f08c379a0000000000000000000000000000000000000000000000000000000008152600401610fb490614a77565b60405180910390fd5b8073ffffffffffffffffffffffffffffffffffffffff16610fdc612c8c565b73ffffffffffffffffffffffffffffffffffffffff16148061100b575061100a81611005612c8c565b61295d565b5b61104a576040517f08c379a000000000000000000000000000000000000000000000000000000000815260040161104190614b09565b60405180910390fd5b6110548383612c94565b505050565b611061612c8c565b73ffffffffffffffffffffffffffffffffffffffff1661107f6121ee565b73ffffffffffffffffffffffffffffffffffffffff16146110d5576040517f08c379a00000000000000000000000000000000000000000000000000000000081526004016110cc90614b75565b60405180910390fd5b61040160006110e49190614032565b818161040191906110f6929190614053565b505050565b611103612c8c565b73ffffffffffffffffffffffffffffffffffffffff166111216121ee565b73ffffffffffffffffffffffffffffffffffffffff1614611177576040517f08c379a000000000000000000000000000000000000000000000000000000000815260040161116e90614b75565b60405180910390fd5b806103fb8190555050565b6000600880549050905090565b6104056020528060005260406000206000915090505481565b6111b96111b3612c8c565b82612d4d565b6111f8576040517f08c379a00000000000000000000000000000000000000000000000000000000081526004016111ef90614c07565b60405180910390fd5b611203838383612e2b565b505050565b600061121383611d77565b8210611254576040517f08c379a000000000000000000000000000000000000000000000000000000000815260040161124b90614c99565b60405180910390fd5b600660008473ffffffffffffffffffffffffffffffffffffffff1673ffffffffffffffffffffffffffffffffffffffff168152602001908152602001600020600083815260200190815260200160002054905092915050565b6103fc5481565b6112bc612c8c565b73ffffffffffffffffffffffffffffffffffffffff166112da6121ee565b73ffffffffffffffffffffffffffffffffffffffff1614611330576040517f08c379a000000000000000000000000000000000000000000000000000000000815260040161132790614b75565b60405180910390fd5b806103fd8190555050565b611343612c8c565b73ffffffffffffffffffffffffffffffffffffffff166113616121ee565b73ffffffffffffffffffffffffffffffffffffffff16146113b7576040517f08c379a00000000000000000000000000000000000000000000000000000000081526004016113ae90614b75565b60405180910390fd5b8061040060006101000a81548160ff02191690831515021790555050565b6113dd612c8c565b73ffffffffffffffffffffffffffffffffffffffff166113fb6121ee565b73ffffffffffffffffffffffffffffffffffffffff1614611451576040517f08c379a000000000000000000000000000000000000000000000000000000000815260040161144890614b75565b60405180910390fd5b60003373ffffffffffffffffffffffffffffffffffffffff164760405161147790614cea565b60006040518083038185875af1925050503d80600081146114b4576040519150601f19603f3d011682016040523d82523d6000602084013e6114b9565b606091505b50509050806114c757600080fd5b50565b6114d2612c8c565b73ffffffffffffffffffffffffffffffffffffffff166114f06121ee565b73ffffffffffffffffffffffffffffffffffffffff1614611546576040517f08c379a000000000000000000000000000000000000000000000000000000000815260040161153d90614b75565b60405180910390fd5b61154e613091565b565b61156b83838360405180602001604052806000815250612460565b505050565b6060600061157d83611d77565b905060008167ffffffffffffffff81111561159b5761159a614725565b5b6040519080825280602002602001820160405280156115c95781602001602082028036833780820191505090505b50905060005b82811015611613576115e18582611208565b8282815181106115f4576115f3614cff565b5b602002602001018181525050808061160b90614d5d565b9150506115cf565b508092505050919050565b6000611628611182565b8210611669576040517f08c379a000000000000000000000000000000000000000000000000000000000815260040161166090614e17565b60405180910390fd5b6008828154811061167d5761167c614cff565b5b90600052602060002001549050919050565b6000611699611182565b90506103ff5482826116ab9190614e37565b11156116ec576040517f08c379a00000000000000000000000000000000000000000000000000000000081526004016116e390614ed9565b60405180910390fd5b816103fb546116fb9190614ef9565b34101561173d576040517f08c379a000000000000000000000000000000000000000000000000000000000815260040161173490614f9f565b60405180910390fd5b61175e604051806080016040528060518152602001615aa360519139613133565b6117666121ee565b73ffffffffffffffffffffffffffffffffffffffff163373ffffffffffffffffffffffffffffffffffffffff16146117fe576001151561040060009054906101000a900460ff161515036117fd576117bd33611f83565b6117fc576040517f08c379a00000000000000000000000000000000000000000000000000000000081526004016117f39061500b565b60405180910390fd5b5b5b6000826103f760008282546118139190614e37565b92505081905550611832336103f7548361182d9190614e37565b61314d565b61040160006118419190614032565b505050565b6000611850611182565b90506103ff5482826118629190614e37565b11156118a3576040517f08c379a000000000000000000000000000000000000000000000000000000000815260040161189a90614ed9565b60405180910390fd5b816103fc546118b29190614ef9565b3410156118f4576040517f08c379a00000000000000000000000000000000000000000000000000000000081526004016118eb90614f9f565b60405180910390fd5b611915604051806080016040528060518152602001615a5260519139613133565b61191d6121ee565b73ffffffffffffffffffffffffffffffffffffffff163373ffffffffffffffffffffffffffffffffffffffff16146119b5576001151561040060009054906101000a900460ff161515036119b457611974336126f1565b6119b3576040517f08c379a00000000000000000000000000000000000000000000000000000000081526004016119aa9061500b565b60405180910390fd5b5b5b600060099050826103f860008282546119ce9190614e37565b925050819055506119ed336103f854836119e89190614e37565b61314d565b61040260006119fc9190614032565b505050565b6103fe5481565b6000600b60009054906101000a900460ff16905090565b600080600090505b61040480549050811015611ac4578273ffffffffffffffffffffffffffffffffffffffff166104048281548110611a6157611a60614cff565b5b9060005260206000200160009054906101000a900473ffffffffffffffffffffffffffffffffffffffff1673ffffffffffffffffffffffffffffffffffffffff1603611ab1576001915050611aca565b8080611abc90614d5d565b915050611a27565b50600090505b919050565b6000806002600084815260200190815260200160002060009054906101000a900473ffffffffffffffffffffffffffffffffffffffff169050600073ffffffffffffffffffffffffffffffffffffffff168173ffffffffffffffffffffffffffffffffffffffff1603611b77576040517f08c379a0000000000000000000000000000000000000000000000000000000008152600401611b6e9061509d565b60405180910390fd5b80915050919050565b611b88612c8c565b73ffffffffffffffffffffffffffffffffffffffff16611ba66121ee565b73ffffffffffffffffffffffffffffffffffffffff1614611bfc576040517f08c379a0000000000000000000000000000000000000000000000000000000008152600401611bf390614b75565b60405180910390fd5b6104046000611c0b9190614032565b81816104049190611c1d929190614053565b505050565b611c2a612c8c565b73ffffffffffffffffffffffffffffffffffffffff16611c486121ee565b73ffffffffffffffffffffffffffffffffffffffff1614611c9e576040517f08c379a0000000000000000000000000000000000000000000000000000000008152600401611c9590614b75565b60405180910390fd5b806103fe8190555050565b600c8054611cb690614942565b80601f0160208091040260200160405190810160405280929190818152602001828054611ce290614942565b8015611d2f5780601f10611d0457610100808354040283529160200191611d2f565b820191906000526020600020905b815481529060010190602001808311611d1257829003601f168201915b505050505081565b6104018181548110611d4857600080fd5b906000526020600020016000915054906101000a900473ffffffffffffffffffffffffffffffffffffffff1681565b60008073ffffffffffffffffffffffffffffffffffffffff168273ffffffffffffffffffffffffffffffffffffffff1603611de7576040517f08c379a0000000000000000000000000000000000000000000000000000000008152600401611dde9061512f565b60405180910390fd5b600360008373ffffffffffffffffffffffffffffffffffffffff1673ffffffffffffffffffffffffffffffffffffffff168152602001908152602001600020549050919050565b611e36612c8c565b73ffffffffffffffffffffffffffffffffffffffff16611e546121ee565b73ffffffffffffffffffffffffffffffffffffffff1614611eaa576040517f08c379a0000000000000000000000000000000000000000000000000000000008152600401611ea190614b75565b60405180910390fd5b611eb4600061316b565b565b6103f75481565b611ec5612c8c565b73ffffffffffffffffffffffffffffffffffffffff16611ee36121ee565b73ffffffffffffffffffffffffffffffffffffffff1614611f39576040517f08c379a0000000000000000000000000000000000000000000000000000000008152600401611f3090614b75565b60405180910390fd5b611f41613231565b565b6104048181548110611f5457600080fd5b906000526020600020016000915054906101000a900473ffffffffffffffffffffffffffffffffffffffff1681565b600080600090505b61040180549050811015612028578273ffffffffffffffffffffffffffffffffffffffff166104018281548110611fc557611fc4614cff565b5b9060005260206000200160009054906101000a900473ffffffffffffffffffffffffffffffffffffffff1673ffffffffffffffffffffffffffffffffffffffff160361201557600191505061202e565b808061202090614d5d565b915050611f8b565b50600090505b919050565b600061203d611182565b90506103ff54828261204f9190614e37565b1115612090576040517f08c379a000000000000000000000000000000000000000000000000000000000815260040161208790614ed9565b60405180910390fd5b816103fd5461209f9190614ef9565b3410156120e1576040517f08c379a00000000000000000000000000000000000000000000000000000000081526004016120d890614f9f565b60405180910390fd5b612102604051806080016040528060518152602001615a0160519139613133565b61210a6121ee565b73ffffffffffffffffffffffffffffffffffffffff163373ffffffffffffffffffffffffffffffffffffffff16146121a2576001151561040060009054906101000a900460ff161515036121a157612161336122a6565b6121a0576040517f08c379a00000000000000000000000000000000000000000000000000000000081526004016121979061500b565b60405180910390fd5b5b5b600060639050826103f960008282546121bb9190614e37565b925050819055506121da336103f954836121d59190614e37565b61314d565b61040360006121e99190614032565b505050565b6000600b60019054906101000a900473ffffffffffffffffffffffffffffffffffffffff16905090565b6103fd5481565b612227612c8c565b73ffffffffffffffffffffffffffffffffffffffff166122456121ee565b73ffffffffffffffffffffffffffffffffffffffff161461229b576040517f08c379a000000000000000000000000000000000000000000000000000000000815260040161229290614b75565b60405180910390fd5b806103fc8190555050565b600080600090505b6104038054905081101561234b578273ffffffffffffffffffffffffffffffffffffffff1661040382815481106122e8576122e7614cff565b5b9060005260206000200160009054906101000a900473ffffffffffffffffffffffffffffffffffffffff1673ffffffffffffffffffffffffffffffffffffffff1603612338576001915050612351565b808061234390614d5d565b9150506122ae565b50600090505b919050565b6103fb5481565b60606001805461236c90614942565b80601f016020809104026020016040519081016040528092919081815260200182805461239890614942565b80156123e55780601f106123ba576101008083540402835291602001916123e5565b820191906000526020600020905b8154815290600101906020018083116123c857829003601f168201915b5050505050905090565b61040060009054906101000a900460ff1681565b6103f95481565b610402818154811061241b57600080fd5b906000526020600020016000915054906101000a900473ffffffffffffffffffffffffffffffffffffffff1681565b61245c612455612c8c565b83836132d4565b5050565b61247161246b612c8c565b83612d4d565b6124b0576040517f08c379a00000000000000000000000000000000000000000000000000000000081526004016124a790614c07565b60405180910390fd5b6124bc84848484613440565b50505050565b6103fa5481565b61040381815481106124da57600080fd5b906000526020600020016000915054906101000a900473ffffffffffffffffffffffffffffffffffffffff1681565b600d805461251690614942565b80601f016020809104026020016040519081016040528092919081815260200182805461254290614942565b801561258f5780601f106125645761010080835404028352916020019161258f565b820191906000526020600020905b81548152906001019060200180831161257257829003601f168201915b505050505081565b60606125a282612c20565b6125e1576040517f08c379a00000000000000000000000000000000000000000000000000000000081526004016125d8906151c1565b60405180910390fd5b60006125eb61349c565b9050600081511161260b5760405180602001604052806000815250612639565b806126158461352e565b600d604051602001612629939291906152b1565b6040516020818303038152906040525b915050919050565b6103ff5481565b612650612c8c565b73ffffffffffffffffffffffffffffffffffffffff1661266e6121ee565b73ffffffffffffffffffffffffffffffffffffffff16146126c4576040517f08c379a00000000000000000000000000000000000000000000000000000000081526004016126bb90614b75565b60405180910390fd5b61040360006126d39190614032565b818161040391906126e5929190614053565b505050565b6103f85481565b600080600090505b61040280549050811015612796578273ffffffffffffffffffffffffffffffffffffffff16610402828154811061273357612732614cff565b5b9060005260206000200160009054906101000a900473ffffffffffffffffffffffffffffffffffffffff1673ffffffffffffffffffffffffffffffffffffffff160361278357600191505061279c565b808061278e90614d5d565b9150506126f9565b50600090505b919050565b60006127ab611182565b90506103ff5482826127bd9190614e37565b11156127fe576040517f08c379a00000000000000000000000000000000000000000000000000000000081526004016127f590614ed9565b60405180910390fd5b816103fe5461280d9190614ef9565b34101561284f576040517f08c379a000000000000000000000000000000000000000000000000000000000815260040161284690614f9f565b60405180910390fd5b6128706040518060800160405280605181526020016159b060519139613133565b6128786121ee565b73ffffffffffffffffffffffffffffffffffffffff163373ffffffffffffffffffffffffffffffffffffffff1614612910576001151561040060009054906101000a900460ff1615150361290f576128cf33611a1f565b61290e576040517f08c379a00000000000000000000000000000000000000000000000000000000081526004016129059061500b565b60405180910390fd5b5b5b60006101c19050826103fa600082825461292a9190614e37565b92505081905550612949336103fa54836129449190614e37565b61314d565b61040460006129589190614032565b505050565b6000600560008473ffffffffffffffffffffffffffffffffffffffff1673ffffffffffffffffffffffffffffffffffffffff16815260200190815260200160002060008373ffffffffffffffffffffffffffffffffffffffff1673ffffffffffffffffffffffffffffffffffffffff16815260200190815260200160002060009054906101000a900460ff16905092915050565b6129f9612c8c565b73ffffffffffffffffffffffffffffffffffffffff16612a176121ee565b73ffffffffffffffffffffffffffffffffffffffff1614612a6d576040517f08c379a0000000000000000000000000000000000000000000000000000000008152600401612a6490614b75565b60405180910390fd5b6104026000612a7c9190614032565b81816104029190612a8e929190614053565b505050565b612a9b612c8c565b73ffffffffffffffffffffffffffffffffffffffff16612ab96121ee565b73ffffffffffffffffffffffffffffffffffffffff1614612b0f576040517f08c379a0000000000000000000000000000000000000000000000000000000008152600401612b0690614b75565b60405180910390fd5b600073ffffffffffffffffffffffffffffffffffffffff168173ffffffffffffffffffffffffffffffffffffffff1603612b7e576040517f08c379a0000000000000000000000000000000000000000000000000000000008152600401612b7590615354565b60405180910390fd5b612b878161316b565b50565b600f816103e78110612b9b57600080fd5b016000915090505481565b60007f780e9d63000000000000000000000000000000000000000000000000000000007bffffffffffffffffffffffffffffffffffffffffffffffffffffffff1916827bffffffffffffffffffffffffffffffffffffffffffffffffffffffff19161480612c195750612c188261368e565b5b9050919050565b60008073ffffffffffffffffffffffffffffffffffffffff166002600084815260200190815260200160002060009054906101000a900473ffffffffffffffffffffffffffffffffffffffff1673ffffffffffffffffffffffffffffffffffffffff1614159050919050565b600033905090565b816004600083815260200190815260200160002060006101000a81548173ffffffffffffffffffffffffffffffffffffffff021916908373ffffffffffffffffffffffffffffffffffffffff160217905550808273ffffffffffffffffffffffffffffffffffffffff16612d0783611acf565b73ffffffffffffffffffffffffffffffffffffffff167f8c5be1e5ebec7d5bd14f71427d1e84f3dd0314c0f7b2291e5b200ac8c7c3b92560405160405180910390a45050565b6000612d5882612c20565b612d97576040517f08c379a0000000000000000000000000000000000000000000000000000000008152600401612d8e906153e6565b60405180910390fd5b6000612da283611acf565b90508073ffffffffffffffffffffffffffffffffffffffff168473ffffffffffffffffffffffffffffffffffffffff161480612de45750612de3818561295d565b5b80612e2257508373ffffffffffffffffffffffffffffffffffffffff16612e0a84610ebd565b73ffffffffffffffffffffffffffffffffffffffff16145b91505092915050565b8273ffffffffffffffffffffffffffffffffffffffff16612e4b82611acf565b73ffffffffffffffffffffffffffffffffffffffff1614612ea1576040517f08c379a0000000000000000000000000000000000000000000000000000000008152600401612e9890615478565b60405180910390fd5b600073ffffffffffffffffffffffffffffffffffffffff168273ffffffffffffffffffffffffffffffffffffffff1603612f10576040517f08c379a0000000000000000000000000000000000000000000000000000000008152600401612f079061550a565b60405180910390fd5b612f1b838383613770565b612f26600082612c94565b6001600360008573ffffffffffffffffffffffffffffffffffffffff1673ffffffffffffffffffffffffffffffffffffffff1681526020019081526020016000206000828254612f76919061552a565b925050819055506001600360008473ffffffffffffffffffffffffffffffffffffffff1673ffffffffffffffffffffffffffffffffffffffff1681526020019081526020016000206000828254612fcd9190614e37565b92505081905550816002600083815260200190815260200160002060006101000a81548173ffffffffffffffffffffffffffffffffffffffff021916908373ffffffffffffffffffffffffffffffffffffffff160217905550808273ffffffffffffffffffffffffffffffffffffffff168473ffffffffffffffffffffffffffffffffffffffff167fddf252ad1be2c89b69c2b068fc378daa952ba7f163c4a11628f55a4df523b3ef60405160405180910390a461308c8383836137c8565b505050565b613099611a08565b6130d8576040517f08c379a00000000000000000000000000000000000000000000000000000000081526004016130cf906155aa565b60405180910390fd5b6000600b60006101000a81548160ff0219169083151502179055507f5db9ee0a495bf2e6ff9c91a7834c1ba4fdd244a5e8aa4e537bd38aeae4b073aa61311c612c8c565b60405161312991906143c4565b60405180910390a1565b80600c90805190602001906131499291906140f3565b5050565b6131678282604051806020016040528060008152506137cd565b5050565b6000600b60019054906101000a900473ffffffffffffffffffffffffffffffffffffffff16905081600b60016101000a81548173ffffffffffffffffffffffffffffffffffffffff021916908373ffffffffffffffffffffffffffffffffffffffff1602179055508173ffffffffffffffffffffffffffffffffffffffff168173ffffffffffffffffffffffffffffffffffffffff167f8be0079c531659141344cd1fd0a4f28419497f9722a3daafe3b4186f6b6457e060405160405180910390a35050565b613239611a08565b15613279576040517f08c379a000000000000000000000000000000000000000000000000000000000815260040161327090615616565b60405180910390fd5b6001600b60006101000a81548160ff0219169083151502179055507f62e78cea01bee320cd4e420270b5ea74000d11b0c9f74754ebdbfc544b05a2586132bd612c8c565b6040516132ca91906143c4565b60405180910390a1565b8173ffffffffffffffffffffffffffffffffffffffff168373ffffffffffffffffffffffffffffffffffffffff1603613342576040517f08c379a000000000000000000000000000000000000000000000000000000000815260040161333990615682565b60405180910390fd5b80600560008573ffffffffffffffffffffffffffffffffffffffff1673ffffffffffffffffffffffffffffffffffffffff16815260200190815260200160002060008473ffffffffffffffffffffffffffffffffffffffff1673ffffffffffffffffffffffffffffffffffffffff16815260200190815260200160002060006101000a81548160ff0219169083151502179055508173ffffffffffffffffffffffffffffffffffffffff168373ffffffffffffffffffffffffffffffffffffffff167f17307eab39ab6107e8899845ad3d59bd9653f200f220920489ca2b5937696c3183604051613433919061424a565b60405180910390a3505050565b61344b848484612e2b565b61345784848484613828565b613496576040517f08c379a000000000000000000000000000000000000000000000000000000000815260040161348d90615714565b60405180910390fd5b50505050565b6060600c80546134ab90614942565b80601f01602080910402602001604051908101604052809291908181526020018280546134d790614942565b80156135245780601f106134f957610100808354040283529160200191613524565b820191906000526020600020905b81548152906001019060200180831161350757829003601f168201915b5050505050905090565b606060008203613575576040518060400160405280600181526020017f30000000000000000000000000000000000000000000000000000000000000008152509050613689565b600082905060005b600082146135a757808061359090614d5d565b915050600a826135a09190615763565b915061357d565b60008167ffffffffffffffff8111156135c3576135c2614725565b5b6040519080825280601f01601f1916602001820160405280156135f55781602001600182028036833780820191505090505b5090505b600085146136825760018261360e919061552a565b9150600a8561361d9190615794565b60306136299190614e37565b60f81b81838151811061363f5761363e614cff565b5b60200101907effffffffffffffffffffffffffffffffffffffffffffffffffffffffffffff1916908160001a905350600a8561367b9190615763565b94506135f9565b8093505050505b919050565b60007f80ac58cd000000000000000000000000000000000000000000000000000000007bffffffffffffffffffffffffffffffffffffffffffffffffffffffff1916827bffffffffffffffffffffffffffffffffffffffffffffffffffffffff1916148061375957507f5b5e139f000000000000000000000000000000000000000000000000000000007bffffffffffffffffffffffffffffffffffffffffffffffffffffffff1916827bffffffffffffffffffffffffffffffffffffffffffffffffffffffff1916145b806137695750613768826139af565b5b9050919050565b613778611a08565b156137b8576040517f08c379a00000000000000000000000000000000000000000000000000000000081526004016137af90615616565b60405180910390fd5b6137c3838383613a19565b505050565b505050565b6137d78383613b2b565b6137e46000848484613828565b613823576040517f08c379a000000000000000000000000000000000000000000000000000000000815260040161381a90615714565b60405180910390fd5b505050565b60006138498473ffffffffffffffffffffffffffffffffffffffff16613d04565b156139a2578373ffffffffffffffffffffffffffffffffffffffff1663150b7a02613872612c8c565b8786866040518563ffffffff1660e01b8152600401613894949392919061581a565b6020604051808303816000875af19250505080156138d057506040513d601f19601f820116820180604052508101906138cd919061587b565b60015b613952573d8060008114613900576040519150601f19603f3d011682016040523d82523d6000602084013e613905565b606091505b50600081510361394a576040517f08c379a000000000000000000000000000000000000000000000000000000000815260040161394190615714565b60405180910390fd5b805181602001fd5b63150b7a0260e01b7bffffffffffffffffffffffffffffffffffffffffffffffffffffffff1916817bffffffffffffffffffffffffffffffffffffffffffffffffffffffff1916149150506139a7565b600190505b949350505050565b60007f01ffc9a7000000000000000000000000000000000000000000000000000000007bffffffffffffffffffffffffffffffffffffffffffffffffffffffff1916827bffffffffffffffffffffffffffffffffffffffffffffffffffffffff1916149050919050565b613a24838383613d27565b600073ffffffffffffffffffffffffffffffffffffffff168373ffffffffffffffffffffffffffffffffffffffff1603613a6657613a6181613d2c565b613aa5565b8173ffffffffffffffffffffffffffffffffffffffff168373ffffffffffffffffffffffffffffffffffffffff1614613aa457613aa38382613d75565b5b5b600073ffffffffffffffffffffffffffffffffffffffff168273ffffffffffffffffffffffffffffffffffffffff1603613ae757613ae281613ee2565b613b26565b8273ffffffffffffffffffffffffffffffffffffffff168273ffffffffffffffffffffffffffffffffffffffff1614613b2557613b248282613fb3565b5b5b505050565b600073ffffffffffffffffffffffffffffffffffffffff168273ffffffffffffffffffffffffffffffffffffffff1603613b9a576040517f08c379a0000000000000000000000000000000000000000000000000000000008152600401613b91906158f4565b60405180910390fd5b613ba381612c20565b15613be3576040517f08c379a0000000000000000000000000000000000000000000000000000000008152600401613bda90615960565b60405180910390fd5b613bef60008383613770565b6001600360008473ffffffffffffffffffffffffffffffffffffffff1673ffffffffffffffffffffffffffffffffffffffff1681526020019081526020016000206000828254613c3f9190614e37565b92505081905550816002600083815260200190815260200160002060006101000a81548173ffffffffffffffffffffffffffffffffffffffff021916908373ffffffffffffffffffffffffffffffffffffffff160217905550808273ffffffffffffffffffffffffffffffffffffffff16600073ffffffffffffffffffffffffffffffffffffffff167fddf252ad1be2c89b69c2b068fc378daa952ba7f163c4a11628f55a4df523b3ef60405160405180910390a4613d00600083836137c8565b5050565b6000808273ffffffffffffffffffffffffffffffffffffffff163b119050919050565b505050565b6008805490506009600083815260200190815260200160002081905550600881908060018154018082558091505060019003906000526020600020016000909190919091505550565b60006001613d8284611d77565b613d8c919061552a565b9050600060076000848152602001908152602001600020549050818114613e71576000600660008673ffffffffffffffffffffffffffffffffffffffff1673ffffffffffffffffffffffffffffffffffffffff168152602001908152602001600020600084815260200190815260200160002054905080600660008773ffffffffffffffffffffffffffffffffffffffff1673ffffffffffffffffffffffffffffffffffffffff168152602001908152602001600020600084815260200190815260200160002081905550816007600083815260200190815260200160002081905550505b6007600084815260200190815260200160002060009055600660008573ffffffffffffffffffffffffffffffffffffffff1673ffffffffffffffffffffffffffffffffffffffff16815260200190815260200160002060008381526020019081526020016000206000905550505050565b60006001600880549050613ef6919061552a565b9050600060096000848152602001908152602001600020549050600060088381548110613f2657613f25614cff565b5b906000526020600020015490508060088381548110613f4857613f47614cff565b5b906000526020600020018190555081600960008381526020019081526020016000208190555060096000858152602001908152602001600020600090556008805480613f9757613f96615980565b5b6001900381819060005260206000200160009055905550505050565b6000613fbe83611d77565b905081600660008573ffffffffffffffffffffffffffffffffffffffff1673ffffffffffffffffffffffffffffffffffffffff168152602001908152602001600020600083815260200190815260200160002081905550806007600084815260200190815260200160002081905550505050565b50805460008255906000526020600020908101906140509190614179565b50565b8280548282559060005260206000209081019282156140e2579160200282015b828111156140e157823573ffffffffffffffffffffffffffffffffffffffff168260006101000a81548173ffffffffffffffffffffffffffffffffffffffff021916908373ffffffffffffffffffffffffffffffffffffffff16021790555091602001919060010190614073565b5b5090506140ef9190614179565b5090565b8280546140ff90614942565b90600052602060002090601f0160209004810192826141215760008555614168565b82601f1061413a57805160ff1916838001178555614168565b82800160010185558215614168579182015b8281111561416757825182559160200191906001019061414c565b5b5090506141759190614179565b5090565b5b8082111561419257600081600090555060010161417a565b5090565b6000604051905090565b600080fd5b600080fd5b60007fffffffff0000000000000000000000000000000000000000000000000000000082169050919050565b6141df816141aa565b81146141ea57600080fd5b50565b6000813590506141fc816141d6565b92915050565b600060208284031215614218576142176141a0565b5b6000614226848285016141ed565b91505092915050565b60008115159050919050565b6142448161422f565b82525050565b600060208201905061425f600083018461423b565b92915050565b600081519050919050565b600082825260208201905092915050565b60005b8381101561429f578082015181840152602081019050614284565b838111156142ae576000848401525b50505050565b6000601f19601f8301169050919050565b60006142d082614265565b6142da8185614270565b93506142ea818560208601614281565b6142f3816142b4565b840191505092915050565b6000602082019050818103600083015261431881846142c5565b905092915050565b6000819050919050565b61433381614320565b811461433e57600080fd5b50565b6000813590506143508161432a565b92915050565b60006020828403121561436c5761436b6141a0565b5b600061437a84828501614341565b91505092915050565b600073ffffffffffffffffffffffffffffffffffffffff82169050919050565b60006143ae82614383565b9050919050565b6143be816143a3565b82525050565b60006020820190506143d960008301846143b5565b92915050565b6143e8816143a3565b81146143f357600080fd5b50565b600081359050614405816143df565b92915050565b60008060408385031215614422576144216141a0565b5b6000614430858286016143f6565b925050602061444185828601614341565b9150509250929050565b600080fd5b600080fd5b600080fd5b60008083601f8401126144705761446f61444b565b5b8235905067ffffffffffffffff81111561448d5761448c614450565b5b6020830191508360208202830111156144a9576144a8614455565b5b9250929050565b600080602083850312156144c7576144c66141a0565b5b600083013567ffffffffffffffff8111156144e5576144e46141a5565b5b6144f18582860161445a565b92509250509250929050565b61450681614320565b82525050565b600060208201905061452160008301846144fd565b92915050565b60006020828403121561453d5761453c6141a0565b5b600061454b848285016143f6565b91505092915050565b60008060006060848603121561456d5761456c6141a0565b5b600061457b868287016143f6565b935050602061458c868287016143f6565b925050604061459d86828701614341565b9150509250925092565b6145b08161422f565b81146145bb57600080fd5b50565b6000813590506145cd816145a7565b92915050565b6000602082840312156145e9576145e86141a0565b5b60006145f7848285016145be565b91505092915050565b600081519050919050565b600082825260208201905092915050565b6000819050602082019050919050565b61463581614320565b82525050565b6000614647838361462c565b60208301905092915050565b6000602082019050919050565b600061466b82614600565b614675818561460b565b93506146808361461c565b8060005b838110156146b1578151614698888261463b565b97506146a383614653565b925050600181019050614684565b5085935050505092915050565b600060208201905081810360008301526146d88184614660565b905092915050565b600080604083850312156146f7576146f66141a0565b5b6000614705858286016143f6565b9250506020614716858286016145be565b9150509250929050565b600080fd5b7f4e487b7100000000000000000000000000000000000000000000000000000000600052604160045260246000fd5b61475d826142b4565b810181811067ffffffffffffffff8211171561477c5761477b614725565b5b80604052505050565b600061478f614196565b905061479b8282614754565b919050565b600067ffffffffffffffff8211156147bb576147ba614725565b5b6147c4826142b4565b9050602081019050919050565b82818337600083830152505050565b60006147f36147ee846147a0565b614785565b90508281526020810184848401111561480f5761480e614720565b5b61481a8482856147d1565b509392505050565b600082601f8301126148375761483661444b565b5b81356148478482602086016147e0565b91505092915050565b6000806000806080858703121561486a576148696141a0565b5b6000614878878288016143f6565b9450506020614889878288016143f6565b935050604061489a87828801614341565b925050606085013567ffffffffffffffff8111156148bb576148ba6141a5565b5b6148c787828801614822565b91505092959194509250565b600080604083850312156148ea576148e96141a0565b5b60006148f8858286016143f6565b9250506020614909858286016143f6565b9150509250929050565b7f4e487b7100000000000000000000000000000000000000000000000000000000600052602260045260246000fd5b6000600282049050600182168061495a57607f821691505b60208210810361496d5761496c614913565b5b50919050565b7f4552433732313a20617070726f76656420717565727920666f72206e6f6e657860008201527f697374656e7420746f6b656e0000000000000000000000000000000000000000602082015250565b60006149cf602c83614270565b91506149da82614973565b604082019050919050565b600060208201905081810360008301526149fe816149c2565b9050919050565b7f4552433732313a20617070726f76616c20746f2063757272656e74206f776e6560008201527f7200000000000000000000000000000000000000000000000000000000000000602082015250565b6000614a61602183614270565b9150614a6c82614a05565b604082019050919050565b60006020820190508181036000830152614a9081614a54565b9050919050565b7f4552433732313a20617070726f76652063616c6c6572206973206e6f74206f7760008201527f6e6572206e6f7220617070726f76656420666f7220616c6c0000000000000000602082015250565b6000614af3603883614270565b9150614afe82614a97565b604082019050919050565b60006020820190508181036000830152614b2281614ae6565b9050919050565b7f4f776e61626c653a2063616c6c6572206973206e6f7420746865206f776e6572600082015250565b6000614b5f602083614270565b9150614b6a82614b29565b602082019050919050565b60006020820190508181036000830152614b8e81614b52565b9050919050565b7f4552433732313a207472616e736665722063616c6c6572206973206e6f74206f60008201527f776e6572206e6f7220617070726f766564000000000000000000000000000000602082015250565b6000614bf1603183614270565b9150614bfc82614b95565b604082019050919050565b60006020820190508181036000830152614c2081614be4565b9050919050565b7f455243373231456e756d657261626c653a206f776e657220696e646578206f7560008201527f74206f6620626f756e6473000000000000000000000000000000000000000000602082015250565b6000614c83602b83614270565b9150614c8e82614c27565b604082019050919050565b60006020820190508181036000830152614cb281614c76565b9050919050565b600081905092915050565b50565b6000614cd4600083614cb9565b9150614cdf82614cc4565b600082019050919050565b6000614cf582614cc7565b9150819050919050565b7f4e487b7100000000000000000000000000000000000000000000000000000000600052603260045260246000fd5b7f4e487b7100000000000000000000000000000000000000000000000000000000600052601160045260246000fd5b6000614d6882614320565b91507fffffffffffffffffffffffffffffffffffffffffffffffffffffffffffffffff8203614d9a57614d99614d2e565b5b600182019050919050565b7f455243373231456e756d657261626c653a20676c6f62616c20696e646578206f60008201527f7574206f6620626f756e64730000000000000000000000000000000000000000602082015250565b6000614e01602c83614270565b9150614e0c82614da5565b604082019050919050565b60006020820190508181036000830152614e3081614df4565b9050919050565b6000614e4282614320565b9150614e4d83614320565b9250827fffffffffffffffffffffffffffffffffffffffffffffffffffffffffffffffff03821115614e8257614e81614d2e565b5b828201905092915050565b7f45786365656473204d617820537570706c790000000000000000000000000000600082015250565b6000614ec3601283614270565b9150614ece82614e8d565b602082019050919050565b60006020820190508181036000830152614ef281614eb6565b9050919050565b6000614f0482614320565b9150614f0f83614320565b9250817fffffffffffffffffffffffffffffffffffffffffffffffffffffffffffffffff0483118215151615614f4857614f47614d2e565b5b828202905092915050565b7f496e73756666696369656e742046756e64730000000000000000000000000000600082015250565b6000614f89601283614270565b9150614f9482614f53565b602082019050919050565b60006020820190508181036000830152614fb881614f7c565b9050919050565b7f55736572204973204e6f742057686974656c6973746564000000000000000000600082015250565b6000614ff5601783614270565b915061500082614fbf565b602082019050919050565b6000602082019050818103600083015261502481614fe8565b9050919050565b7f4552433732313a206f776e657220717565727920666f72206e6f6e657869737460008201527f656e7420746f6b656e0000000000000000000000000000000000000000000000602082015250565b6000615087602983614270565b91506150928261502b565b604082019050919050565b600060208201905081810360008301526150b68161507a565b9050919050565b7f4552433732313a2062616c616e636520717565727920666f7220746865207a6560008201527f726f206164647265737300000000000000000000000000000000000000000000602082015250565b6000615119602a83614270565b9150615124826150bd565b604082019050919050565b600060208201905081810360008301526151488161510c565b9050919050565b7f4552433732314d657461646174613a2055524920717565727920666f72206e6f60008201527f6e6578697374656e7420746f6b656e0000000000000000000000000000000000602082015250565b60006151ab602f83614270565b91506151b68261514f565b604082019050919050565b600060208201905081810360008301526151da8161519e565b9050919050565b600081905092915050565b60006151f782614265565b61520181856151e1565b9350615211818560208601614281565b80840191505092915050565b60008190508160005260206000209050919050565b6000815461523f81614942565b61524981866151e1565b945060018216600081146152645760018114615275576152a8565b60ff198316865281860193506152a8565b61527e8561521d565b60005b838110156152a057815481890152600182019150602081019050615281565b838801955050505b50505092915050565b60006152bd82866151ec565b91506152c982856151ec565b91506152d58284615232565b9150819050949350505050565b7f4f776e61626c653a206e6577206f776e657220697320746865207a65726f206160008201527f6464726573730000000000000000000000000000000000000000000000000000602082015250565b600061533e602683614270565b9150615349826152e2565b604082019050919050565b6000602082019050818103600083015261536d81615331565b9050919050565b7f4552433732313a206f70657261746f7220717565727920666f72206e6f6e657860008201527f697374656e7420746f6b656e0000000000000000000000000000000000000000602082015250565b60006153d0602c83614270565b91506153db82615374565b604082019050919050565b600060208201905081810360008301526153ff816153c3565b9050919050565b7f4552433732313a207472616e736665722066726f6d20696e636f72726563742060008201527f6f776e6572000000000000000000000000000000000000000000000000000000602082015250565b6000615462602583614270565b915061546d82615406565b604082019050919050565b6000602082019050818103600083015261549181615455565b9050919050565b7f4552433732313a207472616e7366657220746f20746865207a65726f2061646460008201527f7265737300000000000000000000000000000000000000000000000000000000602082015250565b60006154f4602483614270565b91506154ff82615498565b604082019050919050565b60006020820190508181036000830152615523816154e7565b9050919050565b600061553582614320565b915061554083614320565b92508282101561555357615552614d2e565b5b828203905092915050565b7f5061757361626c653a206e6f7420706175736564000000000000000000000000600082015250565b6000615594601483614270565b915061559f8261555e565b602082019050919050565b600060208201905081810360008301526155c381615587565b9050919050565b7f5061757361626c653a2070617573656400000000000000000000000000000000600082015250565b6000615600601083614270565b915061560b826155ca565b602082019050919050565b6000602082019050818103600083015261562f816155f3565b9050919050565b7f4552433732313a20617070726f766520746f2063616c6c657200000000000000600082015250565b600061566c601983614270565b915061567782615636565b602082019050919050565b6000602082019050818103600083015261569b8161565f565b9050919050565b7f4552433732313a207472616e7366657220746f206e6f6e20455243373231526560008201527f63656976657220696d706c656d656e7465720000000000000000000000000000602082015250565b60006156fe603283614270565b9150615709826156a2565b604082019050919050565b6000602082019050818103600083015261572d816156f1565b9050919050565b7f4e487b7100000000000000000000000000000000000000000000000000000000600052601260045260246000fd5b600061576e82614320565b915061577983614320565b92508261578957615788615734565b5b828204905092915050565b600061579f82614320565b91506157aa83614320565b9250826157ba576157b9615734565b5b828206905092915050565b600081519050919050565b600082825260208201905092915050565b60006157ec826157c5565b6157f681856157d0565b9350615806818560208601614281565b61580f816142b4565b840191505092915050565b600060808201905061582f60008301876143b5565b61583c60208301866143b5565b61584960408301856144fd565b818103606083015261585b81846157e1565b905095945050505050565b600081519050615875816141d6565b92915050565b600060208284031215615891576158906141a0565b5b600061589f84828501615866565b91505092915050565b7f4552433732313a206d696e7420746f20746865207a65726f2061646472657373600082015250565b60006158de602083614270565b91506158e9826158a8565b602082019050919050565b6000602082019050818103600083015261590d816158d1565b9050919050565b7f4552433732313a20746f6b656e20616c7265616479206d696e74656400000000600082015250565b600061594a601c83614270565b915061595582615914565b602082019050919050565b600060208201905081810360008301526159798161593d565b9050919050565b7f4e487b7100000000000000000000000000000000000000000000000000000000600052603160045260246000fdfe68747470733a2f2f676174657761792e70696e6174612e636c6f75642f697066732f516d5a466a6f77664c73455835625262526776396f6a764b436779546a6f71524236516b397871563734763842692f68747470733a2f2f676174657761792e70696e6174612e636c6f75642f697066732f516d4e63315866456636554e6658527861356841734e6d43736b3155556b32444e517033435574637971447373662f68747470733a2f2f676174657761792e70696e6174612e636c6f75642f697066732f516d5a6e625059767a6174586655624d6b315855554133557146716b6f6d71427131426d75454c7767507a4a54682f68747470733a2f2f676174657761792e70696e6174612e636c6f75642f697066732f516d6234436d756247316d3144576253635772416f4c5161566d63433477593642535532625336555871367367782fa2646970667358221220351c759d0aace1ceffcd4338e49d4b6920ea8d8cc26c8c3bf4d6cf2bef9450d464736f6c634300080e0033",
  "immutableReferences": {},
  "source": "// SPDX-License-Identifier: MIT\r\npragma solidity ^0.8.7;\r\n\r\nimport \"@openzeppelin/contracts/token/ERC721/ERC721.sol\";\r\nimport \"@openzeppelin/contracts/token/ERC721/extensions/ERC721Enumerable.sol\";\r\nimport \"@openzeppelin/contracts/token/ERC721/extensions/ERC721URIStorage.sol\";\r\nimport \"@openzeppelin/contracts/security/Pausable.sol\";\r\nimport \"@openzeppelin/contracts/access/Ownable.sol\";\r\nimport \"@openzeppelin/contracts/utils/Counters.sol\";\r\n\r\ncontract WagmiClub is\r\n    ERC721,\r\n    ERC721Enumerable,\r\n    ERC721URIStorage,\r\n    Pausable,\r\n    Ownable\r\n{\r\n    using Strings for uint256;\r\n    using Counters for Counters.Counter;\r\n\r\n    string public baseURI;\r\n    string public baseExtension = \".json\";\r\n    Counters.Counter private _tokenIdCounter;\r\n\r\n    uint256[999] public ids;\r\n    uint256 private index;\r\n\r\n    uint256 public totalSuperNova;\r\n    uint256 public totalNova;\r\n    uint256 public totalAurora;\r\n    uint256 public totalGenesis;\r\n\r\n    uint256 public costSuperNova = 0 ether;\r\n    uint256 public costNova = 0 ether;\r\n    uint256 public costAurora = 0 ether;\r\n    uint256 public costGenesis = 0 ether;\r\n\r\n    uint256 public maxSupply = 999;\r\n    bool public onlyWhitelisted = true;\r\n\r\n    address[] public whitelistSuperNova;\r\n    address[] public whitelistNova;\r\n    address[] public whitelistAurora;\r\n    address[] public whitelistGenesis;\r\n\r\n    mapping(address => uint256) public addressMintedBalance;\r\n\r\n    constructor() ERC721(\"Wagmi Club\", \"WC\") {}\r\n\r\n    function _baseURI() internal view virtual override returns (string memory) {\r\n        return baseURI;\r\n    }\r\n\r\n    function mintSuperNova(uint256 mintAmount) public payable {\r\n        uint256 supply = totalSupply();\r\n        require(supply + mintAmount <= maxSupply, \"Exceeds Max Supply\");\r\n        require(msg.value >= costSuperNova * mintAmount, \"Insufficient Funds\");\r\n\r\n        setBaseURI(\r\n            \"https://gateway.pinata.cloud/ipfs/Qmb4CmubG1m1DWbScWrAoLQaVmcC4wY6BSU2bS6UXq6sgx/\"\r\n        );\r\n\r\n        if (msg.sender != owner()) {\r\n            if (onlyWhitelisted == true) {\r\n                require(isSuperNova(msg.sender), \"User Is Not Whitelisted\");\r\n            }\r\n        }\r\n        uint256 tokenId = 0;\r\n        totalSuperNova += mintAmount;\r\n        _safeMint(msg.sender, tokenId + totalSuperNova);\r\n        delete whitelistSuperNova;\r\n    }\r\n\r\n    function mintNova(uint256 mintAmount) public payable {\r\n        uint256 supply = totalSupply();\r\n        require(supply + mintAmount <= maxSupply, \"Exceeds Max Supply\");\r\n        require(msg.value >= costNova * mintAmount, \"Insufficient Funds\");\r\n\r\n        setBaseURI(\r\n            \"https://gateway.pinata.cloud/ipfs/QmZnbPYvzatXfUbMk1XUUA3UqFqkomqBq1BmuELwgPzJTh/\"\r\n        );\r\n\r\n        if (msg.sender != owner()) {\r\n            if (onlyWhitelisted == true) {\r\n                require(isNova(msg.sender), \"User Is Not Whitelisted\");\r\n            }\r\n        }\r\n        uint256 tokenId = 9;\r\n        totalNova += mintAmount;\r\n        _safeMint(msg.sender, tokenId + totalNova);\r\n        delete whitelistNova;\r\n    }\r\n\r\n    function mintAurora(uint256 mintAmount) public payable {\r\n        uint256 supply = totalSupply();\r\n        require(supply + mintAmount <= maxSupply, \"Exceeds Max Supply\");\r\n        require(msg.value >= costAurora * mintAmount, \"Insufficient Funds\");\r\n\r\n        setBaseURI(\r\n            \"https://gateway.pinata.cloud/ipfs/QmNc1XfEf6UNfXRxa5hAsNmCsk1UUk2DNQp3CUtcyqDssf/\"\r\n        );\r\n\r\n        if (msg.sender != owner()) {\r\n            if (onlyWhitelisted == true) {\r\n                require(isAurora(msg.sender), \"User Is Not Whitelisted\");\r\n            }\r\n        }\r\n        uint256 tokenId = 99;\r\n        totalAurora += mintAmount;\r\n        _safeMint(msg.sender, tokenId + totalAurora);\r\n        delete whitelistAurora;\r\n    }\r\n\r\n    function mintGenesis(uint256 mintAmount) public payable {\r\n        uint256 supply = totalSupply();\r\n        require(supply + mintAmount <= maxSupply, \"Exceeds Max Supply\");\r\n        require(msg.value >= costGenesis * mintAmount, \"Insufficient Funds\");\r\n\r\n        setBaseURI(\r\n            \"https://gateway.pinata.cloud/ipfs/QmZFjowfLsEX5bRbRgv9ojvKCgyTjoqRB6Qk9xqV74v8Bi/\"\r\n        );\r\n\r\n        if (msg.sender != owner()) {\r\n            if (onlyWhitelisted == true) {\r\n                require(isGenesis(msg.sender), \"User Is Not Whitelisted\");\r\n            }\r\n        }\r\n        uint256 tokenId = 449;\r\n        totalGenesis += mintAmount;\r\n        _safeMint(msg.sender, tokenId + totalGenesis);\r\n        delete whitelistGenesis;\r\n    }\r\n\r\n    function isSuperNova(address _user) public view returns (bool) {\r\n        for (uint256 i = 0; i < whitelistSuperNova.length; i++) {\r\n            if (whitelistSuperNova[i] == _user) {\r\n                return true;\r\n            }\r\n        }\r\n        return false;\r\n    }\r\n\r\n    function isNova(address _user) public view returns (bool) {\r\n        for (uint256 i = 0; i < whitelistNova.length; i++) {\r\n            if (whitelistNova[i] == _user) {\r\n                return true;\r\n            }\r\n        }\r\n        return false;\r\n    }\r\n\r\n    function isAurora(address _user) public view returns (bool) {\r\n        for (uint256 i = 0; i < whitelistAurora.length; i++) {\r\n            if (whitelistAurora[i] == _user) {\r\n                return true;\r\n            }\r\n        }\r\n        return false;\r\n    }\r\n\r\n    function isGenesis(address _user) public view returns (bool) {\r\n        for (uint256 i = 0; i < whitelistGenesis.length; i++) {\r\n            if (whitelistGenesis[i] == _user) {\r\n                return true;\r\n            }\r\n        }\r\n        return false;\r\n    }\r\n\r\n    function _beforeTokenTransfer(\r\n        address from,\r\n        address to,\r\n        uint256 tokenId\r\n    ) internal override(ERC721, ERC721Enumerable) whenNotPaused {\r\n        super._beforeTokenTransfer(from, to, tokenId);\r\n    }\r\n\r\n    function setBaseURI(string memory _newBaseURI) private {\r\n        baseURI = _newBaseURI;\r\n    }\r\n\r\n    function _burn(uint256 tokenId)\r\n        internal\r\n        override(ERC721, ERC721URIStorage)\r\n    {\r\n        super._burn(tokenId);\r\n    }\r\n\r\n    function tokenURI(uint256 tokenId)\r\n        public\r\n        view\r\n        virtual\r\n        override(ERC721, ERC721URIStorage)\r\n        returns (string memory)\r\n    {\r\n        require(\r\n            _exists(tokenId),\r\n            \"ERC721Metadata: URI query for nonexistent token\"\r\n        );\r\n        string memory currentBaseURI = _baseURI();\r\n        return\r\n            bytes(currentBaseURI).length > 0\r\n                ? string(\r\n                    abi.encodePacked(\r\n                        currentBaseURI,\r\n                        Strings.toString(tokenId),\r\n                        baseExtension\r\n                    )\r\n                )\r\n                : \"\";\r\n    }\r\n\r\n    function supportsInterface(bytes4 interfaceId)\r\n        public\r\n        view\r\n        override(ERC721, ERC721Enumerable)\r\n        returns (bool)\r\n    {\r\n        return super.supportsInterface(interfaceId);\r\n    }\r\n\r\n    function walletOfOwner(address _owner)\r\n        public\r\n        view\r\n        returns (uint256[] memory)\r\n    {\r\n        uint256 ownerTokenCount = balanceOf(_owner);\r\n        uint256[] memory tokenIds = new uint256[](ownerTokenCount);\r\n        for (uint256 i; i < ownerTokenCount; i++) {\r\n            tokenIds[i] = tokenOfOwnerByIndex(_owner, i);\r\n        }\r\n        return tokenIds;\r\n    }\r\n\r\n    function withdraw() external payable onlyOwner {\r\n        (bool success, ) = payable(msg.sender).call{\r\n            value: address(this).balance\r\n        }(\"\");\r\n        require(success);\r\n    }\r\n\r\n    function setOnlyWhitelisted(bool _state) public onlyOwner {\r\n        onlyWhitelisted = _state;\r\n    }\r\n\r\n    function goSuperNova(address[] calldata _users) public onlyOwner {\r\n        delete whitelistSuperNova;\r\n        whitelistSuperNova = _users;\r\n    }\r\n\r\n    function goNova(address[] calldata _users) public onlyOwner {\r\n        delete whitelistNova;\r\n        whitelistNova = _users;\r\n    }\r\n\r\n    function goAurora(address[] calldata _users) public onlyOwner {\r\n        delete whitelistAurora;\r\n        whitelistAurora = _users;\r\n    }\r\n\r\n    function goGenesis(address[] calldata _users) public onlyOwner {\r\n        delete whitelistGenesis;\r\n        whitelistGenesis = _users;\r\n    }\r\n\r\n    function setCostSuperNova(uint256 _newCostSuperNova) public onlyOwner {\r\n        costSuperNova = _newCostSuperNova;\r\n    }\r\n\r\n    function setCostNova(uint256 _newCostNova) public onlyOwner {\r\n        costNova = _newCostNova;\r\n    }\r\n\r\n    function setCostAurora(uint256 _newCostAurora) public onlyOwner {\r\n        costAurora = _newCostAurora;\r\n    }\r\n\r\n    function setCostGenesis(uint256 _newCostGenesis) public onlyOwner {\r\n        costGenesis = _newCostGenesis;\r\n    }\r\n\r\n    function pause() public onlyOwner {\r\n        _pause();\r\n    }\r\n\r\n    function unpause() public onlyOwner {\r\n        _unpause();\r\n    }\r\n}\r\n",
  "sourcePath": "E:\\P_Work\\Blockchain\\wagmi-ts\\src\\contracts\\WagmiClub.sol",
  "compiler": {
    "name": "solc",
    "version": "0.8.14+commit.80d49f37.Emscripten.clang"
  },
  "schemaVersion": "3.4.3",
  "updatedAt": "2022-08-01T13:38:16.985Z",
  "devdoc": {
    "kind": "dev",
    "methods": {
      "approve(address,uint256)": {
        "details": "See {IERC721-approve}."
      },
      "balanceOf(address)": {
        "details": "See {IERC721-balanceOf}."
      },
      "getApproved(uint256)": {
        "details": "See {IERC721-getApproved}."
      },
      "isApprovedForAll(address,address)": {
        "details": "See {IERC721-isApprovedForAll}."
      },
      "name()": {
        "details": "See {IERC721Metadata-name}."
      },
      "owner()": {
        "details": "Returns the address of the current owner."
      },
      "ownerOf(uint256)": {
        "details": "See {IERC721-ownerOf}."
      },
      "paused()": {
        "details": "Returns true if the contract is paused, and false otherwise."
      },
      "renounceOwnership()": {
        "details": "Leaves the contract without owner. It will not be possible to call `onlyOwner` functions anymore. Can only be called by the current owner. NOTE: Renouncing ownership will leave the contract without an owner, thereby removing any functionality that is only available to the owner."
      },
      "safeTransferFrom(address,address,uint256)": {
        "details": "See {IERC721-safeTransferFrom}."
      },
      "safeTransferFrom(address,address,uint256,bytes)": {
        "details": "See {IERC721-safeTransferFrom}."
      },
      "setApprovalForAll(address,bool)": {
        "details": "See {IERC721-setApprovalForAll}."
      },
      "symbol()": {
        "details": "See {IERC721Metadata-symbol}."
      },
      "tokenByIndex(uint256)": {
        "details": "See {IERC721Enumerable-tokenByIndex}."
      },
      "tokenOfOwnerByIndex(address,uint256)": {
        "details": "See {IERC721Enumerable-tokenOfOwnerByIndex}."
      },
      "totalSupply()": {
        "details": "See {IERC721Enumerable-totalSupply}."
      },
      "transferFrom(address,address,uint256)": {
        "details": "See {IERC721-transferFrom}."
      },
      "transferOwnership(address)": {
        "details": "Transfers ownership of the contract to a new account (`newOwner`). Can only be called by the current owner."
      }
    },
    "version": 1
  },
  "userdoc": {
    "kind": "user",
    "methods": {},
    "version": 1
  }
}