{
  "contractName": "WagmiClub",
  "abi": [
    {
      "inputs": [],
      "stateMutability": "nonpayable",
      "type": "constructor"
    },
    {
      "anonymous": false,
      "inputs": [
        {
          "indexed": true,
          "internalType": "address",
          "name": "owner",
          "type": "address"
        },
        {
          "indexed": true,
          "internalType": "address",
          "name": "approved",
          "type": "address"
        },
        {
          "indexed": true,
          "internalType": "uint256",
          "name": "tokenId",
          "type": "uint256"
        }
      ],
      "name": "Approval",
      "type": "event"
    },
    {
      "anonymous": false,
      "inputs": [
        {
          "indexed": true,
          "internalType": "address",
          "name": "owner",
          "type": "address"
        },
        {
          "indexed": true,
          "internalType": "address",
          "name": "operator",
          "type": "address"
        },
        {
          "indexed": false,
          "internalType": "bool",
          "name": "approved",
          "type": "bool"
        }
      ],
      "name": "ApprovalForAll",
      "type": "event"
    },
    {
      "anonymous": false,
      "inputs": [
        {
          "indexed": true,
          "internalType": "address",
          "name": "previousOwner",
          "type": "address"
        },
        {
          "indexed": true,
          "internalType": "address",
          "name": "newOwner",
          "type": "address"
        }
      ],
      "name": "OwnershipTransferred",
      "type": "event"
    },
    {
      "anonymous": false,
      "inputs": [
        {
          "indexed": false,
          "internalType": "address",
          "name": "account",
          "type": "address"
        }
      ],
      "name": "Paused",
      "type": "event"
    },
    {
      "anonymous": false,
      "inputs": [
        {
          "indexed": true,
          "internalType": "address",
          "name": "from",
          "type": "address"
        },
        {
          "indexed": true,
          "internalType": "address",
          "name": "to",
          "type": "address"
        },
        {
          "indexed": true,
          "internalType": "uint256",
          "name": "tokenId",
          "type": "uint256"
        }
      ],
      "name": "Transfer",
      "type": "event"
    },
    {
      "anonymous": false,
      "inputs": [
        {
          "indexed": false,
          "internalType": "address",
          "name": "account",
          "type": "address"
        }
      ],
      "name": "Unpaused",
      "type": "event"
    },
    {
      "inputs": [
        {
          "internalType": "address",
          "name": "",
          "type": "address"
        }
      ],
      "name": "amountAurora",
      "outputs": [
        {
          "internalType": "uint256",
          "name": "",
          "type": "uint256"
        }
      ],
      "stateMutability": "view",
      "type": "function"
    },
    {
      "inputs": [
        {
          "internalType": "address",
          "name": "",
          "type": "address"
        }
      ],
      "name": "amountGenesis",
      "outputs": [
        {
          "internalType": "uint256",
          "name": "",
          "type": "uint256"
        }
      ],
      "stateMutability": "view",
      "type": "function"
    },
    {
      "inputs": [
        {
          "internalType": "address",
          "name": "",
          "type": "address"
        }
      ],
      "name": "amountNova",
      "outputs": [
        {
          "internalType": "uint256",
          "name": "",
          "type": "uint256"
        }
      ],
      "stateMutability": "view",
      "type": "function"
    },
    {
      "inputs": [
        {
          "internalType": "address",
          "name": "",
          "type": "address"
        }
      ],
      "name": "amountSuperNova",
      "outputs": [
        {
          "internalType": "uint256",
          "name": "",
          "type": "uint256"
        }
      ],
      "stateMutability": "view",
      "type": "function"
    },
    {
      "inputs": [
        {
          "internalType": "address",
          "name": "to",
          "type": "address"
        },
        {
          "internalType": "uint256",
          "name": "tokenId",
          "type": "uint256"
        }
      ],
      "name": "approve",
      "outputs": [],
      "stateMutability": "nonpayable",
      "type": "function"
    },
    {
      "inputs": [
        {
          "internalType": "address",
          "name": "owner",
          "type": "address"
        }
      ],
      "name": "balanceOf",
      "outputs": [
        {
          "internalType": "uint256",
          "name": "",
          "type": "uint256"
        }
      ],
      "stateMutability": "view",
      "type": "function"
    },
    {
      "inputs": [],
      "name": "baseExtension",
      "outputs": [
        {
          "internalType": "string",
          "name": "",
          "type": "string"
        }
      ],
      "stateMutability": "view",
      "type": "function"
    },
    {
      "inputs": [],
      "name": "baseURI",
      "outputs": [
        {
          "internalType": "string",
          "name": "",
          "type": "string"
        }
      ],
      "stateMutability": "view",
      "type": "function"
    },
    {
      "inputs": [],
      "name": "costAurora",
      "outputs": [
        {
          "internalType": "uint256",
          "name": "",
          "type": "uint256"
        }
      ],
      "stateMutability": "view",
      "type": "function"
    },
    {
      "inputs": [],
      "name": "costGenesis",
      "outputs": [
        {
          "internalType": "uint256",
          "name": "",
          "type": "uint256"
        }
      ],
      "stateMutability": "view",
      "type": "function"
    },
    {
      "inputs": [],
      "name": "costNova",
      "outputs": [
        {
          "internalType": "uint256",
          "name": "",
          "type": "uint256"
        }
      ],
      "stateMutability": "view",
      "type": "function"
    },
    {
      "inputs": [],
      "name": "costSuperNova",
      "outputs": [
        {
          "internalType": "uint256",
          "name": "",
          "type": "uint256"
        }
      ],
      "stateMutability": "view",
      "type": "function"
    },
    {
      "inputs": [
        {
          "internalType": "uint256",
          "name": "tokenId",
          "type": "uint256"
        }
      ],
      "name": "getApproved",
      "outputs": [
        {
          "internalType": "address",
          "name": "",
          "type": "address"
        }
      ],
      "stateMutability": "view",
      "type": "function"
    },
    {
      "inputs": [
        {
          "internalType": "uint256",
          "name": "",
          "type": "uint256"
        }
      ],
      "name": "ids",
      "outputs": [
        {
          "internalType": "uint256",
          "name": "",
          "type": "uint256"
        }
      ],
      "stateMutability": "view",
      "type": "function"
    },
    {
      "inputs": [
        {
          "internalType": "address",
          "name": "owner",
          "type": "address"
        },
        {
          "internalType": "address",
          "name": "operator",
          "type": "address"
        }
      ],
      "name": "isApprovedForAll",
      "outputs": [
        {
          "internalType": "bool",
          "name": "",
          "type": "bool"
        }
      ],
      "stateMutability": "view",
      "type": "function"
    },
    {
      "inputs": [],
      "name": "maxSupply",
      "outputs": [
        {
          "internalType": "uint256",
          "name": "",
          "type": "uint256"
        }
      ],
      "stateMutability": "view",
      "type": "function"
    },
    {
      "inputs": [],
      "name": "name",
      "outputs": [
        {
          "internalType": "string",
          "name": "",
          "type": "string"
        }
      ],
      "stateMutability": "view",
      "type": "function"
    },
    {
      "inputs": [],
      "name": "onlyWhitelisted",
      "outputs": [
        {
          "internalType": "bool",
          "name": "",
          "type": "bool"
        }
      ],
      "stateMutability": "view",
      "type": "function"
    },
    {
      "inputs": [],
      "name": "owner",
      "outputs": [
        {
          "internalType": "address",
          "name": "",
          "type": "address"
        }
      ],
      "stateMutability": "view",
      "type": "function"
    },
    {
      "inputs": [
        {
          "internalType": "uint256",
          "name": "tokenId",
          "type": "uint256"
        }
      ],
      "name": "ownerOf",
      "outputs": [
        {
          "internalType": "address",
          "name": "",
          "type": "address"
        }
      ],
      "stateMutability": "view",
      "type": "function"
    },
    {
      "inputs": [],
      "name": "paused",
      "outputs": [
        {
          "internalType": "bool",
          "name": "",
          "type": "bool"
        }
      ],
      "stateMutability": "view",
      "type": "function"
    },
    {
      "inputs": [],
      "name": "renounceOwnership",
      "outputs": [],
      "stateMutability": "nonpayable",
      "type": "function"
    },
    {
      "inputs": [
        {
          "internalType": "address",
          "name": "from",
          "type": "address"
        },
        {
          "internalType": "address",
          "name": "to",
          "type": "address"
        },
        {
          "internalType": "uint256",
          "name": "tokenId",
          "type": "uint256"
        }
      ],
      "name": "safeTransferFrom",
      "outputs": [],
      "stateMutability": "nonpayable",
      "type": "function"
    },
    {
      "inputs": [
        {
          "internalType": "address",
          "name": "from",
          "type": "address"
        },
        {
          "internalType": "address",
          "name": "to",
          "type": "address"
        },
        {
          "internalType": "uint256",
          "name": "tokenId",
          "type": "uint256"
        },
        {
          "internalType": "bytes",
          "name": "_data",
          "type": "bytes"
        }
      ],
      "name": "safeTransferFrom",
      "outputs": [],
      "stateMutability": "nonpayable",
      "type": "function"
    },
    {
      "inputs": [
        {
          "internalType": "address",
          "name": "operator",
          "type": "address"
        },
        {
          "internalType": "bool",
          "name": "approved",
          "type": "bool"
        }
      ],
      "name": "setApprovalForAll",
      "outputs": [],
      "stateMutability": "nonpayable",
      "type": "function"
    },
    {
      "inputs": [],
      "name": "symbol",
      "outputs": [
        {
          "internalType": "string",
          "name": "",
          "type": "string"
        }
      ],
      "stateMutability": "view",
      "type": "function"
    },
    {
      "inputs": [
        {
          "internalType": "uint256",
          "name": "index",
          "type": "uint256"
        }
      ],
      "name": "tokenByIndex",
      "outputs": [
        {
          "internalType": "uint256",
          "name": "",
          "type": "uint256"
        }
      ],
      "stateMutability": "view",
      "type": "function"
    },
    {
      "inputs": [
        {
          "internalType": "address",
          "name": "owner",
          "type": "address"
        },
        {
          "internalType": "uint256",
          "name": "index",
          "type": "uint256"
        }
      ],
      "name": "tokenOfOwnerByIndex",
      "outputs": [
        {
          "internalType": "uint256",
          "name": "",
          "type": "uint256"
        }
      ],
      "stateMutability": "view",
      "type": "function"
    },
    {
      "inputs": [],
      "name": "totalAurora",
      "outputs": [
        {
          "internalType": "uint256",
          "name": "",
          "type": "uint256"
        }
      ],
      "stateMutability": "view",
      "type": "function"
    },
    {
      "inputs": [],
      "name": "totalGenesis",
      "outputs": [
        {
          "internalType": "uint256",
          "name": "",
          "type": "uint256"
        }
      ],
      "stateMutability": "view",
      "type": "function"
    },
    {
      "inputs": [
        {
          "internalType": "address",
          "name": "",
          "type": "address"
        }
      ],
      "name": "totalMintAurora",
      "outputs": [
        {
          "internalType": "uint256",
          "name": "",
          "type": "uint256"
        }
      ],
      "stateMutability": "view",
      "type": "function"
    },
    {
      "inputs": [
        {
          "internalType": "address",
          "name": "",
          "type": "address"
        }
      ],
      "name": "totalMintGenesis",
      "outputs": [
        {
          "internalType": "uint256",
          "name": "",
          "type": "uint256"
        }
      ],
      "stateMutability": "view",
      "type": "function"
    },
    {
      "inputs": [
        {
          "internalType": "address",
          "name": "",
          "type": "address"
        }
      ],
      "name": "totalMintNova",
      "outputs": [
        {
          "internalType": "uint256",
          "name": "",
          "type": "uint256"
        }
      ],
      "stateMutability": "view",
      "type": "function"
    },
    {
      "inputs": [
        {
          "internalType": "address",
          "name": "",
          "type": "address"
        }
      ],
      "name": "totalMintSuperNova",
      "outputs": [
        {
          "internalType": "uint256",
          "name": "",
          "type": "uint256"
        }
      ],
      "stateMutability": "view",
      "type": "function"
    },
    {
      "inputs": [],
      "name": "totalNova",
      "outputs": [
        {
          "internalType": "uint256",
          "name": "",
          "type": "uint256"
        }
      ],
      "stateMutability": "view",
      "type": "function"
    },
    {
      "inputs": [],
      "name": "totalSuperNova",
      "outputs": [
        {
          "internalType": "uint256",
          "name": "",
          "type": "uint256"
        }
      ],
      "stateMutability": "view",
      "type": "function"
    },
    {
      "inputs": [],
      "name": "totalSupply",
      "outputs": [
        {
          "internalType": "uint256",
          "name": "",
          "type": "uint256"
        }
      ],
      "stateMutability": "view",
      "type": "function"
    },
    {
      "inputs": [
        {
          "internalType": "address",
          "name": "from",
          "type": "address"
        },
        {
          "internalType": "address",
          "name": "to",
          "type": "address"
        },
        {
          "internalType": "uint256",
          "name": "tokenId",
          "type": "uint256"
        }
      ],
      "name": "transferFrom",
      "outputs": [],
      "stateMutability": "nonpayable",
      "type": "function"
    },
    {
      "inputs": [
        {
          "internalType": "address",
          "name": "newOwner",
          "type": "address"
        }
      ],
      "name": "transferOwnership",
      "outputs": [],
      "stateMutability": "nonpayable",
      "type": "function"
    },
    {
      "inputs": [
        {
          "internalType": "address",
          "name": "",
          "type": "address"
        }
      ],
      "name": "whitelistAurora",
      "outputs": [
        {
          "internalType": "bool",
          "name": "",
          "type": "bool"
        }
      ],
      "stateMutability": "view",
      "type": "function"
    },
    {
      "inputs": [
        {
          "internalType": "address",
          "name": "",
          "type": "address"
        }
      ],
      "name": "whitelistGenesis",
      "outputs": [
        {
          "internalType": "bool",
          "name": "",
          "type": "bool"
        }
      ],
      "stateMutability": "view",
      "type": "function"
    },
    {
      "inputs": [
        {
          "internalType": "address",
          "name": "",
          "type": "address"
        }
      ],
      "name": "whitelistNova",
      "outputs": [
        {
          "internalType": "bool",
          "name": "",
          "type": "bool"
        }
      ],
      "stateMutability": "view",
      "type": "function"
    },
    {
      "inputs": [
        {
          "internalType": "address",
          "name": "",
          "type": "address"
        }
      ],
      "name": "whitelistSuperNova",
      "outputs": [
        {
          "internalType": "bool",
          "name": "",
          "type": "bool"
        }
      ],
      "stateMutability": "view",
      "type": "function"
    },
    {
      "inputs": [
        {
          "internalType": "uint256",
          "name": "mintAmount",
          "type": "uint256"
        }
      ],
      "name": "mintSuperNova",
      "outputs": [],
      "stateMutability": "payable",
      "type": "function"
    },
    {
      "inputs": [
        {
          "internalType": "uint256",
          "name": "mintAmount",
          "type": "uint256"
        }
      ],
      "name": "mintNova",
      "outputs": [],
      "stateMutability": "payable",
      "type": "function"
    },
    {
      "inputs": [
        {
          "internalType": "uint256",
          "name": "mintAmount",
          "type": "uint256"
        }
      ],
      "name": "mintAurora",
      "outputs": [],
      "stateMutability": "payable",
      "type": "function"
    },
    {
      "inputs": [
        {
          "internalType": "uint256",
          "name": "mintAmount",
          "type": "uint256"
        }
      ],
      "name": "mintGenesis",
      "outputs": [],
      "stateMutability": "payable",
      "type": "function"
    },
    {
      "inputs": [
        {
          "internalType": "uint256",
          "name": "tokenId",
          "type": "uint256"
        }
      ],
      "name": "tokenURI",
      "outputs": [
        {
          "internalType": "string",
          "name": "",
          "type": "string"
        }
      ],
      "stateMutability": "view",
      "type": "function"
    },
    {
      "inputs": [
        {
          "internalType": "bytes4",
          "name": "interfaceId",
          "type": "bytes4"
        }
      ],
      "name": "supportsInterface",
      "outputs": [
        {
          "internalType": "bool",
          "name": "",
          "type": "bool"
        }
      ],
      "stateMutability": "view",
      "type": "function"
    },
    {
      "inputs": [
        {
          "internalType": "address",
          "name": "_owner",
          "type": "address"
        }
      ],
      "name": "walletOfOwner",
      "outputs": [
        {
          "internalType": "uint256[]",
          "name": "",
          "type": "uint256[]"
        }
      ],
      "stateMutability": "view",
      "type": "function"
    },
    {
      "inputs": [],
      "name": "withdraw",
      "outputs": [],
      "stateMutability": "payable",
      "type": "function"
    },
    {
      "inputs": [
        {
          "internalType": "bool",
          "name": "_state",
          "type": "bool"
        }
      ],
      "name": "setOnlyWhitelisted",
      "outputs": [],
      "stateMutability": "nonpayable",
      "type": "function"
    },
    {
      "inputs": [
        {
          "internalType": "address[]",
          "name": "_users",
          "type": "address[]"
        },
        {
          "internalType": "uint256",
          "name": "allowedAmount",
          "type": "uint256"
        }
      ],
      "name": "goSuperNova",
      "outputs": [],
      "stateMutability": "nonpayable",
      "type": "function"
    },
    {
      "inputs": [
        {
          "internalType": "address[]",
          "name": "_users",
          "type": "address[]"
        },
        {
          "internalType": "uint256",
          "name": "allowedAmount",
          "type": "uint256"
        }
      ],
      "name": "goNova",
      "outputs": [],
      "stateMutability": "nonpayable",
      "type": "function"
    },
    {
      "inputs": [
        {
          "internalType": "address[]",
          "name": "_users",
          "type": "address[]"
        },
        {
          "internalType": "uint256",
          "name": "allowedAmount",
          "type": "uint256"
        }
      ],
      "name": "goAurora",
      "outputs": [],
      "stateMutability": "nonpayable",
      "type": "function"
    },
    {
      "inputs": [
        {
          "internalType": "address[]",
          "name": "_users",
          "type": "address[]"
        },
        {
          "internalType": "uint256",
          "name": "allowedAmount",
          "type": "uint256"
        }
      ],
      "name": "goGenesis",
      "outputs": [],
      "stateMutability": "nonpayable",
      "type": "function"
    },
    {
      "inputs": [
        {
          "internalType": "uint256",
          "name": "_newCostSuperNova",
          "type": "uint256"
        }
      ],
      "name": "setCostSuperNova",
      "outputs": [],
      "stateMutability": "nonpayable",
      "type": "function"
    },
    {
      "inputs": [
        {
          "internalType": "uint256",
          "name": "_newCostNova",
          "type": "uint256"
        }
      ],
      "name": "setCostNova",
      "outputs": [],
      "stateMutability": "nonpayable",
      "type": "function"
    },
    {
      "inputs": [
        {
          "internalType": "uint256",
          "name": "_newCostAurora",
          "type": "uint256"
        }
      ],
      "name": "setCostAurora",
      "outputs": [],
      "stateMutability": "nonpayable",
      "type": "function"
    },
    {
      "inputs": [
        {
          "internalType": "uint256",
          "name": "_newCostGenesis",
          "type": "uint256"
        }
      ],
      "name": "setCostGenesis",
      "outputs": [],
      "stateMutability": "nonpayable",
      "type": "function"
    },
    {
      "inputs": [],
      "name": "pause",
      "outputs": [],
      "stateMutability": "nonpayable",
      "type": "function"
    },
    {
      "inputs": [],
      "name": "unpause",
      "outputs": [],
      "stateMutability": "nonpayable",
      "type": "function"
    }
  ],
  "bytecode": "0x60806040526040518060400160405280600581526020017f2e6a736f6e000000000000000000000000000000000000000000000000000000815250600d9080519060200190620000519291906200024a565b5060006103fa5560006103fb5560006103fc5560006103fd556103e76103fe5560016103ff60006101000a81548160ff0219169083151502179055503480156200009a57600080fd5b506040518060400160405280600a81526020017f5761676d6920436c7562000000000000000000000000000000000000000000008152506040518060400160405280600281526020017f574300000000000000000000000000000000000000000000000000000000000081525081600090805190602001906200011f9291906200024a565b508060019080519060200190620001389291906200024a565b5050506000600b60006101000a81548160ff021916908315150217905550620001766200016a6200017c60201b60201c565b6200018460201b60201c565b6200035e565b600033905090565b6000600b60019054906101000a900473ffffffffffffffffffffffffffffffffffffffff16905081600b60016101000a81548173ffffffffffffffffffffffffffffffffffffffff021916908373ffffffffffffffffffffffffffffffffffffffff1602179055508173ffffffffffffffffffffffffffffffffffffffff168173ffffffffffffffffffffffffffffffffffffffff167f8be0079c531659141344cd1fd0a4f28419497f9722a3daafe3b4186f6b6457e060405160405180910390a35050565b828054620002589062000329565b90600052602060002090601f0160209004810192826200027c5760008555620002c8565b82601f106200029757805160ff1916838001178555620002c8565b82800160010185558215620002c8579182015b82811115620002c7578251825591602001919060010190620002aa565b5b509050620002d79190620002db565b5090565b5b80821115620002f6576000816000905550600101620002dc565b5090565b7f4e487b7100000000000000000000000000000000000000000000000000000000600052602260045260246000fd5b600060028204905060018216806200034257607f821691505b602082108103620003585762000357620002fa565b5b50919050565b616396806200036e6000396000f3fe6080604052600436106103ad5760003560e01c806376a7b395116101e7578063b9b0dd381161010d578063d5abeb01116100a0578063e71aa0291161006f578063e71aa02914610e11578063e985e9c514610e4e578063f2fde38b14610e8b578063fac333ac14610eb4576103ad565b8063d5abeb0114610d76578063daab9c1a14610da1578063dd23a99d14610dca578063dff6324314610df5576103ad565b8063c59b7c9b116100dc578063c59b7c9b14610c94578063c668286214610cd1578063c80289e614610cfc578063c87b56dd14610d39576103ad565b8063b9b0dd3814610bc6578063bb29f81114610c03578063bc6ecf2714610c2c578063c3bb96b214610c57576103ad565b80638f5d4c15116101855780639c70b512116101545780639c70b51214610b1e578063a104d7ed14610b49578063a22cb46514610b74578063b88d4fde14610b9d576103ad565b80638f5d4c1514610a625780639326cf8714610a8b57806395d89b4114610ab6578063977657cf14610ae1576103ad565b80638456cb59116101c15780638456cb59146109d95780638c128e5b146109f05780638da5cb5b14610a0c5780638da93e1914610a37576103ad565b806376a7b395146109485780637eec30ea1461097157806380609736146109ae576103ad565b80633c952764116102d757806357141dee1161026a5780636b227dd1116102395780636b227dd1146108a05780636c0360eb146108c957806370a08231146108f4578063715018a614610931576103ad565b806357141dee146107d05780635c975abb146107fb578063630fc413146108265780636352211e14610863576103ad565b8063438b6300116102a6578063438b63001461071e5780634f6ccce71461075b57806355f2190414610798578063568725d4146107b4576103ad565b80633c952764146106ab5780633ccfd60b146106d45780633f4ba83a146106de57806342842e0e146106f5576103ad565b806318160ddd1161034f57806329ffb0561161031e57806329ffb056146105dd5780632f745c591461061a5780633accd93a146106575780633b4fd38e14610682576103ad565b806318160ddd1461052357806319c876ab1461054e5780632345d38c1461058b57806323b872dd146105b4576103ad565b8063081812fc1161038b578063081812fc14610457578063095ea7b3146104945780630c722988146104bd57806312b10857146104e6576103ad565b806301ffc9a7146103b257806306fdde03146103ef578063077c1ee91461041a575b600080fd5b3480156103be57600080fd5b506103d960048036038101906103d4919061498c565b610ef1565b6040516103e691906149d4565b60405180910390f35b3480156103fb57600080fd5b50610404610f03565b6040516104119190614a88565b60405180910390f35b34801561042657600080fd5b50610441600480360381019061043c9190614b08565b610f95565b60405161044e91906149d4565b60405180910390f35b34801561046357600080fd5b5061047e60048036038101906104799190614b6b565b610fb6565b60405161048b9190614ba7565b60405180910390f35b3480156104a057600080fd5b506104bb60048036038101906104b69190614bc2565b61103b565b005b3480156104c957600080fd5b506104e460048036038101906104df9190614b6b565b611152565b005b3480156104f257600080fd5b5061050d60048036038101906105089190614b08565b6111d9565b60405161051a9190614c11565b60405180910390f35b34801561052f57600080fd5b506105386111f2565b6040516105459190614c11565b60405180910390f35b34801561055a57600080fd5b5061057560048036038101906105709190614b08565b6111ff565b6040516105829190614c11565b60405180910390f35b34801561059757600080fd5b506105b260048036038101906105ad9190614d74565b611218565b005b3480156105c057600080fd5b506105db60048036038101906105d69190614dd0565b6113eb565b005b3480156105e957600080fd5b5061060460048036038101906105ff9190614b08565b61144b565b60405161061191906149d4565b60405180910390f35b34801561062657600080fd5b50610641600480360381019061063c9190614bc2565b61146c565b60405161064e9190614c11565b60405180910390f35b34801561066357600080fd5b5061066c611511565b6040516106799190614c11565b60405180910390f35b34801561068e57600080fd5b506106a960048036038101906106a49190614b6b565b611518565b005b3480156106b757600080fd5b506106d260048036038101906106cd9190614e4f565b61159f565b005b6106dc611639565b005b3480156106ea57600080fd5b506106f361172e565b005b34801561070157600080fd5b5061071c60048036038101906107179190614dd0565b6117b4565b005b34801561072a57600080fd5b5061074560048036038101906107409190614b08565b6117d4565b6040516107529190614f3a565b60405180910390f35b34801561076757600080fd5b50610782600480360381019061077d9190614b6b565b611882565b60405161078f9190614c11565b60405180910390f35b6107b260048036038101906107ad9190614b6b565b6118f3565b005b6107ce60048036038101906107c99190614b6b565b611bf9565b005b3480156107dc57600080fd5b506107e5611f03565b6040516107f29190614c11565b60405180910390f35b34801561080757600080fd5b50610810611f0a565b60405161081d91906149d4565b60405180910390f35b34801561083257600080fd5b5061084d60048036038101906108489190614b08565b611f21565b60405161085a9190614c11565b60405180910390f35b34801561086f57600080fd5b5061088a60048036038101906108859190614b6b565b611f3a565b6040516108979190614ba7565b60405180910390f35b3480156108ac57600080fd5b506108c760048036038101906108c29190614b6b565b611feb565b005b3480156108d557600080fd5b506108de612072565b6040516108eb9190614a88565b60405180910390f35b34801561090057600080fd5b5061091b60048036038101906109169190614b08565b612100565b6040516109289190614c11565b60405180910390f35b34801561093d57600080fd5b506109466121b7565b005b34801561095457600080fd5b5061096f600480360381019061096a9190614d74565b61223f565b005b34801561097d57600080fd5b5061099860048036038101906109939190614b08565b612412565b6040516109a59190614c11565b60405180910390f35b3480156109ba57600080fd5b506109c361242b565b6040516109d09190614c11565b60405180910390f35b3480156109e557600080fd5b506109ee612432565b005b610a0a6004803603810190610a059190614b6b565b6124b8565b005b348015610a1857600080fd5b50610a216127c2565b604051610a2e9190614ba7565b60405180910390f35b348015610a4357600080fd5b50610a4c6127ec565b604051610a599190614c11565b60405180910390f35b348015610a6e57600080fd5b50610a896004803603810190610a849190614b6b565b6127f3565b005b348015610a9757600080fd5b50610aa061287a565b604051610aad9190614c11565b60405180910390f35b348015610ac257600080fd5b50610acb612881565b604051610ad89190614a88565b60405180910390f35b348015610aed57600080fd5b50610b086004803603810190610b039190614b08565b612913565b604051610b159190614c11565b60405180910390f35b348015610b2a57600080fd5b50610b3361292c565b604051610b4091906149d4565b60405180910390f35b348015610b5557600080fd5b50610b5e612940565b604051610b6b9190614c11565b60405180910390f35b348015610b8057600080fd5b50610b9b6004803603810190610b969190614f5c565b612947565b005b348015610ba957600080fd5b50610bc46004803603810190610bbf9190615051565b61295d565b005b348015610bd257600080fd5b50610bed6004803603810190610be89190614b08565b6129bf565b604051610bfa91906149d4565b60405180910390f35b348015610c0f57600080fd5b50610c2a6004803603810190610c259190614d74565b6129e0565b005b348015610c3857600080fd5b50610c41612bb3565b604051610c4e9190614c11565b60405180910390f35b348015610c6357600080fd5b50610c7e6004803603810190610c799190614b08565b612bba565b604051610c8b9190614c11565b60405180910390f35b348015610ca057600080fd5b50610cbb6004803603810190610cb69190614b08565b612bd3565b604051610cc89190614c11565b60405180910390f35b348015610cdd57600080fd5b50610ce6612bec565b604051610cf39190614a88565b60405180910390f35b348015610d0857600080fd5b50610d236004803603810190610d1e9190614b08565b612c7a565b604051610d3091906149d4565b60405180910390f35b348015610d4557600080fd5b50610d606004803603810190610d5b9190614b6b565b612c9b565b604051610d6d9190614a88565b60405180910390f35b348015610d8257600080fd5b50610d8b612d45565b604051610d989190614c11565b60405180910390f35b348015610dad57600080fd5b50610dc86004803603810190610dc39190614d74565b612d4c565b005b348015610dd657600080fd5b50610ddf612f1f565b604051610dec9190614c11565b60405180910390f35b610e0f6004803603810190610e0a9190614b6b565b612f26565b005b348015610e1d57600080fd5b50610e386004803603810190610e339190614b08565b613231565b604051610e459190614c11565b60405180910390f35b348015610e5a57600080fd5b50610e756004803603810190610e7091906150d4565b61324a565b604051610e8291906149d4565b60405180910390f35b348015610e9757600080fd5b50610eb26004803603810190610ead9190614b08565b6132de565b005b348015610ec057600080fd5b50610edb6004803603810190610ed69190614b6b565b6133d5565b604051610ee89190614c11565b60405180910390f35b6000610efc826133f1565b9050919050565b606060008054610f1290615143565b80601f0160208091040260200160405190810160405280929190818152602001828054610f3e90615143565b8015610f8b5780601f10610f6057610100808354040283529160200191610f8b565b820191906000526020600020905b815481529060010190602001808311610f6e57829003601f168201915b5050505050905090565b6104096020528060005260406000206000915054906101000a900460ff1681565b6000610fc18261346b565b611000576040517f08c379a0000000000000000000000000000000000000000000000000000000008152600401610ff7906151e6565b60405180910390fd5b6004600083815260200190815260200160002060009054906101000a900473ffffffffffffffffffffffffffffffffffffffff169050919050565b600061104682611f3a565b90508073ffffffffffffffffffffffffffffffffffffffff168373ffffffffffffffffffffffffffffffffffffffff16036110b6576040517f08c379a00000000000000000000000000000000000000000000000000000000081526004016110ad90615278565b60405180910390fd5b8073ffffffffffffffffffffffffffffffffffffffff166110d56134d7565b73ffffffffffffffffffffffffffffffffffffffff1614806111045750611103816110fe6134d7565b61324a565b5b611143576040517f08c379a000000000000000000000000000000000000000000000000000000000815260040161113a9061530a565b60405180910390fd5b61114d83836134df565b505050565b61115a6134d7565b73ffffffffffffffffffffffffffffffffffffffff166111786127c2565b73ffffffffffffffffffffffffffffffffffffffff16146111ce576040517f08c379a00000000000000000000000000000000000000000000000000000000081526004016111c590615376565b60405180910390fd5b806103fa8190555050565b6104046020528060005260406000206000915090505481565b6000600880549050905090565b6104026020528060005260406000206000915090505481565b6112206134d7565b73ffffffffffffffffffffffffffffffffffffffff1661123e6127c2565b73ffffffffffffffffffffffffffffffffffffffff1614611294576040517f08c379a000000000000000000000000000000000000000000000000000000000815260040161128b90615376565b60405180910390fd5b60005b82518110156113e657600073ffffffffffffffffffffffffffffffffffffffff168382815181106112cb576112ca615396565b5b602002602001015173ffffffffffffffffffffffffffffffffffffffff16146113d3576001610406600085848151811061130857611307615396565b5b602002602001015173ffffffffffffffffffffffffffffffffffffffff1673ffffffffffffffffffffffffffffffffffffffff16815260200190815260200160002060006101000a81548160ff02191690831515021790555081610407600085848151811061137a57611379615396565b5b602002602001015173ffffffffffffffffffffffffffffffffffffffff1673ffffffffffffffffffffffffffffffffffffffff16815260200190815260200160002060008282546113cb91906153f4565b925050819055505b80806113de9061544a565b915050611297565b505050565b6113fc6113f66134d7565b82613598565b61143b576040517f08c379a000000000000000000000000000000000000000000000000000000000815260040161143290615504565b60405180910390fd5b611446838383613676565b505050565b6104006020528060005260406000206000915054906101000a900460ff1681565b600061147783612100565b82106114b8576040517f08c379a00000000000000000000000000000000000000000000000000000000081526004016114af90615596565b60405180910390fd5b600660008473ffffffffffffffffffffffffffffffffffffffff1673ffffffffffffffffffffffffffffffffffffffff168152602001908152602001600020600083815260200190815260200160002054905092915050565b6103fb5481565b6115206134d7565b73ffffffffffffffffffffffffffffffffffffffff1661153e6127c2565b73ffffffffffffffffffffffffffffffffffffffff1614611594576040517f08c379a000000000000000000000000000000000000000000000000000000000815260040161158b90615376565b60405180910390fd5b806103fc8190555050565b6115a76134d7565b73ffffffffffffffffffffffffffffffffffffffff166115c56127c2565b73ffffffffffffffffffffffffffffffffffffffff161461161b576040517f08c379a000000000000000000000000000000000000000000000000000000000815260040161161290615376565b60405180910390fd5b806103ff60006101000a81548160ff02191690831515021790555050565b6116416134d7565b73ffffffffffffffffffffffffffffffffffffffff1661165f6127c2565b73ffffffffffffffffffffffffffffffffffffffff16146116b5576040517f08c379a00000000000000000000000000000000000000000000000000000000081526004016116ac90615376565b60405180910390fd5b60003373ffffffffffffffffffffffffffffffffffffffff16476040516116db906155e7565b60006040518083038185875af1925050503d8060008114611718576040519150601f19603f3d011682016040523d82523d6000602084013e61171d565b606091505b505090508061172b57600080fd5b50565b6117366134d7565b73ffffffffffffffffffffffffffffffffffffffff166117546127c2565b73ffffffffffffffffffffffffffffffffffffffff16146117aa576040517f08c379a00000000000000000000000000000000000000000000000000000000081526004016117a190615376565b60405180910390fd5b6117b26138dc565b565b6117cf8383836040518060200160405280600081525061295d565b505050565b606060006117e183612100565b905060008167ffffffffffffffff8111156117ff576117fe614c31565b5b60405190808252806020026020018201604052801561182d5781602001602082028036833780820191505090505b50905060005b8281101561187757611845858261146c565b82828151811061185857611857615396565b5b602002602001018181525050808061186f9061544a565b915050611833565b508092505050919050565b600061188c6111f2565b82106118cd576040517f08c379a00000000000000000000000000000000000000000000000000000000081526004016118c49061566e565b60405180910390fd5b600882815481106118e1576118e0615396565b5b90600052602060002001549050919050565b60006118fd6111f2565b90506103fe54828261190f91906153f4565b1115611950576040517f08c379a0000000000000000000000000000000000000000000000000000000008152600401611947906156da565b60405180910390fd5b816103fa5461195f91906156fa565b3410156119a1576040517f08c379a0000000000000000000000000000000000000000000000000000000008152600401611998906157a0565b60405180910390fd5b6119c26040518060800160405280605181526020016163106051913961397e565b6119ca6127c2565b73ffffffffffffffffffffffffffffffffffffffff163373ffffffffffffffffffffffffffffffffffffffff1614611b6957600115156103ff60009054906101000a900460ff16151503611b685761040060003373ffffffffffffffffffffffffffffffffffffffff1673ffffffffffffffffffffffffffffffffffffffff16815260200190815260200160002060009054906101000a900460ff16611aa5576040517f08c379a0000000000000000000000000000000000000000000000000000000008152600401611a9c9061580c565b60405180910390fd5b61040160003373ffffffffffffffffffffffffffffffffffffffff1673ffffffffffffffffffffffffffffffffffffffff1681526020019081526020016000205461040260003373ffffffffffffffffffffffffffffffffffffffff1673ffffffffffffffffffffffffffffffffffffffff1681526020019081526020016000205410611b67576040517f08c379a0000000000000000000000000000000000000000000000000000000008152600401611b5e90615878565b60405180910390fd5b5b5b6000826103f66000828254611b7e91906153f4565b925050819055508261040260003373ffffffffffffffffffffffffffffffffffffffff1673ffffffffffffffffffffffffffffffffffffffff1681526020019081526020016000206000828254611bd591906153f4565b92505081905550611bf4336103f65483611bef91906153f4565b613998565b505050565b6000611c036111f2565b90506103fe548282611c1591906153f4565b1115611c56576040517f08c379a0000000000000000000000000000000000000000000000000000000008152600401611c4d906156da565b60405180910390fd5b816103fb54611c6591906156fa565b341015611ca7576040517f08c379a0000000000000000000000000000000000000000000000000000000008152600401611c9e906157a0565b60405180910390fd5b611cc86040518060800160405280605181526020016162bf6051913961397e565b611cd06127c2565b73ffffffffffffffffffffffffffffffffffffffff163373ffffffffffffffffffffffffffffffffffffffff1614611e6f57600115156103ff60009054906101000a900460ff16151503611e6e5761040360003373ffffffffffffffffffffffffffffffffffffffff1673ffffffffffffffffffffffffffffffffffffffff16815260200190815260200160002060009054906101000a900460ff16611dab576040517f08c379a0000000000000000000000000000000000000000000000000000000008152600401611da29061580c565b60405180910390fd5b61040460003373ffffffffffffffffffffffffffffffffffffffff1673ffffffffffffffffffffffffffffffffffffffff1681526020019081526020016000205461040560003373ffffffffffffffffffffffffffffffffffffffff1673ffffffffffffffffffffffffffffffffffffffff1681526020019081526020016000205410611e6d576040517f08c379a0000000000000000000000000000000000000000000000000000000008152600401611e6490615878565b60405180910390fd5b5b5b600060099050826103f76000828254611e8891906153f4565b925050819055508261040560003373ffffffffffffffffffffffffffffffffffffffff1673ffffffffffffffffffffffffffffffffffffffff1681526020019081526020016000206000828254611edf91906153f4565b92505081905550611efe336103f75483611ef991906153f4565b613998565b505050565b6103fd5481565b6000600b60009054906101000a900460ff16905090565b6104076020528060005260406000206000915090505481565b6000806002600084815260200190815260200160002060009054906101000a900473ffffffffffffffffffffffffffffffffffffffff169050600073ffffffffffffffffffffffffffffffffffffffff168173ffffffffffffffffffffffffffffffffffffffff1603611fe2576040517f08c379a0000000000000000000000000000000000000000000000000000000008152600401611fd99061590a565b60405180910390fd5b80915050919050565b611ff36134d7565b73ffffffffffffffffffffffffffffffffffffffff166120116127c2565b73ffffffffffffffffffffffffffffffffffffffff1614612067576040517f08c379a000000000000000000000000000000000000000000000000000000000815260040161205e90615376565b60405180910390fd5b806103fd8190555050565b600c805461207f90615143565b80601f01602080910402602001604051908101604052809291908181526020018280546120ab90615143565b80156120f85780601f106120cd576101008083540402835291602001916120f8565b820191906000526020600020905b8154815290600101906020018083116120db57829003601f168201915b505050505081565b60008073ffffffffffffffffffffffffffffffffffffffff168273ffffffffffffffffffffffffffffffffffffffff1603612170576040517f08c379a00000000000000000000000000000000000000000000000000000000081526004016121679061599c565b60405180910390fd5b600360008373ffffffffffffffffffffffffffffffffffffffff1673ffffffffffffffffffffffffffffffffffffffff168152602001908152602001600020549050919050565b6121bf6134d7565b73ffffffffffffffffffffffffffffffffffffffff166121dd6127c2565b73ffffffffffffffffffffffffffffffffffffffff1614612233576040517f08c379a000000000000000000000000000000000000000000000000000000000815260040161222a90615376565b60405180910390fd5b61223d60006139b6565b565b6122476134d7565b73ffffffffffffffffffffffffffffffffffffffff166122656127c2565b73ffffffffffffffffffffffffffffffffffffffff16146122bb576040517f08c379a00000000000000000000000000000000000000000000000000000000081526004016122b290615376565b60405180910390fd5b60005b825181101561240d57600073ffffffffffffffffffffffffffffffffffffffff168382815181106122f2576122f1615396565b5b602002602001015173ffffffffffffffffffffffffffffffffffffffff16146123fa576001610400600085848151811061232f5761232e615396565b5b602002602001015173ffffffffffffffffffffffffffffffffffffffff1673ffffffffffffffffffffffffffffffffffffffff16815260200190815260200160002060006101000a81548160ff0219169083151502179055508161040160008584815181106123a1576123a0615396565b5b602002602001015173ffffffffffffffffffffffffffffffffffffffff1673ffffffffffffffffffffffffffffffffffffffff16815260200190815260200160002060008282546123f291906153f4565b925050819055505b80806124059061544a565b9150506122be565b505050565b61040a6020528060005260406000206000915090505481565b6103f65481565b61243a6134d7565b73ffffffffffffffffffffffffffffffffffffffff166124586127c2565b73ffffffffffffffffffffffffffffffffffffffff16146124ae576040517f08c379a00000000000000000000000000000000000000000000000000000000081526004016124a590615376565b60405180910390fd5b6124b6613a7c565b565b60006124c26111f2565b90506103fe5482826124d491906153f4565b1115612515576040517f08c379a000000000000000000000000000000000000000000000000000000000815260040161250c906156da565b60405180910390fd5b816103fc5461252491906156fa565b341015612566576040517f08c379a000000000000000000000000000000000000000000000000000000000815260040161255d906157a0565b60405180910390fd5b61258760405180608001604052806051815260200161626e6051913961397e565b61258f6127c2565b73ffffffffffffffffffffffffffffffffffffffff163373ffffffffffffffffffffffffffffffffffffffff161461272e57600115156103ff60009054906101000a900460ff1615150361272d5761040660003373ffffffffffffffffffffffffffffffffffffffff1673ffffffffffffffffffffffffffffffffffffffff16815260200190815260200160002060009054906101000a900460ff1661266a576040517f08c379a00000000000000000000000000000000000000000000000000000000081526004016126619061580c565b60405180910390fd5b61040760003373ffffffffffffffffffffffffffffffffffffffff1673ffffffffffffffffffffffffffffffffffffffff1681526020019081526020016000205461040860003373ffffffffffffffffffffffffffffffffffffffff1673ffffffffffffffffffffffffffffffffffffffff168152602001908152602001600020541061272c576040517f08c379a000000000000000000000000000000000000000000000000000000000815260040161272390615878565b60405180910390fd5b5b5b600060639050826103f8600082825461274791906153f4565b925050819055508261040860003373ffffffffffffffffffffffffffffffffffffffff1673ffffffffffffffffffffffffffffffffffffffff168152602001908152602001600020600082825461279e91906153f4565b925050819055506127bd336103f854836127b891906153f4565b613998565b505050565b6000600b60019054906101000a900473ffffffffffffffffffffffffffffffffffffffff16905090565b6103fc5481565b6127fb6134d7565b73ffffffffffffffffffffffffffffffffffffffff166128196127c2565b73ffffffffffffffffffffffffffffffffffffffff161461286f576040517f08c379a000000000000000000000000000000000000000000000000000000000815260040161286690615376565b60405180910390fd5b806103fb8190555050565b6103fa5481565b60606001805461289090615143565b80601f01602080910402602001604051908101604052809291908181526020018280546128bc90615143565b80156129095780601f106128de57610100808354040283529160200191612909565b820191906000526020600020905b8154815290600101906020018083116128ec57829003601f168201915b5050505050905090565b61040b6020528060005260406000206000915090505481565b6103ff60009054906101000a900460ff1681565b6103f85481565b6129596129526134d7565b8383613b1f565b5050565b61296e6129686134d7565b83613598565b6129ad576040517f08c379a00000000000000000000000000000000000000000000000000000000081526004016129a490615504565b60405180910390fd5b6129b984848484613c8b565b50505050565b6104066020528060005260406000206000915054906101000a900460ff1681565b6129e86134d7565b73ffffffffffffffffffffffffffffffffffffffff16612a066127c2565b73ffffffffffffffffffffffffffffffffffffffff1614612a5c576040517f08c379a0000000000000000000000000000000000000000000000000000000008152600401612a5390615376565b60405180910390fd5b60005b8251811015612bae57600073ffffffffffffffffffffffffffffffffffffffff16838281518110612a9357612a92615396565b5b602002602001015173ffffffffffffffffffffffffffffffffffffffff1614612b9b5760016104036000858481518110612ad057612acf615396565b5b602002602001015173ffffffffffffffffffffffffffffffffffffffff1673ffffffffffffffffffffffffffffffffffffffff16815260200190815260200160002060006101000a81548160ff021916908315150217905550816104046000858481518110612b4257612b41615396565b5b602002602001015173ffffffffffffffffffffffffffffffffffffffff1673ffffffffffffffffffffffffffffffffffffffff1681526020019081526020016000206000828254612b9391906153f4565b925050819055505b8080612ba69061544a565b915050612a5f565b505050565b6103f95481565b6104056020528060005260406000206000915090505481565b6104016020528060005260406000206000915090505481565b600d8054612bf990615143565b80601f0160208091040260200160405190810160405280929190818152602001828054612c2590615143565b8015612c725780601f10612c4757610100808354040283529160200191612c72565b820191906000526020600020905b815481529060010190602001808311612c5557829003601f168201915b505050505081565b6104036020528060005260406000206000915054906101000a900460ff1681565b6060612ca68261346b565b612ce5576040517f08c379a0000000000000000000000000000000000000000000000000000000008152600401612cdc90615a2e565b60405180910390fd5b6000612cef613ce7565b90506000815111612d0f5760405180602001604052806000815250612d3d565b80612d1984613d79565b600d604051602001612d2d93929190615b1e565b6040516020818303038152906040525b915050919050565b6103fe5481565b612d546134d7565b73ffffffffffffffffffffffffffffffffffffffff16612d726127c2565b73ffffffffffffffffffffffffffffffffffffffff1614612dc8576040517f08c379a0000000000000000000000000000000000000000000000000000000008152600401612dbf90615376565b60405180910390fd5b60005b8251811015612f1a57600073ffffffffffffffffffffffffffffffffffffffff16838281518110612dff57612dfe615396565b5b602002602001015173ffffffffffffffffffffffffffffffffffffffff1614612f075760016104096000858481518110612e3c57612e3b615396565b5b602002602001015173ffffffffffffffffffffffffffffffffffffffff1673ffffffffffffffffffffffffffffffffffffffff16815260200190815260200160002060006101000a81548160ff0219169083151502179055508161040a6000858481518110612eae57612ead615396565b5b602002602001015173ffffffffffffffffffffffffffffffffffffffff1673ffffffffffffffffffffffffffffffffffffffff1681526020019081526020016000206000828254612eff91906153f4565b925050819055505b8080612f129061544a565b915050612dcb565b505050565b6103f75481565b6000612f306111f2565b90506103fe548282612f4291906153f4565b1115612f83576040517f08c379a0000000000000000000000000000000000000000000000000000000008152600401612f7a906156da565b60405180910390fd5b816103fd54612f9291906156fa565b341015612fd4576040517f08c379a0000000000000000000000000000000000000000000000000000000008152600401612fcb906157a0565b60405180910390fd5b612ff560405180608001604052806051815260200161621d6051913961397e565b612ffd6127c2565b73ffffffffffffffffffffffffffffffffffffffff163373ffffffffffffffffffffffffffffffffffffffff161461319c57600115156103ff60009054906101000a900460ff1615150361319b5761040960003373ffffffffffffffffffffffffffffffffffffffff1673ffffffffffffffffffffffffffffffffffffffff16815260200190815260200160002060009054906101000a900460ff166130d8576040517f08c379a00000000000000000000000000000000000000000000000000000000081526004016130cf9061580c565b60405180910390fd5b61040a60003373ffffffffffffffffffffffffffffffffffffffff1673ffffffffffffffffffffffffffffffffffffffff1681526020019081526020016000205461040b60003373ffffffffffffffffffffffffffffffffffffffff1673ffffffffffffffffffffffffffffffffffffffff168152602001908152602001600020541061319a576040517f08c379a000000000000000000000000000000000000000000000000000000000815260040161319190615878565b60405180910390fd5b5b5b60006101c19050826103f960008282546131b691906153f4565b925050819055508261040b60003373ffffffffffffffffffffffffffffffffffffffff1673ffffffffffffffffffffffffffffffffffffffff168152602001908152602001600020600082825461320d91906153f4565b9250508190555061322c336103f9548361322791906153f4565b613998565b505050565b6104086020528060005260406000206000915090505481565b6000600560008473ffffffffffffffffffffffffffffffffffffffff1673ffffffffffffffffffffffffffffffffffffffff16815260200190815260200160002060008373ffffffffffffffffffffffffffffffffffffffff1673ffffffffffffffffffffffffffffffffffffffff16815260200190815260200160002060009054906101000a900460ff16905092915050565b6132e66134d7565b73ffffffffffffffffffffffffffffffffffffffff166133046127c2565b73ffffffffffffffffffffffffffffffffffffffff161461335a576040517f08c379a000000000000000000000000000000000000000000000000000000000815260040161335190615376565b60405180910390fd5b600073ffffffffffffffffffffffffffffffffffffffff168173ffffffffffffffffffffffffffffffffffffffff16036133c9576040517f08c379a00000000000000000000000000000000000000000000000000000000081526004016133c090615bc1565b60405180910390fd5b6133d2816139b6565b50565b600f816103e781106133e657600080fd5b016000915090505481565b60007f780e9d63000000000000000000000000000000000000000000000000000000007bffffffffffffffffffffffffffffffffffffffffffffffffffffffff1916827bffffffffffffffffffffffffffffffffffffffffffffffffffffffff19161480613464575061346382613ed9565b5b9050919050565b60008073ffffffffffffffffffffffffffffffffffffffff166002600084815260200190815260200160002060009054906101000a900473ffffffffffffffffffffffffffffffffffffffff1673ffffffffffffffffffffffffffffffffffffffff1614159050919050565b600033905090565b816004600083815260200190815260200160002060006101000a81548173ffffffffffffffffffffffffffffffffffffffff021916908373ffffffffffffffffffffffffffffffffffffffff160217905550808273ffffffffffffffffffffffffffffffffffffffff1661355283611f3a565b73ffffffffffffffffffffffffffffffffffffffff167f8c5be1e5ebec7d5bd14f71427d1e84f3dd0314c0f7b2291e5b200ac8c7c3b92560405160405180910390a45050565b60006135a38261346b565b6135e2576040517f08c379a00000000000000000000000000000000000000000000000000000000081526004016135d990615c53565b60405180910390fd5b60006135ed83611f3a565b90508073ffffffffffffffffffffffffffffffffffffffff168473ffffffffffffffffffffffffffffffffffffffff16148061362f575061362e818561324a565b5b8061366d57508373ffffffffffffffffffffffffffffffffffffffff1661365584610fb6565b73ffffffffffffffffffffffffffffffffffffffff16145b91505092915050565b8273ffffffffffffffffffffffffffffffffffffffff1661369682611f3a565b73ffffffffffffffffffffffffffffffffffffffff16146136ec576040517f08c379a00000000000000000000000000000000000000000000000000000000081526004016136e390615ce5565b60405180910390fd5b600073ffffffffffffffffffffffffffffffffffffffff168273ffffffffffffffffffffffffffffffffffffffff160361375b576040517f08c379a000000000000000000000000000000000000000000000000000000000815260040161375290615d77565b60405180910390fd5b613766838383613fbb565b6137716000826134df565b6001600360008573ffffffffffffffffffffffffffffffffffffffff1673ffffffffffffffffffffffffffffffffffffffff16815260200190815260200160002060008282546137c19190615d97565b925050819055506001600360008473ffffffffffffffffffffffffffffffffffffffff1673ffffffffffffffffffffffffffffffffffffffff168152602001908152602001600020600082825461381891906153f4565b92505081905550816002600083815260200190815260200160002060006101000a81548173ffffffffffffffffffffffffffffffffffffffff021916908373ffffffffffffffffffffffffffffffffffffffff160217905550808273ffffffffffffffffffffffffffffffffffffffff168473ffffffffffffffffffffffffffffffffffffffff167fddf252ad1be2c89b69c2b068fc378daa952ba7f163c4a11628f55a4df523b3ef60405160405180910390a46138d7838383614013565b505050565b6138e4611f0a565b613923576040517f08c379a000000000000000000000000000000000000000000000000000000000815260040161391a90615e17565b60405180910390fd5b6000600b60006101000a81548160ff0219169083151502179055507f5db9ee0a495bf2e6ff9c91a7834c1ba4fdd244a5e8aa4e537bd38aeae4b073aa6139676134d7565b6040516139749190614ba7565b60405180910390a1565b80600c908051906020019061399492919061487d565b5050565b6139b2828260405180602001604052806000815250614018565b5050565b6000600b60019054906101000a900473ffffffffffffffffffffffffffffffffffffffff16905081600b60016101000a81548173ffffffffffffffffffffffffffffffffffffffff021916908373ffffffffffffffffffffffffffffffffffffffff1602179055508173ffffffffffffffffffffffffffffffffffffffff168173ffffffffffffffffffffffffffffffffffffffff167f8be0079c531659141344cd1fd0a4f28419497f9722a3daafe3b4186f6b6457e060405160405180910390a35050565b613a84611f0a565b15613ac4576040517f08c379a0000000000000000000000000000000000000000000000000000000008152600401613abb90615e83565b60405180910390fd5b6001600b60006101000a81548160ff0219169083151502179055507f62e78cea01bee320cd4e420270b5ea74000d11b0c9f74754ebdbfc544b05a258613b086134d7565b604051613b159190614ba7565b60405180910390a1565b8173ffffffffffffffffffffffffffffffffffffffff168373ffffffffffffffffffffffffffffffffffffffff1603613b8d576040517f08c379a0000000000000000000000000000000000000000000000000000000008152600401613b8490615eef565b60405180910390fd5b80600560008573ffffffffffffffffffffffffffffffffffffffff1673ffffffffffffffffffffffffffffffffffffffff16815260200190815260200160002060008473ffffffffffffffffffffffffffffffffffffffff1673ffffffffffffffffffffffffffffffffffffffff16815260200190815260200160002060006101000a81548160ff0219169083151502179055508173ffffffffffffffffffffffffffffffffffffffff168373ffffffffffffffffffffffffffffffffffffffff167f17307eab39ab6107e8899845ad3d59bd9653f200f220920489ca2b5937696c3183604051613c7e91906149d4565b60405180910390a3505050565b613c96848484613676565b613ca284848484614073565b613ce1576040517f08c379a0000000000000000000000000000000000000000000000000000000008152600401613cd890615f81565b60405180910390fd5b50505050565b6060600c8054613cf690615143565b80601f0160208091040260200160405190810160405280929190818152602001828054613d2290615143565b8015613d6f5780601f10613d4457610100808354040283529160200191613d6f565b820191906000526020600020905b815481529060010190602001808311613d5257829003601f168201915b5050505050905090565b606060008203613dc0576040518060400160405280600181526020017f30000000000000000000000000000000000000000000000000000000000000008152509050613ed4565b600082905060005b60008214613df2578080613ddb9061544a565b915050600a82613deb9190615fd0565b9150613dc8565b60008167ffffffffffffffff811115613e0e57613e0d614c31565b5b6040519080825280601f01601f191660200182016040528015613e405781602001600182028036833780820191505090505b5090505b60008514613ecd57600182613e599190615d97565b9150600a85613e689190616001565b6030613e7491906153f4565b60f81b818381518110613e8a57613e89615396565b5b60200101907effffffffffffffffffffffffffffffffffffffffffffffffffffffffffffff1916908160001a905350600a85613ec69190615fd0565b9450613e44565b8093505050505b919050565b60007f80ac58cd000000000000000000000000000000000000000000000000000000007bffffffffffffffffffffffffffffffffffffffffffffffffffffffff1916827bffffffffffffffffffffffffffffffffffffffffffffffffffffffff19161480613fa457507f5b5e139f000000000000000000000000000000000000000000000000000000007bffffffffffffffffffffffffffffffffffffffffffffffffffffffff1916827bffffffffffffffffffffffffffffffffffffffffffffffffffffffff1916145b80613fb45750613fb3826141fa565b5b9050919050565b613fc3611f0a565b15614003576040517f08c379a0000000000000000000000000000000000000000000000000000000008152600401613ffa90615e83565b60405180910390fd5b61400e838383614264565b505050565b505050565b6140228383614376565b61402f6000848484614073565b61406e576040517f08c379a000000000000000000000000000000000000000000000000000000000815260040161406590615f81565b60405180910390fd5b505050565b60006140948473ffffffffffffffffffffffffffffffffffffffff1661454f565b156141ed578373ffffffffffffffffffffffffffffffffffffffff1663150b7a026140bd6134d7565b8786866040518563ffffffff1660e01b81526004016140df9493929190616087565b6020604051808303816000875af192505050801561411b57506040513d601f19601f8201168201806040525081019061411891906160e8565b60015b61419d573d806000811461414b576040519150601f19603f3d011682016040523d82523d6000602084013e614150565b606091505b506000815103614195576040517f08c379a000000000000000000000000000000000000000000000000000000000815260040161418c90615f81565b60405180910390fd5b805181602001fd5b63150b7a0260e01b7bffffffffffffffffffffffffffffffffffffffffffffffffffffffff1916817bffffffffffffffffffffffffffffffffffffffffffffffffffffffff1916149150506141f2565b600190505b949350505050565b60007f01ffc9a7000000000000000000000000000000000000000000000000000000007bffffffffffffffffffffffffffffffffffffffffffffffffffffffff1916827bffffffffffffffffffffffffffffffffffffffffffffffffffffffff1916149050919050565b61426f838383614572565b600073ffffffffffffffffffffffffffffffffffffffff168373ffffffffffffffffffffffffffffffffffffffff16036142b1576142ac81614577565b6142f0565b8173ffffffffffffffffffffffffffffffffffffffff168373ffffffffffffffffffffffffffffffffffffffff16146142ef576142ee83826145c0565b5b5b600073ffffffffffffffffffffffffffffffffffffffff168273ffffffffffffffffffffffffffffffffffffffff16036143325761432d8161472d565b614371565b8273ffffffffffffffffffffffffffffffffffffffff168273ffffffffffffffffffffffffffffffffffffffff16146143705761436f82826147fe565b5b5b505050565b600073ffffffffffffffffffffffffffffffffffffffff168273ffffffffffffffffffffffffffffffffffffffff16036143e5576040517f08c379a00000000000000000000000000000000000000000000000000000000081526004016143dc90616161565b60405180910390fd5b6143ee8161346b565b1561442e576040517f08c379a0000000000000000000000000000000000000000000000000000000008152600401614425906161cd565b60405180910390fd5b61443a60008383613fbb565b6001600360008473ffffffffffffffffffffffffffffffffffffffff1673ffffffffffffffffffffffffffffffffffffffff168152602001908152602001600020600082825461448a91906153f4565b92505081905550816002600083815260200190815260200160002060006101000a81548173ffffffffffffffffffffffffffffffffffffffff021916908373ffffffffffffffffffffffffffffffffffffffff160217905550808273ffffffffffffffffffffffffffffffffffffffff16600073ffffffffffffffffffffffffffffffffffffffff167fddf252ad1be2c89b69c2b068fc378daa952ba7f163c4a11628f55a4df523b3ef60405160405180910390a461454b60008383614013565b5050565b6000808273ffffffffffffffffffffffffffffffffffffffff163b119050919050565b505050565b6008805490506009600083815260200190815260200160002081905550600881908060018154018082558091505060019003906000526020600020016000909190919091505550565b600060016145cd84612100565b6145d79190615d97565b90506000600760008481526020019081526020016000205490508181146146bc576000600660008673ffffffffffffffffffffffffffffffffffffffff1673ffffffffffffffffffffffffffffffffffffffff168152602001908152602001600020600084815260200190815260200160002054905080600660008773ffffffffffffffffffffffffffffffffffffffff1673ffffffffffffffffffffffffffffffffffffffff168152602001908152602001600020600084815260200190815260200160002081905550816007600083815260200190815260200160002081905550505b6007600084815260200190815260200160002060009055600660008573ffffffffffffffffffffffffffffffffffffffff1673ffffffffffffffffffffffffffffffffffffffff16815260200190815260200160002060008381526020019081526020016000206000905550505050565b600060016008805490506147419190615d97565b905060006009600084815260200190815260200160002054905060006008838154811061477157614770615396565b5b90600052602060002001549050806008838154811061479357614792615396565b5b9060005260206000200181905550816009600083815260200190815260200160002081905550600960008581526020019081526020016000206000905560088054806147e2576147e16161ed565b5b6001900381819060005260206000200160009055905550505050565b600061480983612100565b905081600660008573ffffffffffffffffffffffffffffffffffffffff1673ffffffffffffffffffffffffffffffffffffffff168152602001908152602001600020600083815260200190815260200160002081905550806007600084815260200190815260200160002081905550505050565b82805461488990615143565b90600052602060002090601f0160209004810192826148ab57600085556148f2565b82601f106148c457805160ff19168380011785556148f2565b828001600101855582156148f2579182015b828111156148f15782518255916020019190600101906148d6565b5b5090506148ff9190614903565b5090565b5b8082111561491c576000816000905550600101614904565b5090565b6000604051905090565b600080fd5b600080fd5b60007fffffffff0000000000000000000000000000000000000000000000000000000082169050919050565b61496981614934565b811461497457600080fd5b50565b60008135905061498681614960565b92915050565b6000602082840312156149a2576149a161492a565b5b60006149b084828501614977565b91505092915050565b60008115159050919050565b6149ce816149b9565b82525050565b60006020820190506149e960008301846149c5565b92915050565b600081519050919050565b600082825260208201905092915050565b60005b83811015614a29578082015181840152602081019050614a0e565b83811115614a38576000848401525b50505050565b6000601f19601f8301169050919050565b6000614a5a826149ef565b614a6481856149fa565b9350614a74818560208601614a0b565b614a7d81614a3e565b840191505092915050565b60006020820190508181036000830152614aa28184614a4f565b905092915050565b600073ffffffffffffffffffffffffffffffffffffffff82169050919050565b6000614ad582614aaa565b9050919050565b614ae581614aca565b8114614af057600080fd5b50565b600081359050614b0281614adc565b92915050565b600060208284031215614b1e57614b1d61492a565b5b6000614b2c84828501614af3565b91505092915050565b6000819050919050565b614b4881614b35565b8114614b5357600080fd5b50565b600081359050614b6581614b3f565b92915050565b600060208284031215614b8157614b8061492a565b5b6000614b8f84828501614b56565b91505092915050565b614ba181614aca565b82525050565b6000602082019050614bbc6000830184614b98565b92915050565b60008060408385031215614bd957614bd861492a565b5b6000614be785828601614af3565b9250506020614bf885828601614b56565b9150509250929050565b614c0b81614b35565b82525050565b6000602082019050614c266000830184614c02565b92915050565b600080fd5b7f4e487b7100000000000000000000000000000000000000000000000000000000600052604160045260246000fd5b614c6982614a3e565b810181811067ffffffffffffffff82111715614c8857614c87614c31565b5b80604052505050565b6000614c9b614920565b9050614ca78282614c60565b919050565b600067ffffffffffffffff821115614cc757614cc6614c31565b5b602082029050602081019050919050565b600080fd5b6000614cf0614ceb84614cac565b614c91565b90508083825260208201905060208402830185811115614d1357614d12614cd8565b5b835b81811015614d3c5780614d288882614af3565b845260208401935050602081019050614d15565b5050509392505050565b600082601f830112614d5b57614d5a614c2c565b5b8135614d6b848260208601614cdd565b91505092915050565b60008060408385031215614d8b57614d8a61492a565b5b600083013567ffffffffffffffff811115614da957614da861492f565b5b614db585828601614d46565b9250506020614dc685828601614b56565b9150509250929050565b600080600060608486031215614de957614de861492a565b5b6000614df786828701614af3565b9350506020614e0886828701614af3565b9250506040614e1986828701614b56565b9150509250925092565b614e2c816149b9565b8114614e3757600080fd5b50565b600081359050614e4981614e23565b92915050565b600060208284031215614e6557614e6461492a565b5b6000614e7384828501614e3a565b91505092915050565b600081519050919050565b600082825260208201905092915050565b6000819050602082019050919050565b614eb181614b35565b82525050565b6000614ec38383614ea8565b60208301905092915050565b6000602082019050919050565b6000614ee782614e7c565b614ef18185614e87565b9350614efc83614e98565b8060005b83811015614f2d578151614f148882614eb7565b9750614f1f83614ecf565b925050600181019050614f00565b5085935050505092915050565b60006020820190508181036000830152614f548184614edc565b905092915050565b60008060408385031215614f7357614f7261492a565b5b6000614f8185828601614af3565b9250506020614f9285828601614e3a565b9150509250929050565b600080fd5b600067ffffffffffffffff821115614fbc57614fbb614c31565b5b614fc582614a3e565b9050602081019050919050565b82818337600083830152505050565b6000614ff4614fef84614fa1565b614c91565b9050828152602081018484840111156150105761500f614f9c565b5b61501b848285614fd2565b509392505050565b600082601f83011261503857615037614c2c565b5b8135615048848260208601614fe1565b91505092915050565b6000806000806080858703121561506b5761506a61492a565b5b600061507987828801614af3565b945050602061508a87828801614af3565b935050604061509b87828801614b56565b925050606085013567ffffffffffffffff8111156150bc576150bb61492f565b5b6150c887828801615023565b91505092959194509250565b600080604083850312156150eb576150ea61492a565b5b60006150f985828601614af3565b925050602061510a85828601614af3565b9150509250929050565b7f4e487b7100000000000000000000000000000000000000000000000000000000600052602260045260246000fd5b6000600282049050600182168061515b57607f821691505b60208210810361516e5761516d615114565b5b50919050565b7f4552433732313a20617070726f76656420717565727920666f72206e6f6e657860008201527f697374656e7420746f6b656e0000000000000000000000000000000000000000602082015250565b60006151d0602c836149fa565b91506151db82615174565b604082019050919050565b600060208201905081810360008301526151ff816151c3565b9050919050565b7f4552433732313a20617070726f76616c20746f2063757272656e74206f776e6560008201527f7200000000000000000000000000000000000000000000000000000000000000602082015250565b60006152626021836149fa565b915061526d82615206565b604082019050919050565b6000602082019050818103600083015261529181615255565b9050919050565b7f4552433732313a20617070726f76652063616c6c6572206973206e6f74206f7760008201527f6e6572206e6f7220617070726f76656420666f7220616c6c0000000000000000602082015250565b60006152f46038836149fa565b91506152ff82615298565b604082019050919050565b60006020820190508181036000830152615323816152e7565b9050919050565b7f4f776e61626c653a2063616c6c6572206973206e6f7420746865206f776e6572600082015250565b60006153606020836149fa565b915061536b8261532a565b602082019050919050565b6000602082019050818103600083015261538f81615353565b9050919050565b7f4e487b7100000000000000000000000000000000000000000000000000000000600052603260045260246000fd5b7f4e487b7100000000000000000000000000000000000000000000000000000000600052601160045260246000fd5b60006153ff82614b35565b915061540a83614b35565b9250827fffffffffffffffffffffffffffffffffffffffffffffffffffffffffffffffff0382111561543f5761543e6153c5565b5b828201905092915050565b600061545582614b35565b91507fffffffffffffffffffffffffffffffffffffffffffffffffffffffffffffffff8203615487576154866153c5565b5b600182019050919050565b7f4552433732313a207472616e736665722063616c6c6572206973206e6f74206f60008201527f776e6572206e6f7220617070726f766564000000000000000000000000000000602082015250565b60006154ee6031836149fa565b91506154f982615492565b604082019050919050565b6000602082019050818103600083015261551d816154e1565b9050919050565b7f455243373231456e756d657261626c653a206f776e657220696e646578206f7560008201527f74206f6620626f756e6473000000000000000000000000000000000000000000602082015250565b6000615580602b836149fa565b915061558b82615524565b604082019050919050565b600060208201905081810360008301526155af81615573565b9050919050565b600081905092915050565b50565b60006155d16000836155b6565b91506155dc826155c1565b600082019050919050565b60006155f2826155c4565b9150819050919050565b7f455243373231456e756d657261626c653a20676c6f62616c20696e646578206f60008201527f7574206f6620626f756e64730000000000000000000000000000000000000000602082015250565b6000615658602c836149fa565b9150615663826155fc565b604082019050919050565b600060208201905081810360008301526156878161564b565b9050919050565b7f45786365656473204d617820537570706c790000000000000000000000000000600082015250565b60006156c46012836149fa565b91506156cf8261568e565b602082019050919050565b600060208201905081810360008301526156f3816156b7565b9050919050565b600061570582614b35565b915061571083614b35565b9250817fffffffffffffffffffffffffffffffffffffffffffffffffffffffffffffffff0483118215151615615749576157486153c5565b5b828202905092915050565b7f496e73756666696369656e742046756e64730000000000000000000000000000600082015250565b600061578a6012836149fa565b915061579582615754565b602082019050919050565b600060208201905081810360008301526157b98161577d565b9050919050565b7f55736572204973204e6f742057686974656c6973746564000000000000000000600082015250565b60006157f66017836149fa565b9150615801826157c0565b602082019050919050565b60006020820190508181036000830152615825816157e9565b9050919050565b7f45786365656465642057686974656c697374656420416d6f756e742100000000600082015250565b6000615862601c836149fa565b915061586d8261582c565b602082019050919050565b6000602082019050818103600083015261589181615855565b9050919050565b7f4552433732313a206f776e657220717565727920666f72206e6f6e657869737460008201527f656e7420746f6b656e0000000000000000000000000000000000000000000000602082015250565b60006158f46029836149fa565b91506158ff82615898565b604082019050919050565b60006020820190508181036000830152615923816158e7565b9050919050565b7f4552433732313a2062616c616e636520717565727920666f7220746865207a6560008201527f726f206164647265737300000000000000000000000000000000000000000000602082015250565b6000615986602a836149fa565b91506159918261592a565b604082019050919050565b600060208201905081810360008301526159b581615979565b9050919050565b7f4552433732314d657461646174613a2055524920717565727920666f72206e6f60008201527f6e6578697374656e7420746f6b656e0000000000000000000000000000000000602082015250565b6000615a18602f836149fa565b9150615a23826159bc565b604082019050919050565b60006020820190508181036000830152615a4781615a0b565b9050919050565b600081905092915050565b6000615a64826149ef565b615a6e8185615a4e565b9350615a7e818560208601614a0b565b80840191505092915050565b60008190508160005260206000209050919050565b60008154615aac81615143565b615ab68186615a4e565b94506001821660008114615ad15760018114615ae257615b15565b60ff19831686528186019350615b15565b615aeb85615a8a565b60005b83811015615b0d57815481890152600182019150602081019050615aee565b838801955050505b50505092915050565b6000615b2a8286615a59565b9150615b368285615a59565b9150615b428284615a9f565b9150819050949350505050565b7f4f776e61626c653a206e6577206f776e657220697320746865207a65726f206160008201527f6464726573730000000000000000000000000000000000000000000000000000602082015250565b6000615bab6026836149fa565b9150615bb682615b4f565b604082019050919050565b60006020820190508181036000830152615bda81615b9e565b9050919050565b7f4552433732313a206f70657261746f7220717565727920666f72206e6f6e657860008201527f697374656e7420746f6b656e0000000000000000000000000000000000000000602082015250565b6000615c3d602c836149fa565b9150615c4882615be1565b604082019050919050565b60006020820190508181036000830152615c6c81615c30565b9050919050565b7f4552433732313a207472616e736665722066726f6d20696e636f72726563742060008201527f6f776e6572000000000000000000000000000000000000000000000000000000602082015250565b6000615ccf6025836149fa565b9150615cda82615c73565b604082019050919050565b60006020820190508181036000830152615cfe81615cc2565b9050919050565b7f4552433732313a207472616e7366657220746f20746865207a65726f2061646460008201527f7265737300000000000000000000000000000000000000000000000000000000602082015250565b6000615d616024836149fa565b9150615d6c82615d05565b604082019050919050565b60006020820190508181036000830152615d9081615d54565b9050919050565b6000615da282614b35565b9150615dad83614b35565b925082821015615dc057615dbf6153c5565b5b828203905092915050565b7f5061757361626c653a206e6f7420706175736564000000000000000000000000600082015250565b6000615e016014836149fa565b9150615e0c82615dcb565b602082019050919050565b60006020820190508181036000830152615e3081615df4565b9050919050565b7f5061757361626c653a2070617573656400000000000000000000000000000000600082015250565b6000615e6d6010836149fa565b9150615e7882615e37565b602082019050919050565b60006020820190508181036000830152615e9c81615e60565b9050919050565b7f4552433732313a20617070726f766520746f2063616c6c657200000000000000600082015250565b6000615ed96019836149fa565b9150615ee482615ea3565b602082019050919050565b60006020820190508181036000830152615f0881615ecc565b9050919050565b7f4552433732313a207472616e7366657220746f206e6f6e20455243373231526560008201527f63656976657220696d706c656d656e7465720000000000000000000000000000602082015250565b6000615f6b6032836149fa565b9150615f7682615f0f565b604082019050919050565b60006020820190508181036000830152615f9a81615f5e565b9050919050565b7f4e487b7100000000000000000000000000000000000000000000000000000000600052601260045260246000fd5b6000615fdb82614b35565b9150615fe683614b35565b925082615ff657615ff5615fa1565b5b828204905092915050565b600061600c82614b35565b915061601783614b35565b92508261602757616026615fa1565b5b828206905092915050565b600081519050919050565b600082825260208201905092915050565b600061605982616032565b616063818561603d565b9350616073818560208601614a0b565b61607c81614a3e565b840191505092915050565b600060808201905061609c6000830187614b98565b6160a96020830186614b98565b6160b66040830185614c02565b81810360608301526160c8818461604e565b905095945050505050565b6000815190506160e281614960565b92915050565b6000602082840312156160fe576160fd61492a565b5b600061610c848285016160d3565b91505092915050565b7f4552433732313a206d696e7420746f20746865207a65726f2061646472657373600082015250565b600061614b6020836149fa565b915061615682616115565b602082019050919050565b6000602082019050818103600083015261617a8161613e565b9050919050565b7f4552433732313a20746f6b656e20616c7265616479206d696e74656400000000600082015250565b60006161b7601c836149fa565b91506161c282616181565b602082019050919050565b600060208201905081810360008301526161e6816161aa565b9050919050565b7f4e487b7100000000000000000000000000000000000000000000000000000000600052603160045260246000fdfe68747470733a2f2f676174657761792e70696e6174612e636c6f75642f697066732f516d5a466a6f77664c73455835625262526776396f6a764b436779546a6f71524236516b397871563734763842692f68747470733a2f2f676174657761792e70696e6174612e636c6f75642f697066732f516d4e63315866456636554e6658527861356841734e6d43736b3155556b32444e517033435574637971447373662f68747470733a2f2f676174657761792e70696e6174612e636c6f75642f697066732f516d5a6e625059767a6174586655624d6b315855554133557146716b6f6d71427131426d75454c7767507a4a54682f68747470733a2f2f676174657761792e70696e6174612e636c6f75642f697066732f516d6234436d756247316d3144576253635772416f4c5161566d63433477593642535532625336555871367367782fa26469706673582212205740bc6617b6730b25aad92886a5444cb10589421d67275ee84deafcc3e0b62f64736f6c634300080e0033",
  "immutableReferences": {},
  "source": "// SPDX-License-Identifier: MIT\r\npragma solidity ^0.8.7;\r\n\r\nimport \"@openzeppelin/contracts/token/ERC721/ERC721.sol\";\r\nimport \"@openzeppelin/contracts/token/ERC721/extensions/ERC721Enumerable.sol\";\r\nimport \"@openzeppelin/contracts/token/ERC721/extensions/ERC721URIStorage.sol\";\r\nimport \"@openzeppelin/contracts/security/Pausable.sol\";\r\nimport \"@openzeppelin/contracts/access/Ownable.sol\";\r\nimport \"@openzeppelin/contracts/utils/Counters.sol\";\r\n\r\ncontract WagmiClub is ERC721, ERC721Enumerable, ERC721URIStorage, Pausable, Ownable {\r\n    using Strings for uint256;\r\n    using Counters for Counters.Counter;\r\n\r\n    string public baseURI;\r\n    string public baseExtension = \".json\";\r\n    Counters.Counter private _tokenIdCounter;\r\n\r\n    uint256[999] public ids;\r\n\r\n    uint256 public totalSuperNova;\r\n    uint256 public totalNova;\r\n    uint256 public totalAurora;\r\n    uint256 public totalGenesis;\r\n\r\n    uint256 public costSuperNova = 0 ether;\r\n    uint256 public costNova = 0 ether;\r\n    uint256 public costAurora = 0 ether;\r\n    uint256 public costGenesis = 0 ether;\r\n\r\n    uint256 public maxSupply = 999;\r\n    bool public onlyWhitelisted = true;\r\n\r\n    mapping(address => bool) public whitelistSuperNova;\r\n    mapping(address => uint256) public amountSuperNova;\r\n    mapping(address => uint256) public totalMintSuperNova;\r\n\r\n    mapping(address => bool) public whitelistNova;\r\n    mapping(address => uint256) public amountNova;\r\n    mapping(address => uint256) public totalMintNova;\r\n\r\n    mapping(address => bool) public whitelistAurora;\r\n    mapping(address => uint256) public amountAurora;\r\n    mapping(address => uint256) public totalMintAurora;\r\n\r\n    mapping(address => bool) public whitelistGenesis;\r\n    mapping(address => uint256) public amountGenesis;\r\n    mapping(address => uint256) public totalMintGenesis;\r\n\r\n    constructor() ERC721(\"Wagmi Club\", \"WC\") {}\r\n\r\n    function _baseURI() internal view virtual override returns (string memory) {\r\n        return baseURI;\r\n    }\r\n\r\n    function mintSuperNova(uint256 mintAmount) public payable {\r\n        uint256 supply = totalSupply();\r\n        require (supply + mintAmount <= maxSupply, \"Exceeds Max Supply\");\r\n        require (msg.value >= costSuperNova * mintAmount, \"Insufficient Funds\");\r\n\r\n        setBaseURI(\"https://gateway.pinata.cloud/ipfs/Qmb4CmubG1m1DWbScWrAoLQaVmcC4wY6BSU2bS6UXq6sgx/\");\r\n\r\n        if (msg.sender != owner()) {\r\n            if (onlyWhitelisted == true) {\r\n                require (whitelistSuperNova[msg.sender], \"User Is Not Whitelisted\");\r\n                require (totalMintSuperNova[msg.sender] < amountSuperNova[msg.sender], \"Exceeded Whitelisted Amount!\");\r\n            }   \r\n        }\r\n        uint256 tokenId = 0;\r\n        totalSuperNova += mintAmount;\r\n        totalMintSuperNova[msg.sender] += mintAmount;\r\n        _safeMint(msg.sender, tokenId + totalSuperNova);\r\n    }\r\n\r\n    function mintNova(uint256 mintAmount) public payable {\r\n        uint256 supply = totalSupply();\r\n        require (supply + mintAmount <= maxSupply, \"Exceeds Max Supply\");\r\n        require (msg.value >= costNova * mintAmount, \"Insufficient Funds\");\r\n\r\n        setBaseURI(\"https://gateway.pinata.cloud/ipfs/QmZnbPYvzatXfUbMk1XUUA3UqFqkomqBq1BmuELwgPzJTh/\");\r\n\r\n        if (msg.sender != owner()) {\r\n            if (onlyWhitelisted == true) {\r\n                require (whitelistNova[msg.sender], \"User Is Not Whitelisted\");\r\n                require (totalMintNova[msg.sender] < amountNova[msg.sender], \"Exceeded Whitelisted Amount!\");\r\n            }\r\n        }\r\n        uint256 tokenId = 9;\r\n        totalNova += mintAmount;\r\n        totalMintNova[msg.sender] += mintAmount;\r\n        _safeMint(msg.sender, tokenId + totalNova);\r\n    }\r\n\r\n    function mintAurora(uint256 mintAmount) public payable {\r\n        uint256 supply = totalSupply();\r\n        require (supply + mintAmount <= maxSupply, \"Exceeds Max Supply\");\r\n        require (msg.value >= costAurora * mintAmount, \"Insufficient Funds\");\r\n\r\n        setBaseURI(\"https://gateway.pinata.cloud/ipfs/QmNc1XfEf6UNfXRxa5hAsNmCsk1UUk2DNQp3CUtcyqDssf/\");\r\n\r\n        if (msg.sender != owner()) {\r\n            if (onlyWhitelisted == true) {\r\n                require (whitelistAurora[msg.sender], \"User Is Not Whitelisted\");\r\n                require (totalMintAurora[msg.sender] < amountAurora[msg.sender], \"Exceeded Whitelisted Amount!\");\r\n            }\r\n        }\r\n        uint256 tokenId = 99;\r\n        totalAurora += mintAmount;\r\n        totalMintAurora[msg.sender] += mintAmount;\r\n        _safeMint(msg.sender, tokenId + totalAurora);\r\n    }\r\n\r\n    function mintGenesis(uint256 mintAmount) public payable {\r\n        uint256 supply = totalSupply();\r\n        require (supply + mintAmount <= maxSupply, \"Exceeds Max Supply\");\r\n        require (msg.value >= costGenesis * mintAmount, \"Insufficient Funds\");\r\n\r\n        setBaseURI(\"https://gateway.pinata.cloud/ipfs/QmZFjowfLsEX5bRbRgv9ojvKCgyTjoqRB6Qk9xqV74v8Bi/\");\r\n\r\n        if (msg.sender != owner()) {\r\n            if (onlyWhitelisted == true) {\r\n                require (whitelistGenesis[msg.sender], \"User Is Not Whitelisted\");\r\n                require (totalMintGenesis[msg.sender] < amountGenesis[msg.sender], \"Exceeded Whitelisted Amount!\");\r\n            }\r\n        }\r\n        uint256 tokenId = 449;\r\n        totalGenesis += mintAmount;\r\n        totalMintGenesis[msg.sender] += mintAmount;\r\n        _safeMint(msg.sender, tokenId + totalGenesis);\r\n    }\r\n\r\n    function _beforeTokenTransfer(address from, address to, uint256 tokenId) internal whenNotPaused override(ERC721, ERC721Enumerable) {\r\n        super._beforeTokenTransfer(from, to, tokenId);\r\n    }\r\n\r\n    function setBaseURI(string memory _newBaseURI) private {\r\n        baseURI = _newBaseURI;\r\n    }\r\n\r\n    function _burn(uint256 tokenId) internal override(ERC721, ERC721URIStorage) {\r\n        super._burn(tokenId);\r\n    }\r\n\r\n    function tokenURI(uint256 tokenId) public view virtual override(ERC721, ERC721URIStorage) returns (string memory) {\r\n        require(_exists(tokenId),\"ERC721Metadata: URI query for nonexistent token\");\r\n        string memory currentBaseURI = _baseURI();\r\n        return\r\n        bytes(currentBaseURI).length > 0\r\n            ? string(abi.encodePacked(currentBaseURI, Strings.toString(tokenId), baseExtension))\r\n                : \"\";\r\n    }\r\n\r\n    function supportsInterface(bytes4 interfaceId) public view override(ERC721, ERC721Enumerable) returns (bool) {\r\n        return super.supportsInterface(interfaceId);\r\n    }\r\n\r\n    function walletOfOwner(address _owner) public view returns (uint256[] memory) {\r\n        uint256 ownerTokenCount = balanceOf(_owner);\r\n        uint256[] memory tokenIds = new uint256[](ownerTokenCount);\r\n        for (uint256 i; i < ownerTokenCount; i++) {\r\n            tokenIds[i] = tokenOfOwnerByIndex(_owner, i);\r\n        }\r\n        return tokenIds;\r\n    }\r\n\r\n    function withdraw() external payable onlyOwner {\r\n        (bool success, ) = payable(msg.sender).call{\r\n            value: address(this).balance\r\n        }(\"\");\r\n        require(success);\r\n    }\r\n\r\n    function setOnlyWhitelisted(bool _state) public onlyOwner {\r\n        onlyWhitelisted = _state;\r\n    }\r\n\r\n    function goSuperNova (address[] memory _users, uint256 allowedAmount) public onlyOwner {\r\n        for (uint i = 0; i < _users.length; i++) {\r\n            if (_users[i] != address(0) ) {\r\n                whitelistSuperNova[_users[i]] = true;\r\n                amountSuperNova[_users[i]] += allowedAmount;\r\n            }   \r\n        }    \r\n    }\r\n\r\n    function goNova (address[] memory _users, uint256 allowedAmount) public onlyOwner {\r\n        for (uint i = 0; i < _users.length; i++) {\r\n            if (_users[i] != address(0) ) {\r\n                whitelistNova[_users[i]] = true;\r\n                amountNova[_users[i]] += allowedAmount;\r\n            }   \r\n        }    \r\n    }\r\n\r\n    function goAurora (address[] memory _users, uint256 allowedAmount) public onlyOwner {\r\n        for (uint i = 0; i < _users.length; i++) {\r\n            if (_users[i] != address(0) ) {\r\n                whitelistAurora[_users[i]] = true;\r\n                amountAurora[_users[i]] += allowedAmount;\r\n            }   \r\n        }    \r\n    }\r\n\r\n    function goGenesis (address[] memory _users, uint256 allowedAmount) public onlyOwner {\r\n        for (uint i = 0; i < _users.length; i++) {\r\n            if (_users[i] != address(0) ) {\r\n                whitelistGenesis[_users[i]] = true;\r\n                amountGenesis[_users[i]] += allowedAmount;\r\n            }   \r\n        }    \r\n    }\r\n\r\n    function setCostSuperNova(uint256 _newCostSuperNova) public onlyOwner {\r\n        costSuperNova = _newCostSuperNova;\r\n    }\r\n\r\n    function setCostNova(uint256 _newCostNova) public onlyOwner {\r\n        costNova = _newCostNova;\r\n    }\r\n\r\n    function setCostAurora(uint256 _newCostAurora) public onlyOwner {\r\n        costAurora = _newCostAurora;\r\n    }\r\n\r\n    function setCostGenesis(uint256 _newCostGenesis) public onlyOwner {\r\n        costGenesis = _newCostGenesis;\r\n    }\r\n\r\n    function pause() public onlyOwner {\r\n        _pause();\r\n    }\r\n\r\n    function unpause() public onlyOwner {\r\n        _unpause();\r\n    }\r\n}",
  "sourcePath": "E:\\P_Work\\Blockchain\\wagmi-ts\\src\\contracts\\WagmiClub.sol",
  "compiler": {
    "name": "solc",
    "version": "0.8.14+commit.80d49f37.Emscripten.clang"
  },
  "schemaVersion": "3.4.3",
  "updatedAt": "2022-08-04T13:46:55.863Z",
  "devdoc": {
    "kind": "dev",
    "methods": {
      "approve(address,uint256)": {
        "details": "See {IERC721-approve}."
      },
      "balanceOf(address)": {
        "details": "See {IERC721-balanceOf}."
      },
      "getApproved(uint256)": {
        "details": "See {IERC721-getApproved}."
      },
      "isApprovedForAll(address,address)": {
        "details": "See {IERC721-isApprovedForAll}."
      },
      "name()": {
        "details": "See {IERC721Metadata-name}."
      },
      "owner()": {
        "details": "Returns the address of the current owner."
      },
      "ownerOf(uint256)": {
        "details": "See {IERC721-ownerOf}."
      },
      "paused()": {
        "details": "Returns true if the contract is paused, and false otherwise."
      },
      "renounceOwnership()": {
        "details": "Leaves the contract without owner. It will not be possible to call `onlyOwner` functions anymore. Can only be called by the current owner. NOTE: Renouncing ownership will leave the contract without an owner, thereby removing any functionality that is only available to the owner."
      },
      "safeTransferFrom(address,address,uint256)": {
        "details": "See {IERC721-safeTransferFrom}."
      },
      "safeTransferFrom(address,address,uint256,bytes)": {
        "details": "See {IERC721-safeTransferFrom}."
      },
      "setApprovalForAll(address,bool)": {
        "details": "See {IERC721-setApprovalForAll}."
      },
      "symbol()": {
        "details": "See {IERC721Metadata-symbol}."
      },
      "tokenByIndex(uint256)": {
        "details": "See {IERC721Enumerable-tokenByIndex}."
      },
      "tokenOfOwnerByIndex(address,uint256)": {
        "details": "See {IERC721Enumerable-tokenOfOwnerByIndex}."
      },
      "totalSupply()": {
        "details": "See {IERC721Enumerable-totalSupply}."
      },
      "transferFrom(address,address,uint256)": {
        "details": "See {IERC721-transferFrom}."
      },
      "transferOwnership(address)": {
        "details": "Transfers ownership of the contract to a new account (`newOwner`). Can only be called by the current owner."
      }
    },
    "version": 1
  },
  "userdoc": {
    "kind": "user",
    "methods": {},
    "version": 1
  }
}